{
  "abi": [
    {
      "inputs": [
        {
          "internalType": "contract IVenAccessControl",
          "name": "_accessControl",
          "type": "address"
        }
      ],
      "stateMutability": "nonpayable",
      "type": "constructor"
    },
    {
      "anonymous": false,
      "inputs": [
        {
          "indexed": true,
          "internalType": "address",
          "name": "owner",
          "type": "address"
        },
        {
          "indexed": true,
          "internalType": "address",
          "name": "approved",
          "type": "address"
        },
        {
          "indexed": true,
          "internalType": "uint256",
          "name": "tokenId",
          "type": "uint256"
        }
      ],
      "name": "Approval",
      "type": "event"
    },
    {
      "anonymous": false,
      "inputs": [
        {
          "indexed": true,
          "internalType": "address",
          "name": "owner",
          "type": "address"
        },
        {
          "indexed": true,
          "internalType": "address",
          "name": "operator",
          "type": "address"
        },
        {
          "indexed": false,
          "internalType": "bool",
          "name": "approved",
          "type": "bool"
        }
      ],
      "name": "ApprovalForAll",
      "type": "event"
    },
    {
      "anonymous": false,
      "inputs": [
        {
          "indexed": true,
          "internalType": "address",
          "name": "from",
          "type": "address"
        },
        {
          "indexed": true,
          "internalType": "address",
          "name": "to",
          "type": "address"
        },
        {
          "indexed": true,
          "internalType": "uint256",
          "name": "tokenId",
          "type": "uint256"
        }
      ],
      "name": "Transfer",
      "type": "event"
    },
    {
      "anonymous": false,
      "inputs": [
        {
          "indexed": false,
          "internalType": "address",
          "name": "",
          "type": "address"
        },
        {
          "indexed": false,
          "internalType": "address",
          "name": "",
          "type": "address"
        }
      ],
      "name": "newCaller",
      "type": "event"
    },
    {
      "inputs": [],
      "name": "CALLEE",
      "outputs": [
        {
          "internalType": "bytes32",
          "name": "",
          "type": "bytes32"
        }
      ],
      "stateMutability": "view",
      "type": "function"
    },
    {
      "inputs": [],
      "name": "VenAccessControl",
      "outputs": [
        {
          "internalType": "contract IVenAccessControl",
          "name": "",
          "type": "address"
        }
      ],
      "stateMutability": "view",
      "type": "function"
    },
    {
      "inputs": [
        {
          "internalType": "address",
          "name": "to",
          "type": "address"
        },
        {
          "internalType": "uint256",
          "name": "tokenId",
          "type": "uint256"
        }
      ],
      "name": "approve",
      "outputs": [],
      "stateMutability": "nonpayable",
      "type": "function"
    },
    {
      "inputs": [
        {
          "internalType": "address",
          "name": "owner",
          "type": "address"
        }
      ],
      "name": "balanceOf",
      "outputs": [
        {
          "internalType": "uint256",
          "name": "",
          "type": "uint256"
        }
      ],
      "stateMutability": "view",
      "type": "function"
    },
    {
      "inputs": [
        {
          "internalType": "uint256",
          "name": "_tokenId",
          "type": "uint256"
        }
      ],
      "name": "burnPassTicket",
      "outputs": [],
      "stateMutability": "nonpayable",
      "type": "function"
    },
    {
      "inputs": [
        {
          "internalType": "address",
          "name": "_investor",
          "type": "address"
        }
      ],
      "name": "daoPassTicket",
      "outputs": [
        {
          "internalType": "uint256",
          "name": "_newTokenId",
          "type": "uint256"
        }
      ],
      "stateMutability": "nonpayable",
      "type": "function"
    },
    {
      "inputs": [
        {
          "internalType": "uint256",
          "name": "tokenId",
          "type": "uint256"
        }
      ],
      "name": "getApproved",
      "outputs": [
        {
          "internalType": "address",
          "name": "",
          "type": "address"
        }
      ],
      "stateMutability": "view",
      "type": "function"
    },
    {
      "inputs": [
        {
          "internalType": "address",
          "name": "owner",
          "type": "address"
        },
        {
          "internalType": "address",
          "name": "operator",
          "type": "address"
        }
      ],
      "name": "isApprovedForAll",
      "outputs": [
        {
          "internalType": "bool",
          "name": "",
          "type": "bool"
        }
      ],
      "stateMutability": "view",
      "type": "function"
    },
    {
      "inputs": [],
      "name": "name",
      "outputs": [
        {
          "internalType": "string",
          "name": "",
          "type": "string"
        }
      ],
      "stateMutability": "view",
      "type": "function"
    },
    {
      "inputs": [
        {
          "internalType": "uint256",
          "name": "tokenId",
          "type": "uint256"
        }
      ],
      "name": "ownerOf",
      "outputs": [
        {
          "internalType": "address",
          "name": "",
          "type": "address"
        }
      ],
      "stateMutability": "view",
      "type": "function"
    },
    {
      "inputs": [
        {
          "internalType": "address",
          "name": "from",
          "type": "address"
        },
        {
          "internalType": "address",
          "name": "to",
          "type": "address"
        },
        {
          "internalType": "uint256",
          "name": "tokenId",
          "type": "uint256"
        }
      ],
      "name": "safeTransferFrom",
      "outputs": [],
      "stateMutability": "nonpayable",
      "type": "function"
    },
    {
      "inputs": [
        {
          "internalType": "address",
          "name": "from",
          "type": "address"
        },
        {
          "internalType": "address",
          "name": "to",
          "type": "address"
        },
        {
          "internalType": "uint256",
          "name": "tokenId",
          "type": "uint256"
        },
        {
          "internalType": "bytes",
          "name": "data",
          "type": "bytes"
        }
      ],
      "name": "safeTransferFrom",
      "outputs": [],
      "stateMutability": "nonpayable",
      "type": "function"
    },
    {
      "inputs": [
        {
          "internalType": "address",
          "name": "operator",
          "type": "address"
        },
        {
          "internalType": "bool",
          "name": "approved",
          "type": "bool"
        }
      ],
      "name": "setApprovalForAll",
      "outputs": [],
      "stateMutability": "nonpayable",
      "type": "function"
    },
    {
      "inputs": [
        {
          "internalType": "bytes4",
          "name": "interfaceId",
          "type": "bytes4"
        }
      ],
      "name": "supportsInterface",
      "outputs": [
        {
          "internalType": "bool",
          "name": "",
          "type": "bool"
        }
      ],
      "stateMutability": "view",
      "type": "function"
    },
    {
      "inputs": [],
      "name": "symbol",
      "outputs": [
        {
          "internalType": "string",
          "name": "",
          "type": "string"
        }
      ],
      "stateMutability": "view",
      "type": "function"
    },
    {
      "inputs": [
        {
          "internalType": "uint256",
          "name": "tokenId",
          "type": "uint256"
        }
      ],
      "name": "tokenURI",
      "outputs": [
        {
          "internalType": "string",
          "name": "",
          "type": "string"
        }
      ],
      "stateMutability": "view",
      "type": "function"
    },
    {
      "inputs": [
        {
          "internalType": "address",
          "name": "from",
          "type": "address"
        },
        {
          "internalType": "address",
          "name": "to",
          "type": "address"
        },
        {
          "internalType": "uint256",
          "name": "tokenId",
          "type": "uint256"
        }
      ],
      "name": "transferFrom",
      "outputs": [],
      "stateMutability": "nonpayable",
      "type": "function"
    }
  ],
  "bytecode": {
    "object": "0x60806040523480156200001157600080fd5b5060405162001816380380620018168339810160408190526200003491620000ba565b6040518060400160405280600781526020016656656e2044414f60c81b815250604051806040016040528060038152602001622b22a760e91b815250816000908162000081919062000191565b50600162000090828262000191565b5050600780546001600160a01b0319166001600160a01b039390931692909217909155506200025d565b600060208284031215620000cd57600080fd5b81516001600160a01b0381168114620000e557600080fd5b9392505050565b634e487b7160e01b600052604160045260246000fd5b600181811c908216806200011757607f821691505b6020821081036200013857634e487b7160e01b600052602260045260246000fd5b50919050565b601f8211156200018c57600081815260208120601f850160051c81016020861015620001675750805b601f850160051c820191505b81811015620001885782815560010162000173565b5050505b505050565b81516001600160401b03811115620001ad57620001ad620000ec565b620001c581620001be845462000102565b846200013e565b602080601f831160018114620001fd5760008415620001e45750858301515b600019600386901b1c1916600185901b17855562000188565b600085815260208120601f198616915b828110156200022e578886015182559484019460019091019084016200020d565b50858210156200024d5787850151600019600388901b60f8161c191681555b5050505050600190811b01905550565b6115a9806200026d6000396000f3fe608060405234801561001057600080fd5b506004361061010b5760003560e01c80636352211e116100a2578063b88d4fde11610071578063b88d4fde14610228578063b923b3701461023b578063c87b56dd14610262578063e985e9c514610275578063ece2230d146102b157600080fd5b80636352211e146101e757806370a08231146101fa57806395d89b411461020d578063a22cb4651461021557600080fd5b8063207b7ad3116100de578063207b7ad31461018d57806323b872dd146101ae57806342842e0e146101c15780634ced5a08146101d457600080fd5b806301ffc9a71461011057806306fdde0314610138578063081812fc1461014d578063095ea7b314610178575b600080fd5b61012361011e366004611114565b6102c4565b60405190151581526020015b60405180910390f35b610140610316565b60405161012f9190611181565b61016061015b366004611194565b6103a8565b6040516001600160a01b03909116815260200161012f565b61018b6101863660046111c4565b6103cf565b005b6101a061019b3660046111ee565b6104e9565b60405190815260200161012f565b61018b6101bc366004611209565b6105e2565b61018b6101cf366004611209565b610613565b600754610160906001600160a01b031681565b6101606101f5366004611194565b61062e565b6101a06102083660046111ee565b61068e565b610140610714565b61018b610223366004611253565b610723565b61018b6102363660046112a0565b610732565b6101a07f20b32f2df204267e63fd0c40995e8c033ab95558c72046f0d7f270498394dbd781565b610140610270366004611194565b61076a565b61012361028336600461137c565b6001600160a01b03918216600090815260056020908152604080832093909416825291909152205460ff1690565b61018b6102bf366004611194565b6107de565b60006001600160e01b031982166380ac58cd60e01b14806102f557506001600160e01b03198216635b5e139f60e01b145b8061031057506301ffc9a760e01b6001600160e01b03198316145b92915050565b606060008054610325906113af565b80601f0160208091040260200160405190810160405280929190818152602001828054610351906113af565b801561039e5780601f106103735761010080835404028352916020019161039e565b820191906000526020600020905b81548152906001019060200180831161038157829003601f168201915b5050505050905090565b60006103b3826108c1565b506000908152600460205260409020546001600160a01b031690565b60006103da8261062e565b9050806001600160a01b0316836001600160a01b03160361044c5760405162461bcd60e51b815260206004820152602160248201527f4552433732313a20617070726f76616c20746f2063757272656e74206f776e656044820152603960f91b60648201526084015b60405180910390fd5b336001600160a01b038216148061046857506104688133610283565b6104da5760405162461bcd60e51b815260206004820152603d60248201527f4552433732313a20617070726f76652063616c6c6572206973206e6f7420746f60448201527f6b656e206f776e6572206f7220617070726f76656420666f7220616c6c0000006064820152608401610443565b6104e48383610920565b505050565b600754604051632474521560e21b81527f20b32f2df204267e63fd0c40995e8c033ab95558c72046f0d7f270498394dbd760048201523360248201526000916001600160a01b0316906391d14854906044016020604051808303816000875af115801561055a573d6000803e3d6000fd5b505050506040513d601f19601f8201168201806040525081019061057e91906113e9565b6105c15760405162461bcd60e51b81526020600482015260146024820152731058d8d95cdcda589a5b1a5d1e4811195b9a595960621b6044820152606401610443565b506006546105cf828261098e565b6105dd600680546001019055565b919050565b6105ec3382610b19565b6106085760405162461bcd60e51b815260040161044390611406565b6104e4838383610b98565b6104e483838360405180602001604052806000815250610732565b6000818152600260205260408120546001600160a01b0316806103105760405162461bcd60e51b8152602060048201526018602482015277115490cdcc8c4e881a5b9d985b1a59081d1bdad95b88125160421b6044820152606401610443565b60006001600160a01b0382166106f85760405162461bcd60e51b815260206004820152602960248201527f4552433732313a2061646472657373207a65726f206973206e6f7420612076616044820152683634b21037bbb732b960b91b6064820152608401610443565b506001600160a01b031660009081526003602052604090205490565b606060018054610325906113af565b61072e338383610cfc565b5050565b61073c3383610b19565b6107585760405162461bcd60e51b815260040161044390611406565b61076484848484610dca565b50505050565b6060610775826108c1565b600061078c60408051602081019091526000815290565b905060008151116107ac57604051806020016040528060008152506107d7565b806107b684610dfd565b6040516020016107c7929190611453565b6040516020818303038152906040525b9392505050565b600754604051632474521560e21b81527f20b32f2df204267e63fd0c40995e8c033ab95558c72046f0d7f270498394dbd760048201523360248201526001600160a01b03909116906391d14854906044016020604051808303816000875af115801561084e573d6000803e3d6000fd5b505050506040513d601f19601f8201168201806040525081019061087291906113e9565b6108b55760405162461bcd60e51b81526020600482015260146024820152731058d8d95cdcda589a5b1a5d1e4811195b9a595960621b6044820152606401610443565b6108be81610e90565b50565b6000818152600260205260409020546001600160a01b03166108be5760405162461bcd60e51b8152602060048201526018602482015277115490cdcc8c4e881a5b9d985b1a59081d1bdad95b88125160421b6044820152606401610443565b600081815260046020526040902080546001600160a01b0319166001600160a01b03841690811790915581906109558261062e565b6001600160a01b03167f8c5be1e5ebec7d5bd14f71427d1e84f3dd0314c0f7b2291e5b200ac8c7c3b92560405160405180910390a45050565b6001600160a01b0382166109e45760405162461bcd60e51b815260206004820181905260248201527f4552433732313a206d696e7420746f20746865207a65726f20616464726573736044820152606401610443565b6000818152600260205260409020546001600160a01b031615610a495760405162461bcd60e51b815260206004820152601c60248201527f4552433732313a20746f6b656e20616c7265616479206d696e746564000000006044820152606401610443565b6000818152600260205260409020546001600160a01b031615610aae5760405162461bcd60e51b815260206004820152601c60248201527f4552433732313a20746f6b656e20616c7265616479206d696e746564000000006044820152606401610443565b6001600160a01b038216600081815260036020908152604080832080546001019055848352600290915280822080546001600160a01b0319168417905551839291907fddf252ad1be2c89b69c2b068fc378daa952ba7f163c4a11628f55a4df523b3ef908290a45050565b600080610b258361062e565b9050806001600160a01b0316846001600160a01b03161480610b6c57506001600160a01b0380821660009081526005602090815260408083209388168352929052205460ff165b80610b905750836001600160a01b0316610b85846103a8565b6001600160a01b0316145b949350505050565b826001600160a01b0316610bab8261062e565b6001600160a01b031614610bd15760405162461bcd60e51b815260040161044390611482565b6001600160a01b038216610c335760405162461bcd60e51b8152602060048201526024808201527f4552433732313a207472616e7366657220746f20746865207a65726f206164646044820152637265737360e01b6064820152608401610443565b826001600160a01b0316610c468261062e565b6001600160a01b031614610c6c5760405162461bcd60e51b815260040161044390611482565b600081815260046020908152604080832080546001600160a01b03199081169091556001600160a01b0387811680865260038552838620805460001901905590871680865283862080546001019055868652600290945282852080549092168417909155905184937fddf252ad1be2c89b69c2b068fc378daa952ba7f163c4a11628f55a4df523b3ef91a4505050565b816001600160a01b0316836001600160a01b031603610d5d5760405162461bcd60e51b815260206004820152601960248201527f4552433732313a20617070726f766520746f2063616c6c6572000000000000006044820152606401610443565b6001600160a01b03838116600081815260056020908152604080832094871680845294825291829020805460ff191686151590811790915591519182527f17307eab39ab6107e8899845ad3d59bd9653f200f220920489ca2b5937696c31910160405180910390a3505050565b610dd5848484610b98565b610de184848484610f25565b6107645760405162461bcd60e51b8152600401610443906114c7565b60606000610e0a83611026565b600101905060008167ffffffffffffffff811115610e2a57610e2a61128a565b6040519080825280601f01601f191660200182016040528015610e54576020820181803683370190505b5090508181016020015b600019016f181899199a1a9b1b9c1cb0b131b232b360811b600a86061a8153600a8504945084610e5e57509392505050565b6000610e9b8261062e565b9050610ea68261062e565b600083815260046020908152604080832080546001600160a01b03199081169091556001600160a01b0385168085526003845282852080546000190190558785526002909352818420805490911690555192935084927fddf252ad1be2c89b69c2b068fc378daa952ba7f163c4a11628f55a4df523b3ef908390a45050565b60006001600160a01b0384163b1561101b57604051630a85bd0160e11b81526001600160a01b0385169063150b7a0290610f69903390899088908890600401611519565b6020604051808303816000875af1925050508015610fa4575060408051601f3d908101601f19168201909252610fa191810190611556565b60015b611001573d808015610fd2576040519150601f19603f3d011682016040523d82523d6000602084013e610fd7565b606091505b508051600003610ff95760405162461bcd60e51b8152600401610443906114c7565b805181602001fd5b6001600160e01b031916630a85bd0160e11b149050610b90565b506001949350505050565b60008072184f03e93ff9f4daa797ed6e38ed64bf6a1f0160401b83106110655772184f03e93ff9f4daa797ed6e38ed64bf6a1f0160401b830492506040015b6d04ee2d6d415b85acef81000000008310611091576d04ee2d6d415b85acef8100000000830492506020015b662386f26fc1000083106110af57662386f26fc10000830492506010015b6305f5e10083106110c7576305f5e100830492506008015b61271083106110db57612710830492506004015b606483106110ed576064830492506002015b600a83106103105760010192915050565b6001600160e01b0319811681146108be57600080fd5b60006020828403121561112657600080fd5b81356107d7816110fe565b60005b8381101561114c578181015183820152602001611134565b50506000910152565b6000815180845261116d816020860160208601611131565b601f01601f19169290920160200192915050565b6020815260006107d76020830184611155565b6000602082840312156111a657600080fd5b5035919050565b80356001600160a01b03811681146105dd57600080fd5b600080604083850312156111d757600080fd5b6111e0836111ad565b946020939093013593505050565b60006020828403121561120057600080fd5b6107d7826111ad565b60008060006060848603121561121e57600080fd5b611227846111ad565b9250611235602085016111ad565b9150604084013590509250925092565b80151581146108be57600080fd5b6000806040838503121561126657600080fd5b61126f836111ad565b9150602083013561127f81611245565b809150509250929050565b634e487b7160e01b600052604160045260246000fd5b600080600080608085870312156112b657600080fd5b6112bf856111ad565b93506112cd602086016111ad565b925060408501359150606085013567ffffffffffffffff808211156112f157600080fd5b818701915087601f83011261130557600080fd5b8135818111156113175761131761128a565b604051601f8201601f19908116603f0116810190838211818310171561133f5761133f61128a565b816040528281528a602084870101111561135857600080fd5b82602086016020830137600060208483010152809550505050505092959194509250565b6000806040838503121561138f57600080fd5b611398836111ad565b91506113a6602084016111ad565b90509250929050565b600181811c908216806113c357607f821691505b6020821081036113e357634e487b7160e01b600052602260045260246000fd5b50919050565b6000602082840312156113fb57600080fd5b81516107d781611245565b6020808252602d908201527f4552433732313a2063616c6c6572206973206e6f7420746f6b656e206f776e6560408201526c1c881bdc88185c1c1c9bdd9959609a1b606082015260800190565b60008351611465818460208801611131565b835190830190611479818360208801611131565b01949350505050565b60208082526025908201527f4552433732313a207472616e736665722066726f6d20696e636f72726563742060408201526437bbb732b960d91b606082015260800190565b60208082526032908201527f4552433732313a207472616e7366657220746f206e6f6e20455243373231526560408201527131b2b4bb32b91034b6b83632b6b2b73a32b960711b606082015260800190565b6001600160a01b038581168252841660208201526040810183905260806060820181905260009061154c90830184611155565b9695505050505050565b60006020828403121561156857600080fd5b81516107d7816110fe56fea2646970667358221220a88939f0143649b2c4148c795fc995cb69079aa8f33a6072305a34c93c2dae3964736f6c63430008120033",
    "linkReferences": {}
  },
  "methodIdentifiers": {
    "CALLEE()": "b923b370",
    "VenAccessControl()": "4ced5a08",
    "approve(address,uint256)": "095ea7b3",
    "balanceOf(address)": "70a08231",
    "burnPassTicket(uint256)": "ece2230d",
    "daoPassTicket(address)": "207b7ad3",
    "getApproved(uint256)": "081812fc",
    "isApprovedForAll(address,address)": "e985e9c5",
    "name()": "06fdde03",
    "ownerOf(uint256)": "6352211e",
    "safeTransferFrom(address,address,uint256)": "42842e0e",
    "safeTransferFrom(address,address,uint256,bytes)": "b88d4fde",
    "setApprovalForAll(address,bool)": "a22cb465",
    "supportsInterface(bytes4)": "01ffc9a7",
    "symbol()": "95d89b41",
    "tokenURI(uint256)": "c87b56dd",
    "transferFrom(address,address,uint256)": "23b872dd"
  },
  "id": 5
}