{
  "abi": [
    {
      "inputs": [
        {
          "internalType": "address",
          "name": "_caller",
          "type": "address"
        }
      ],
      "stateMutability": "nonpayable",
      "type": "constructor"
    },
    {
      "anonymous": false,
      "inputs": [
        {
          "indexed": true,
          "internalType": "address",
          "name": "owner",
          "type": "address"
        },
        {
          "indexed": true,
          "internalType": "address",
          "name": "approved",
          "type": "address"
        },
        {
          "indexed": true,
          "internalType": "uint256",
          "name": "tokenId",
          "type": "uint256"
        }
      ],
      "name": "Approval",
      "type": "event"
    },
    {
      "anonymous": false,
      "inputs": [
        {
          "indexed": true,
          "internalType": "address",
          "name": "owner",
          "type": "address"
        },
        {
          "indexed": true,
          "internalType": "address",
          "name": "operator",
          "type": "address"
        },
        {
          "indexed": false,
          "internalType": "bool",
          "name": "approved",
          "type": "bool"
        }
      ],
      "name": "ApprovalForAll",
      "type": "event"
    },
    {
      "anonymous": false,
      "inputs": [
        {
          "indexed": true,
          "internalType": "address",
          "name": "previousOwner",
          "type": "address"
        },
        {
          "indexed": true,
          "internalType": "address",
          "name": "newOwner",
          "type": "address"
        }
      ],
      "name": "OwnershipTransferred",
      "type": "event"
    },
    {
      "anonymous": false,
      "inputs": [
        {
          "indexed": true,
          "internalType": "address",
          "name": "from",
          "type": "address"
        },
        {
          "indexed": true,
          "internalType": "address",
          "name": "to",
          "type": "address"
        },
        {
          "indexed": true,
          "internalType": "uint256",
          "name": "tokenId",
          "type": "uint256"
        }
      ],
      "name": "Transfer",
      "type": "event"
    },
    {
      "anonymous": false,
      "inputs": [
        {
          "indexed": false,
          "internalType": "address",
          "name": "",
          "type": "address"
        },
        {
          "indexed": false,
          "internalType": "address",
          "name": "",
          "type": "address"
        }
      ],
      "name": "newCaller",
      "type": "event"
    },
    {
      "inputs": [
        {
          "internalType": "address",
          "name": "to",
          "type": "address"
        },
        {
          "internalType": "uint256",
          "name": "tokenId",
          "type": "uint256"
        }
      ],
      "name": "approve",
      "outputs": [],
      "stateMutability": "nonpayable",
      "type": "function"
    },
    {
      "inputs": [
        {
          "internalType": "address",
          "name": "owner",
          "type": "address"
        }
      ],
      "name": "balanceOf",
      "outputs": [
        {
          "internalType": "uint256",
          "name": "",
          "type": "uint256"
        }
      ],
      "stateMutability": "view",
      "type": "function"
    },
    {
      "inputs": [
        {
          "internalType": "uint256",
          "name": "_tokenId",
          "type": "uint256"
        }
      ],
      "name": "burnPassTicket",
      "outputs": [],
      "stateMutability": "nonpayable",
      "type": "function"
    },
    {
      "inputs": [
        {
          "internalType": "address",
          "name": "_caller",
          "type": "address"
        }
      ],
      "name": "changeCaller",
      "outputs": [],
      "stateMutability": "nonpayable",
      "type": "function"
    },
    {
      "inputs": [
        {
          "internalType": "address",
          "name": "_investor",
          "type": "address"
        }
      ],
      "name": "daoPassTicket",
      "outputs": [
        {
          "internalType": "uint256",
          "name": "_newTokenId",
          "type": "uint256"
        }
      ],
      "stateMutability": "nonpayable",
      "type": "function"
    },
    {
      "inputs": [
        {
          "internalType": "uint256",
          "name": "tokenId",
          "type": "uint256"
        }
      ],
      "name": "getApproved",
      "outputs": [
        {
          "internalType": "address",
          "name": "",
          "type": "address"
        }
      ],
      "stateMutability": "view",
      "type": "function"
    },
    {
      "inputs": [
        {
          "internalType": "address",
          "name": "owner",
          "type": "address"
        },
        {
          "internalType": "address",
          "name": "operator",
          "type": "address"
        }
      ],
      "name": "isApprovedForAll",
      "outputs": [
        {
          "internalType": "bool",
          "name": "",
          "type": "bool"
        }
      ],
      "stateMutability": "view",
      "type": "function"
    },
    {
      "inputs": [],
      "name": "name",
      "outputs": [
        {
          "internalType": "string",
          "name": "",
          "type": "string"
        }
      ],
      "stateMutability": "view",
      "type": "function"
    },
    {
      "inputs": [],
      "name": "owner",
      "outputs": [
        {
          "internalType": "address",
          "name": "",
          "type": "address"
        }
      ],
      "stateMutability": "view",
      "type": "function"
    },
    {
      "inputs": [
        {
          "internalType": "uint256",
          "name": "tokenId",
          "type": "uint256"
        }
      ],
      "name": "ownerOf",
      "outputs": [
        {
          "internalType": "address",
          "name": "",
          "type": "address"
        }
      ],
      "stateMutability": "view",
      "type": "function"
    },
    {
      "inputs": [],
      "name": "renounceOwnership",
      "outputs": [],
      "stateMutability": "nonpayable",
      "type": "function"
    },
    {
      "inputs": [
        {
          "internalType": "address",
          "name": "from",
          "type": "address"
        },
        {
          "internalType": "address",
          "name": "to",
          "type": "address"
        },
        {
          "internalType": "uint256",
          "name": "tokenId",
          "type": "uint256"
        }
      ],
      "name": "safeTransferFrom",
      "outputs": [],
      "stateMutability": "nonpayable",
      "type": "function"
    },
    {
      "inputs": [
        {
          "internalType": "address",
          "name": "from",
          "type": "address"
        },
        {
          "internalType": "address",
          "name": "to",
          "type": "address"
        },
        {
          "internalType": "uint256",
          "name": "tokenId",
          "type": "uint256"
        },
        {
          "internalType": "bytes",
          "name": "data",
          "type": "bytes"
        }
      ],
      "name": "safeTransferFrom",
      "outputs": [],
      "stateMutability": "nonpayable",
      "type": "function"
    },
    {
      "inputs": [
        {
          "internalType": "address",
          "name": "operator",
          "type": "address"
        },
        {
          "internalType": "bool",
          "name": "approved",
          "type": "bool"
        }
      ],
      "name": "setApprovalForAll",
      "outputs": [],
      "stateMutability": "nonpayable",
      "type": "function"
    },
    {
      "inputs": [
        {
          "internalType": "bytes4",
          "name": "interfaceId",
          "type": "bytes4"
        }
      ],
      "name": "supportsInterface",
      "outputs": [
        {
          "internalType": "bool",
          "name": "",
          "type": "bool"
        }
      ],
      "stateMutability": "view",
      "type": "function"
    },
    {
      "inputs": [],
      "name": "symbol",
      "outputs": [
        {
          "internalType": "string",
          "name": "",
          "type": "string"
        }
      ],
      "stateMutability": "view",
      "type": "function"
    },
    {
      "inputs": [
        {
          "internalType": "uint256",
          "name": "tokenId",
          "type": "uint256"
        }
      ],
      "name": "tokenURI",
      "outputs": [
        {
          "internalType": "string",
          "name": "",
          "type": "string"
        }
      ],
      "stateMutability": "view",
      "type": "function"
    },
    {
      "inputs": [
        {
          "internalType": "address",
          "name": "from",
          "type": "address"
        },
        {
          "internalType": "address",
          "name": "to",
          "type": "address"
        },
        {
          "internalType": "uint256",
          "name": "tokenId",
          "type": "uint256"
        }
      ],
      "name": "transferFrom",
      "outputs": [],
      "stateMutability": "nonpayable",
      "type": "function"
    },
    {
      "inputs": [
        {
          "internalType": "address",
          "name": "newOwner",
          "type": "address"
        }
      ],
      "name": "transferOwnership",
      "outputs": [],
      "stateMutability": "nonpayable",
      "type": "function"
    }
  ],
  "bytecode": {
    "object": "0x60806040523480156200001157600080fd5b506040516200190f3803806200190f833981016040819052620000349162000129565b6040518060400160405280600781526020016656656e2044414f60c81b815250604051806040016040528060038152602001622b32b760e91b815250816000908162000081919062000200565b50600162000090828262000200565b505050620000ad620000a7620000d360201b60201c565b620000d7565b600880546001600160a01b0319166001600160a01b0392909216919091179055620002cc565b3390565b600680546001600160a01b038381166001600160a01b0319831681179093556040519116919082907f8be0079c531659141344cd1fd0a4f28419497f9722a3daafe3b4186f6b6457e090600090a35050565b6000602082840312156200013c57600080fd5b81516001600160a01b03811681146200015457600080fd5b9392505050565b634e487b7160e01b600052604160045260246000fd5b600181811c908216806200018657607f821691505b602082108103620001a757634e487b7160e01b600052602260045260246000fd5b50919050565b601f821115620001fb57600081815260208120601f850160051c81016020861015620001d65750805b601f850160051c820191505b81811015620001f757828155600101620001e2565b5050505b505050565b81516001600160401b038111156200021c576200021c6200015b565b62000234816200022d845462000171565b84620001ad565b602080601f8311600181146200026c5760008415620002535750858301515b600019600386901b1c1916600185901b178555620001f7565b600085815260208120601f198616915b828110156200029d578886015182559484019460019091019084016200027c565b5085821015620002bc5787850151600019600388901b60f8161c191681555b5050505050600190811b01905550565b61163380620002dc6000396000f3fe608060405234801561001057600080fd5b50600436106101215760003560e01c806370a08231116100ad578063b88d4fde11610071578063b88d4fde14610257578063c87b56dd1461026a578063e985e9c51461027d578063ece2230d146102b9578063f2fde38b146102cc57600080fd5b806370a0823114610210578063715018a6146102235780638da5cb5b1461022b57806395d89b411461023c578063a22cb4651461024457600080fd5b8063207b7ad3116100f4578063207b7ad3146101a357806323b872dd146101c45780632921d8d4146101d757806342842e0e146101ea5780636352211e146101fd57600080fd5b806301ffc9a71461012657806306fdde031461014e578063081812fc14610163578063095ea7b31461018e575b600080fd5b6101396101343660046111c4565b6102df565b60405190151581526020015b60405180910390f35b610156610331565b6040516101459190611231565b610176610171366004611244565b6103c3565b6040516001600160a01b039091168152602001610145565b6101a161019c366004611274565b6103ea565b005b6101b66101b136600461129e565b610504565b604051908152602001610145565b6101a16101d23660046112b9565b610579565b6101a16101e536600461129e565b6105aa565b6101a16101f83660046112b9565b610613565b61017661020b366004611244565b61062e565b6101b661021e36600461129e565b61068e565b6101a1610714565b6006546001600160a01b0316610176565b610156610728565b6101a16102523660046112f5565b610737565b6101a1610265366004611347565b610746565b610156610278366004611244565b61077e565b61013961028b366004611423565b6001600160a01b03918216600090815260056020908152604080832093909416825291909152205460ff1690565b6101a16102c7366004611244565b6107f2565b6101a16102da36600461129e565b61084f565b60006001600160e01b031982166380ac58cd60e01b148061031057506001600160e01b03198216635b5e139f60e01b145b8061032b57506301ffc9a760e01b6001600160e01b03198316145b92915050565b60606000805461034090611456565b80601f016020809104026020016040519081016040528092919081815260200182805461036c90611456565b80156103b95780601f1061038e576101008083540402835291602001916103b9565b820191906000526020600020905b81548152906001019060200180831161039c57829003601f168201915b5050505050905090565b60006103ce826108c5565b506000908152600460205260409020546001600160a01b031690565b60006103f58261062e565b9050806001600160a01b0316836001600160a01b0316036104675760405162461bcd60e51b815260206004820152602160248201527f4552433732313a20617070726f76616c20746f2063757272656e74206f776e656044820152603960f91b60648201526084015b60405180910390fd5b336001600160a01b03821614806104835750610483813361028b565b6104f55760405162461bcd60e51b815260206004820152603d60248201527f4552433732313a20617070726f76652063616c6c6572206973206e6f7420746f60448201527f6b656e206f776e6572206f7220617070726f76656420666f7220616c6c000000606482015260840161045e565b6104ff8383610924565b505050565b6008546000906001600160a01b031633146105585760405162461bcd60e51b81526020600482015260146024820152731058d8d95cdcda589a5b1a5d1e4811195b9a595960621b604482015260640161045e565b506007546105668282610992565b610574600780546001019055565b919050565b6105833382610b1d565b61059f5760405162461bcd60e51b815260040161045e90611490565b6104ff838383610b9c565b6105b2610d00565b600880546001600160a01b038381166001600160a01b031983168117909355604080519190921680825260208201939093527fde2be9795b1eaa6d18d69ccec06258b7f0c3312e8ef7b352f93ae3d81534ca31910160405180910390a15050565b6104ff83838360405180602001604052806000815250610746565b6000818152600260205260408120546001600160a01b03168061032b5760405162461bcd60e51b8152602060048201526018602482015277115490cdcc8c4e881a5b9d985b1a59081d1bdad95b88125160421b604482015260640161045e565b60006001600160a01b0382166106f85760405162461bcd60e51b815260206004820152602960248201527f4552433732313a2061646472657373207a65726f206973206e6f7420612076616044820152683634b21037bbb732b960b91b606482015260840161045e565b506001600160a01b031660009081526003602052604090205490565b61071c610d00565b6107266000610d5a565b565b60606001805461034090611456565b610742338383610dac565b5050565b6107503383610b1d565b61076c5760405162461bcd60e51b815260040161045e90611490565b61077884848484610e7a565b50505050565b6060610789826108c5565b60006107a060408051602081019091526000815290565b905060008151116107c057604051806020016040528060008152506107eb565b806107ca84610ead565b6040516020016107db9291906114dd565b6040516020818303038152906040525b9392505050565b6008546001600160a01b031633146108435760405162461bcd60e51b81526020600482015260146024820152731058d8d95cdcda589a5b1a5d1e4811195b9a595960621b604482015260640161045e565b61084c81610f40565b50565b610857610d00565b6001600160a01b0381166108bc5760405162461bcd60e51b815260206004820152602660248201527f4f776e61626c653a206e6577206f776e657220697320746865207a65726f206160448201526564647265737360d01b606482015260840161045e565b61084c81610d5a565b6000818152600260205260409020546001600160a01b031661084c5760405162461bcd60e51b8152602060048201526018602482015277115490cdcc8c4e881a5b9d985b1a59081d1bdad95b88125160421b604482015260640161045e565b600081815260046020526040902080546001600160a01b0319166001600160a01b03841690811790915581906109598261062e565b6001600160a01b03167f8c5be1e5ebec7d5bd14f71427d1e84f3dd0314c0f7b2291e5b200ac8c7c3b92560405160405180910390a45050565b6001600160a01b0382166109e85760405162461bcd60e51b815260206004820181905260248201527f4552433732313a206d696e7420746f20746865207a65726f2061646472657373604482015260640161045e565b6000818152600260205260409020546001600160a01b031615610a4d5760405162461bcd60e51b815260206004820152601c60248201527f4552433732313a20746f6b656e20616c7265616479206d696e74656400000000604482015260640161045e565b6000818152600260205260409020546001600160a01b031615610ab25760405162461bcd60e51b815260206004820152601c60248201527f4552433732313a20746f6b656e20616c7265616479206d696e74656400000000604482015260640161045e565b6001600160a01b038216600081815260036020908152604080832080546001019055848352600290915280822080546001600160a01b0319168417905551839291907fddf252ad1be2c89b69c2b068fc378daa952ba7f163c4a11628f55a4df523b3ef908290a45050565b600080610b298361062e565b9050806001600160a01b0316846001600160a01b03161480610b7057506001600160a01b0380821660009081526005602090815260408083209388168352929052205460ff165b80610b945750836001600160a01b0316610b89846103c3565b6001600160a01b0316145b949350505050565b826001600160a01b0316610baf8261062e565b6001600160a01b031614610bd55760405162461bcd60e51b815260040161045e9061150c565b6001600160a01b038216610c375760405162461bcd60e51b8152602060048201526024808201527f4552433732313a207472616e7366657220746f20746865207a65726f206164646044820152637265737360e01b606482015260840161045e565b826001600160a01b0316610c4a8261062e565b6001600160a01b031614610c705760405162461bcd60e51b815260040161045e9061150c565b600081815260046020908152604080832080546001600160a01b03199081169091556001600160a01b0387811680865260038552838620805460001901905590871680865283862080546001019055868652600290945282852080549092168417909155905184937fddf252ad1be2c89b69c2b068fc378daa952ba7f163c4a11628f55a4df523b3ef91a4505050565b6006546001600160a01b031633146107265760405162461bcd60e51b815260206004820181905260248201527f4f776e61626c653a2063616c6c6572206973206e6f7420746865206f776e6572604482015260640161045e565b600680546001600160a01b038381166001600160a01b0319831681179093556040519116919082907f8be0079c531659141344cd1fd0a4f28419497f9722a3daafe3b4186f6b6457e090600090a35050565b816001600160a01b0316836001600160a01b031603610e0d5760405162461bcd60e51b815260206004820152601960248201527f4552433732313a20617070726f766520746f2063616c6c657200000000000000604482015260640161045e565b6001600160a01b03838116600081815260056020908152604080832094871680845294825291829020805460ff191686151590811790915591519182527f17307eab39ab6107e8899845ad3d59bd9653f200f220920489ca2b5937696c31910160405180910390a3505050565b610e85848484610b9c565b610e9184848484610fd5565b6107785760405162461bcd60e51b815260040161045e90611551565b60606000610eba836110d6565b600101905060008167ffffffffffffffff811115610eda57610eda611331565b6040519080825280601f01601f191660200182016040528015610f04576020820181803683370190505b5090508181016020015b600019016f181899199a1a9b1b9c1cb0b131b232b360811b600a86061a8153600a8504945084610f0e57509392505050565b6000610f4b8261062e565b9050610f568261062e565b600083815260046020908152604080832080546001600160a01b03199081169091556001600160a01b0385168085526003845282852080546000190190558785526002909352818420805490911690555192935084927fddf252ad1be2c89b69c2b068fc378daa952ba7f163c4a11628f55a4df523b3ef908390a45050565b60006001600160a01b0384163b156110cb57604051630a85bd0160e11b81526001600160a01b0385169063150b7a02906110199033908990889088906004016115a3565b6020604051808303816000875af1925050508015611054575060408051601f3d908101601f19168201909252611051918101906115e0565b60015b6110b1573d808015611082576040519150601f19603f3d011682016040523d82523d6000602084013e611087565b606091505b5080516000036110a95760405162461bcd60e51b815260040161045e90611551565b805181602001fd5b6001600160e01b031916630a85bd0160e11b149050610b94565b506001949350505050565b60008072184f03e93ff9f4daa797ed6e38ed64bf6a1f0160401b83106111155772184f03e93ff9f4daa797ed6e38ed64bf6a1f0160401b830492506040015b6d04ee2d6d415b85acef81000000008310611141576d04ee2d6d415b85acef8100000000830492506020015b662386f26fc10000831061115f57662386f26fc10000830492506010015b6305f5e1008310611177576305f5e100830492506008015b612710831061118b57612710830492506004015b6064831061119d576064830492506002015b600a831061032b5760010192915050565b6001600160e01b03198116811461084c57600080fd5b6000602082840312156111d657600080fd5b81356107eb816111ae565b60005b838110156111fc5781810151838201526020016111e4565b50506000910152565b6000815180845261121d8160208601602086016111e1565b601f01601f19169290920160200192915050565b6020815260006107eb6020830184611205565b60006020828403121561125657600080fd5b5035919050565b80356001600160a01b038116811461057457600080fd5b6000806040838503121561128757600080fd5b6112908361125d565b946020939093013593505050565b6000602082840312156112b057600080fd5b6107eb8261125d565b6000806000606084860312156112ce57600080fd5b6112d78461125d565b92506112e56020850161125d565b9150604084013590509250925092565b6000806040838503121561130857600080fd5b6113118361125d565b91506020830135801515811461132657600080fd5b809150509250929050565b634e487b7160e01b600052604160045260246000fd5b6000806000806080858703121561135d57600080fd5b6113668561125d565b93506113746020860161125d565b925060408501359150606085013567ffffffffffffffff8082111561139857600080fd5b818701915087601f8301126113ac57600080fd5b8135818111156113be576113be611331565b604051601f8201601f19908116603f011681019083821181831017156113e6576113e6611331565b816040528281528a60208487010111156113ff57600080fd5b82602086016020830137600060208483010152809550505050505092959194509250565b6000806040838503121561143657600080fd5b61143f8361125d565b915061144d6020840161125d565b90509250929050565b600181811c9082168061146a57607f821691505b60208210810361148a57634e487b7160e01b600052602260045260246000fd5b50919050565b6020808252602d908201527f4552433732313a2063616c6c6572206973206e6f7420746f6b656e206f776e6560408201526c1c881bdc88185c1c1c9bdd9959609a1b606082015260800190565b600083516114ef8184602088016111e1565b8351908301906115038183602088016111e1565b01949350505050565b60208082526025908201527f4552433732313a207472616e736665722066726f6d20696e636f72726563742060408201526437bbb732b960d91b606082015260800190565b60208082526032908201527f4552433732313a207472616e7366657220746f206e6f6e20455243373231526560408201527131b2b4bb32b91034b6b83632b6b2b73a32b960711b606082015260800190565b6001600160a01b03858116825284166020820152604081018390526080606082018190526000906115d690830184611205565b9695505050505050565b6000602082840312156115f257600080fd5b81516107eb816111ae56fea2646970667358221220f0d6c8b0cd29ce82b9017fb68fe99489274faa2a7ea5d619525716a6581c9e2864736f6c63430008140033",
    "linkReferences": {}
  },
  "methodIdentifiers": {
    "approve(address,uint256)": "095ea7b3",
    "balanceOf(address)": "70a08231",
    "burnPassTicket(uint256)": "ece2230d",
    "changeCaller(address)": "2921d8d4",
    "daoPassTicket(address)": "207b7ad3",
    "getApproved(uint256)": "081812fc",
    "isApprovedForAll(address,address)": "e985e9c5",
    "name()": "06fdde03",
    "owner()": "8da5cb5b",
    "ownerOf(uint256)": "6352211e",
    "renounceOwnership()": "715018a6",
    "safeTransferFrom(address,address,uint256)": "42842e0e",
    "safeTransferFrom(address,address,uint256,bytes)": "b88d4fde",
    "setApprovalForAll(address,bool)": "a22cb465",
    "supportsInterface(bytes4)": "01ffc9a7",
    "symbol()": "95d89b41",
    "tokenURI(uint256)": "c87b56dd",
    "transferFrom(address,address,uint256)": "23b872dd",
    "transferOwnership(address)": "f2fde38b"
  },
  "id": 5
}