{
  "abi": [
    {
      "inputs": [
        {
          "internalType": "address",
          "name": "caller",
          "type": "address"
        },
        {
          "internalType": "address",
          "name": "_admin",
          "type": "address"
        }
      ],
      "stateMutability": "nonpayable",
      "type": "constructor"
    },
    {
      "anonymous": false,
      "inputs": [],
      "name": "DefaultAdminDelayChangeCanceled",
      "type": "event"
    },
    {
      "anonymous": false,
      "inputs": [
        {
          "indexed": false,
          "internalType": "uint48",
          "name": "newDelay",
          "type": "uint48"
        },
        {
          "indexed": false,
          "internalType": "uint48",
          "name": "effectSchedule",
          "type": "uint48"
        }
      ],
      "name": "DefaultAdminDelayChangeScheduled",
      "type": "event"
    },
    {
      "anonymous": false,
      "inputs": [],
      "name": "DefaultAdminTransferCanceled",
      "type": "event"
    },
    {
      "anonymous": false,
      "inputs": [
        {
          "indexed": true,
          "internalType": "address",
          "name": "newAdmin",
          "type": "address"
        },
        {
          "indexed": false,
          "internalType": "uint48",
          "name": "acceptSchedule",
          "type": "uint48"
        }
      ],
      "name": "DefaultAdminTransferScheduled",
      "type": "event"
    },
    {
      "anonymous": false,
      "inputs": [
        {
          "indexed": true,
          "internalType": "bytes32",
          "name": "role",
          "type": "bytes32"
        },
        {
          "indexed": true,
          "internalType": "bytes32",
          "name": "previousAdminRole",
          "type": "bytes32"
        },
        {
          "indexed": true,
          "internalType": "bytes32",
          "name": "newAdminRole",
          "type": "bytes32"
        }
      ],
      "name": "RoleAdminChanged",
      "type": "event"
    },
    {
      "anonymous": false,
      "inputs": [
        {
          "indexed": true,
          "internalType": "bytes32",
          "name": "role",
          "type": "bytes32"
        },
        {
          "indexed": true,
          "internalType": "address",
          "name": "account",
          "type": "address"
        },
        {
          "indexed": true,
          "internalType": "address",
          "name": "sender",
          "type": "address"
        }
      ],
      "name": "RoleGranted",
      "type": "event"
    },
    {
      "anonymous": false,
      "inputs": [
        {
          "indexed": true,
          "internalType": "bytes32",
          "name": "role",
          "type": "bytes32"
        },
        {
          "indexed": true,
          "internalType": "address",
          "name": "account",
          "type": "address"
        },
        {
          "indexed": true,
          "internalType": "address",
          "name": "sender",
          "type": "address"
        }
      ],
      "name": "RoleRevoked",
      "type": "event"
    },
    {
      "inputs": [],
      "name": "CALLEE",
      "outputs": [
        {
          "internalType": "bytes32",
          "name": "",
          "type": "bytes32"
        }
      ],
      "stateMutability": "view",
      "type": "function"
    },
    {
      "inputs": [],
      "name": "DEFAULT_ADMIN_ROLE",
      "outputs": [
        {
          "internalType": "bytes32",
          "name": "",
          "type": "bytes32"
        }
      ],
      "stateMutability": "view",
      "type": "function"
    },
    {
      "inputs": [],
      "name": "INVESTOR",
      "outputs": [
        {
          "internalType": "bytes32",
          "name": "",
          "type": "bytes32"
        }
      ],
      "stateMutability": "view",
      "type": "function"
    },
    {
      "inputs": [],
      "name": "NOMINATED_ADMINS",
      "outputs": [
        {
          "internalType": "bytes32",
          "name": "",
          "type": "bytes32"
        }
      ],
      "stateMutability": "view",
      "type": "function"
    },
    {
      "inputs": [],
      "name": "acceptDefaultAdminTransfer",
      "outputs": [],
      "stateMutability": "nonpayable",
      "type": "function"
    },
    {
      "inputs": [
        {
          "internalType": "address",
          "name": "newAdmin",
          "type": "address"
        }
      ],
      "name": "beginDefaultAdminTransfer",
      "outputs": [],
      "stateMutability": "nonpayable",
      "type": "function"
    },
    {
      "inputs": [],
      "name": "cancelDefaultAdminTransfer",
      "outputs": [],
      "stateMutability": "nonpayable",
      "type": "function"
    },
    {
      "inputs": [
        {
          "internalType": "uint48",
          "name": "newDelay",
          "type": "uint48"
        }
      ],
      "name": "changeDefaultAdminDelay",
      "outputs": [],
      "stateMutability": "nonpayable",
      "type": "function"
    },
    {
      "inputs": [],
      "name": "defaultAdmin",
      "outputs": [
        {
          "internalType": "address",
          "name": "",
          "type": "address"
        }
      ],
      "stateMutability": "view",
      "type": "function"
    },
    {
      "inputs": [],
      "name": "defaultAdminDelay",
      "outputs": [
        {
          "internalType": "uint48",
          "name": "",
          "type": "uint48"
        }
      ],
      "stateMutability": "view",
      "type": "function"
    },
    {
      "inputs": [],
      "name": "defaultAdminDelayIncreaseWait",
      "outputs": [
        {
          "internalType": "uint48",
          "name": "",
          "type": "uint48"
        }
      ],
      "stateMutability": "view",
      "type": "function"
    },
    {
      "inputs": [
        {
          "internalType": "bytes32",
          "name": "role",
          "type": "bytes32"
        }
      ],
      "name": "getRoleAdmin",
      "outputs": [
        {
          "internalType": "bytes32",
          "name": "",
          "type": "bytes32"
        }
      ],
      "stateMutability": "view",
      "type": "function"
    },
    {
      "inputs": [
        {
          "internalType": "bytes32",
          "name": "role",
          "type": "bytes32"
        },
        {
          "internalType": "address",
          "name": "account",
          "type": "address"
        }
      ],
      "name": "grantRole",
      "outputs": [],
      "stateMutability": "nonpayable",
      "type": "function"
    },
    {
      "inputs": [
        {
          "internalType": "bytes32",
          "name": "role",
          "type": "bytes32"
        },
        {
          "internalType": "address",
          "name": "account",
          "type": "address"
        }
      ],
      "name": "hasRole",
      "outputs": [
        {
          "internalType": "bool",
          "name": "",
          "type": "bool"
        }
      ],
      "stateMutability": "view",
      "type": "function"
    },
    {
      "inputs": [],
      "name": "owner",
      "outputs": [
        {
          "internalType": "address",
          "name": "",
          "type": "address"
        }
      ],
      "stateMutability": "view",
      "type": "function"
    },
    {
      "inputs": [],
      "name": "pendingDefaultAdmin",
      "outputs": [
        {
          "internalType": "address",
          "name": "newAdmin",
          "type": "address"
        },
        {
          "internalType": "uint48",
          "name": "schedule",
          "type": "uint48"
        }
      ],
      "stateMutability": "view",
      "type": "function"
    },
    {
      "inputs": [],
      "name": "pendingDefaultAdminDelay",
      "outputs": [
        {
          "internalType": "uint48",
          "name": "newDelay",
          "type": "uint48"
        },
        {
          "internalType": "uint48",
          "name": "schedule",
          "type": "uint48"
        }
      ],
      "stateMutability": "view",
      "type": "function"
    },
    {
      "inputs": [
        {
          "internalType": "bytes32",
          "name": "role",
          "type": "bytes32"
        },
        {
          "internalType": "address",
          "name": "account",
          "type": "address"
        }
      ],
      "name": "renounceRole",
      "outputs": [],
      "stateMutability": "nonpayable",
      "type": "function"
    },
    {
      "inputs": [
        {
          "internalType": "bytes32",
          "name": "role",
          "type": "bytes32"
        },
        {
          "internalType": "address",
          "name": "account",
          "type": "address"
        }
      ],
      "name": "revokeRole",
      "outputs": [],
      "stateMutability": "nonpayable",
      "type": "function"
    },
    {
      "inputs": [],
      "name": "rollbackDefaultAdminDelay",
      "outputs": [],
      "stateMutability": "nonpayable",
      "type": "function"
    },
    {
      "inputs": [
        {
          "internalType": "bytes4",
          "name": "interfaceId",
          "type": "bytes4"
        }
      ],
      "name": "supportsInterface",
      "outputs": [
        {
          "internalType": "bool",
          "name": "",
          "type": "bool"
        }
      ],
      "stateMutability": "view",
      "type": "function"
    }
  ],
  "bytecode": {
    "object": "0x60806040523480156200001157600080fd5b50604051620016e8380380620016e88339810160408190526200003491620003b1565b62069780816001600160a01b038116620000955760405162461bcd60e51b815260206004820152601e60248201527f416363657373436f6e74726f6c3a20302064656661756c742061646d696e000060448201526064015b60405180910390fd5b600180546001600160d01b0316600160d01b65ffffffffffff851602179055620000c16000826200016b565b50620000df9050600080516020620016c8833981519152836200016b565b6200011a7f5614e11ca6d7673c9c8dcec913465d676494aad1151bb2c1cf40b9d99be4d935600080516020620016c88339815191526200022a565b620001477f805825d85bde9bb3e5b217a4d2768db01dd95dca2e6b6cdd1e108fb2c1a45cd960006200022a565b62000163600080516020620016c883398151915260006200022a565b5050620003e9565b816200020f576000620001866002546001600160a01b031690565b6001600160a01b031614620001f35760405162461bcd60e51b815260206004820152602c60248201527f416363657373436f6e74726f6c3a2064656661756c742061646d696e20616c7260448201526b1958591e4819dc985b9d195960a21b60648201526084016200008c565b600280546001600160a01b0319166001600160a01b0383161790555b620002268282620002a960201b6200073a1760201c565b5050565b81620002925760405162461bcd60e51b815260206004820152603060248201527f416363657373436f6e74726f6c3a2063616e27742076696f6c6174652064656660448201526f61756c742061646d696e2072756c657360801b60648201526084016200008c565b6200022682826200034960201b620007be1760201c565b6000828152602081815260408083206001600160a01b038516845290915290205460ff1662000226576000828152602081815260408083206001600160a01b03851684529091529020805460ff19166001179055620003053390565b6001600160a01b0316816001600160a01b0316837f2f8788117e7eff1d82e926ec794901d17c78024a50270940304540a733656f0d60405160405180910390a45050565b600082815260208190526040808220600101805490849055905190918391839186917fbd79b86ffe0ab8e8776151514217cd7cacd52c909f66475c3af44e129f0b00ff9190a4505050565b80516001600160a01b0381168114620003ac57600080fd5b919050565b60008060408385031215620003c557600080fd5b620003d08362000394565b9150620003e06020840162000394565b90509250929050565b6112cf80620003f96000396000f3fe608060405234801561001057600080fd5b50600436106101375760003560e01c806384ef8ffc116100b8578063b923b3701161007c578063b923b370146102c4578063cc8463c8146102eb578063cefc1429146102f3578063cf6eefb7146102fb578063d547741f14610329578063d602b9fd1461033c57600080fd5b806384ef8ffc146102555780638da5cb5b1461027a57806391d1485414610282578063a1eda53c14610295578063a217fddf146102bc57600080fd5b80632f2ff15d116100ff5780632f2ff15d146101e257806336568abe146101f5578063634e93da14610208578063649a5ec71461021b57806368e3d6f71461022e57600080fd5b806301ffc9a71461013c578063022d63fb146101645780630aa6220b146101805780630b68af0f1461018a578063248a9ca3146101bf575b600080fd5b61014f61014a366004611037565b610344565b60405190151581526020015b60405180910390f35b620697805b60405165ffffffffffff909116815260200161015b565b61018861036f565b005b6101b17f805825d85bde9bb3e5b217a4d2768db01dd95dca2e6b6cdd1e108fb2c1a45cd981565b60405190815260200161015b565b6101b16101cd366004611061565b60009081526020819052604090206001015490565b6101886101f0366004611096565b610385565b610188610203366004611096565b610404565b6101886102163660046110c2565b6104ee565b6101886102293660046110dd565b610502565b6101b17f5614e11ca6d7673c9c8dcec913465d676494aad1151bb2c1cf40b9d99be4d93581565b6002546001600160a01b03165b6040516001600160a01b03909116815260200161015b565b610262610516565b61014f610290366004611096565b61052f565b61029d610558565b6040805165ffffffffffff93841681529290911660208301520161015b565b6101b1600081565b6101b17f20b32f2df204267e63fd0c40995e8c033ab95558c72046f0d7f270498394dbd781565b6101696105ac565b61018861060b565b610303610689565b604080516001600160a01b03909316835265ffffffffffff90911660208301520161015b565b610188610337366004611096565b6106aa565b610188610727565b60006001600160e01b031982166318a4c3c360e11b1480610369575061036982610809565b92915050565b600061037a8161083e565b610382610848565b50565b816103f65760405162461bcd60e51b815260206004820152603660248201527f416363657373436f6e74726f6c3a2063616e2774206469726563746c79206772604482015275616e742064656661756c742061646d696e20726f6c6560501b60648201526084015b60405180910390fd5b6104008282610855565b5050565b8115801561041f57506002546001600160a01b038281169116145b156104e45760008061042f610689565b90925090506001600160a01b038216158015610452575065ffffffffffff811615155b801561046557504265ffffffffffff8216105b6104cf5760405162461bcd60e51b815260206004820152603560248201527f416363657373436f6e74726f6c3a206f6e6c792063616e2072656e6f756e636560448201527420696e2074776f2064656c6179656420737465707360581b60648201526084016103ed565b50506001805465ffffffffffff60a01b191690555b610400828261087f565b60006104f98161083e565b610400826108f9565b600061050d8161083e565b6104008261096c565b600061052a6002546001600160a01b031690565b905090565b6000918252602082815260408084206001600160a01b0393909316845291905290205460ff1690565b600254600090600160d01b900465ffffffffffff16801515801561058457504265ffffffffffff821610155b610590576000806105a4565b600254600160a01b900465ffffffffffff16815b915091509091565b600254600090600160d01b900465ffffffffffff1680151580156105d757504265ffffffffffff8216105b6105f257600154600160d01b900465ffffffffffff16610605565b600254600160a01b900465ffffffffffff165b91505090565b6000610615610689565b509050336001600160a01b038216146106815760405162461bcd60e51b815260206004820152602860248201527f416363657373436f6e74726f6c3a2070656e64696e672061646d696e206d75736044820152671d081858d8d95c1d60c21b60648201526084016103ed565b6103826109dc565b6001546001600160a01b03811691600160a01b90910465ffffffffffff1690565b8161071d5760405162461bcd60e51b815260206004820152603760248201527f416363657373436f6e74726f6c3a2063616e2774206469726563746c7920726560448201527f766f6b652064656661756c742061646d696e20726f6c6500000000000000000060648201526084016103ed565b6104008282610aa7565b60006107328161083e565b610382610acc565b610744828261052f565b610400576000828152602081815260408083206001600160a01b03851684529091529020805460ff1916600117905561077a3390565b6001600160a01b0316816001600160a01b0316837f2f8788117e7eff1d82e926ec794901d17c78024a50270940304540a733656f0d60405160405180910390a45050565b600082815260208190526040808220600101805490849055905190918391839186917fbd79b86ffe0ab8e8776151514217cd7cacd52c909f66475c3af44e129f0b00ff9190a4505050565b60006001600160e01b03198216637965db0b60e01b148061036957506301ffc9a760e01b6001600160e01b0319831614610369565b6103828133610ad7565b610853600080610b30565b565b6000828152602081905260409020600101546108708161083e565b61087a8383610bf0565b505050565b6001600160a01b03811633146108ef5760405162461bcd60e51b815260206004820152602f60248201527f416363657373436f6e74726f6c3a2063616e206f6e6c792072656e6f756e636560448201526e103937b632b9903337b91039b2b63360891b60648201526084016103ed565b6104008282610c9a565b60006109036105ac565b61090c42610cd5565b610916919061111b565b90506109228282610d40565b60405165ffffffffffff821681526001600160a01b038316907f3377dc44241e779dd06afab5b788a35ca5f3b778836e2990bdb26a2a4b2e5ed69060200160405180910390a25050565b600061097782610dbf565b61098042610cd5565b61098a919061111b565b90506109968282610b30565b6040805165ffffffffffff8085168252831660208201527ff1038c18cf84a56e432fdbfaf746924b7ea511dfe03a6506a0ceba4888788d9b910160405180910390a15050565b6000806109e7610689565b915091506109fc8165ffffffffffff16151590565b8015610a0f57504265ffffffffffff8216105b610a6c5760405162461bcd60e51b815260206004820152602860248201527f416363657373436f6e74726f6c3a207472616e736665722064656c6179206e6f6044820152671d081c185cdcd95960c21b60648201526084016103ed565b610a886000610a836002546001600160a01b031690565b610c9a565b610a93600083610bf0565b5050600180546001600160d01b0319169055565b600082815260208190526040902060010154610ac28161083e565b61087a8383610c9a565b610853600080610d40565b610ae1828261052f565b61040057610aee81610e0e565b610af9836020610e20565b604051602001610b0a929190611165565b60408051601f198184030181529082905262461bcd60e51b82526103ed916004016111da565b600254600160d01b900465ffffffffffff168015610bb3574265ffffffffffff82161015610b8957600254600180546001600160d01b0316600160a01b90920465ffffffffffff16600160d01b02919091179055610bb3565b6040517f2b1fa2edafe6f7b9e97c1a9e0c3660e645beb2dcaa2d45bdbf9beaf5472e1ec590600090a15b50600280546001600160a01b0316600160a01b65ffffffffffff948516026001600160d01b031617600160d01b9290931691909102919091179055565b81610c90576000610c096002546001600160a01b031690565b6001600160a01b031614610c745760405162461bcd60e51b815260206004820152602c60248201527f416363657373436f6e74726f6c3a2064656661756c742061646d696e20616c7260448201526b1958591e4819dc985b9d195960a21b60648201526084016103ed565b600280546001600160a01b0319166001600160a01b0383161790555b610400828261073a565b81158015610cb557506002546001600160a01b038281169116145b15610ccb57600280546001600160a01b03191690555b6104008282610fbc565b600065ffffffffffff821115610d3c5760405162461bcd60e51b815260206004820152602660248201527f53616665436173743a2076616c756520646f65736e27742066697420696e203460448201526538206269747360d01b60648201526084016103ed565b5090565b6000610d4a610689565b6001805465ffffffffffff8616600160a01b026001600160d01b03199091166001600160a01b038816171790559150610d8c90508165ffffffffffff16151590565b1561087a576040517f8886ebfc4259abdbc16601dd8fb5678e54878f47b3c34836cfc51154a960510990600090a1505050565b600080610dca6105ac565b90508065ffffffffffff168365ffffffffffff1611610df257610ded838261120d565b610e07565b610e0765ffffffffffff841662069780611021565b9392505050565b60606103696001600160a01b03831660145b60606000610e2f83600261122c565b610e3a906002611243565b67ffffffffffffffff811115610e5257610e52611256565b6040519080825280601f01601f191660200182016040528015610e7c576020820181803683370190505b509050600360fc1b81600081518110610e9757610e9761126c565b60200101906001600160f81b031916908160001a905350600f60fb1b81600181518110610ec657610ec661126c565b60200101906001600160f81b031916908160001a9053506000610eea84600261122c565b610ef5906001611243565b90505b6001811115610f6d576f181899199a1a9b1b9c1cb0b131b232b360811b85600f1660108110610f2957610f2961126c565b1a60f81b828281518110610f3f57610f3f61126c565b60200101906001600160f81b031916908160001a90535060049490941c93610f6681611282565b9050610ef8565b508315610e075760405162461bcd60e51b815260206004820181905260248201527f537472696e67733a20686578206c656e67746820696e73756666696369656e7460448201526064016103ed565b610fc6828261052f565b15610400576000828152602081815260408083206001600160a01b0385168085529252808320805460ff1916905551339285917ff6391f5c32d9c69d2a47ea670b442974b53935d1edc7fd64eb21e047a839171b9190a45050565b60008183106110305781610e07565b5090919050565b60006020828403121561104957600080fd5b81356001600160e01b031981168114610e0757600080fd5b60006020828403121561107357600080fd5b5035919050565b80356001600160a01b038116811461109157600080fd5b919050565b600080604083850312156110a957600080fd5b823591506110b96020840161107a565b90509250929050565b6000602082840312156110d457600080fd5b610e078261107a565b6000602082840312156110ef57600080fd5b813565ffffffffffff81168114610e0757600080fd5b634e487b7160e01b600052601160045260246000fd5b65ffffffffffff81811683821601908082111561113a5761113a611105565b5092915050565b60005b8381101561115c578181015183820152602001611144565b50506000910152565b7f416363657373436f6e74726f6c3a206163636f756e742000000000000000000081526000835161119d816017850160208801611141565b7001034b99036b4b9b9b4b733903937b6329607d1b60179184019182015283516111ce816028840160208801611141565b01602801949350505050565b60208152600082518060208401526111f9816040850160208701611141565b601f01601f19169190910160400192915050565b65ffffffffffff82811682821603908082111561113a5761113a611105565b808202811582820484141761036957610369611105565b8082018082111561036957610369611105565b634e487b7160e01b600052604160045260246000fd5b634e487b7160e01b600052603260045260246000fd5b60008161129157611291611105565b50600019019056fea26469706673582212206f18de4983ec1ad6687d54d22302bd3fecf281482baafc19d78c7d795cfbae9564736f6c6343000812003320b32f2df204267e63fd0c40995e8c033ab95558c72046f0d7f270498394dbd7",
    "linkReferences": {}
  },
  "methodIdentifiers": {
    "CALLEE()": "b923b370",
    "DEFAULT_ADMIN_ROLE()": "a217fddf",
    "INVESTOR()": "68e3d6f7",
    "NOMINATED_ADMINS()": "0b68af0f",
    "acceptDefaultAdminTransfer()": "cefc1429",
    "beginDefaultAdminTransfer(address)": "634e93da",
    "cancelDefaultAdminTransfer()": "d602b9fd",
    "changeDefaultAdminDelay(uint48)": "649a5ec7",
    "defaultAdmin()": "84ef8ffc",
    "defaultAdminDelay()": "cc8463c8",
    "defaultAdminDelayIncreaseWait()": "022d63fb",
    "getRoleAdmin(bytes32)": "248a9ca3",
    "grantRole(bytes32,address)": "2f2ff15d",
    "hasRole(bytes32,address)": "91d14854",
    "owner()": "8da5cb5b",
    "pendingDefaultAdmin()": "cf6eefb7",
    "pendingDefaultAdminDelay()": "a1eda53c",
    "renounceRole(bytes32,address)": "36568abe",
    "revokeRole(bytes32,address)": "d547741f",
    "rollbackDefaultAdminDelay()": "0aa6220b",
    "supportsInterface(bytes4)": "01ffc9a7"
  },
  "id": 3
}