{
  "abi": [
    {
      "inputs": [
        {
          "internalType": "contract IVenAccessControl",
          "name": "_accessControl",
          "type": "address"
        }
      ],
      "stateMutability": "nonpayable",
      "type": "constructor"
    },
    {
      "inputs": [
        {
          "internalType": "string",
          "name": "",
          "type": "string"
        }
      ],
      "name": "exceedLimit",
      "type": "error"
    },
    {
      "inputs": [
        {
          "internalType": "string",
          "name": "",
          "type": "string"
        }
      ],
      "name": "noElection",
      "type": "error"
    },
    {
      "inputs": [
        {
          "internalType": "string",
          "name": "",
          "type": "string"
        }
      ],
      "name": "notAdmin",
      "type": "error"
    },
    {
      "inputs": [],
      "name": "ADMIN",
      "outputs": [
        {
          "internalType": "bytes32",
          "name": "",
          "type": "bytes32"
        }
      ],
      "stateMutability": "view",
      "type": "function"
    },
    {
      "inputs": [],
      "name": "INVESTOR",
      "outputs": [
        {
          "internalType": "bytes32",
          "name": "",
          "type": "bytes32"
        }
      ],
      "stateMutability": "view",
      "type": "function"
    },
    {
      "inputs": [],
      "name": "VenAccessControl",
      "outputs": [
        {
          "internalType": "contract IVenAccessControl",
          "name": "",
          "type": "address"
        }
      ],
      "stateMutability": "view",
      "type": "function"
    },
    {
      "inputs": [
        {
          "internalType": "uint256",
          "name": "",
          "type": "uint256"
        }
      ],
      "name": "contestant",
      "outputs": [
        {
          "internalType": "string",
          "name": "name",
          "type": "string"
        },
        {
          "internalType": "uint128",
          "name": "voteCount",
          "type": "uint128"
        },
        {
          "internalType": "address",
          "name": "participant",
          "type": "address"
        },
        {
          "internalType": "uint8",
          "name": "Id",
          "type": "uint8"
        }
      ],
      "stateMutability": "view",
      "type": "function"
    },
    {
      "inputs": [],
      "name": "resetContestant",
      "outputs": [],
      "stateMutability": "nonpayable",
      "type": "function"
    },
    {
      "inputs": [],
      "name": "resetVoteLimit",
      "outputs": [],
      "stateMutability": "nonpayable",
      "type": "function"
    },
    {
      "inputs": [
        {
          "components": [
            {
              "internalType": "string",
              "name": "name",
              "type": "string"
            },
            {
              "internalType": "uint128",
              "name": "voteCount",
              "type": "uint128"
            },
            {
              "internalType": "address",
              "name": "participant",
              "type": "address"
            },
            {
              "internalType": "uint8",
              "name": "Id",
              "type": "uint8"
            }
          ],
          "internalType": "struct VenVoting.Contestant",
          "name": "_contestant",
          "type": "tuple"
        },
        {
          "internalType": "uint40",
          "name": "_voteTime",
          "type": "uint40"
        }
      ],
      "name": "setContestant",
      "outputs": [],
      "stateMutability": "nonpayable",
      "type": "function"
    },
    {
      "inputs": [],
      "name": "top5Nominees",
      "outputs": [
        {
          "components": [
            {
              "internalType": "string",
              "name": "name",
              "type": "string"
            },
            {
              "internalType": "uint128",
              "name": "voteCount",
              "type": "uint128"
            },
            {
              "internalType": "address",
              "name": "participant",
              "type": "address"
            },
            {
              "internalType": "uint8",
              "name": "Id",
              "type": "uint8"
            }
          ],
          "internalType": "struct VenVoting.Contestant[]",
          "name": "",
          "type": "tuple[]"
        }
      ],
      "stateMutability": "view",
      "type": "function"
    },
    {
      "inputs": [
        {
          "internalType": "uint8",
          "name": "_id",
          "type": "uint8"
        }
      ],
      "name": "voteAdmin",
      "outputs": [],
      "stateMutability": "nonpayable",
      "type": "function"
    },
    {
      "inputs": [
        {
          "internalType": "address",
          "name": "",
          "type": "address"
        }
      ],
      "name": "voteLimit",
      "outputs": [
        {
          "internalType": "uint8",
          "name": "",
          "type": "uint8"
        }
      ],
      "stateMutability": "view",
      "type": "function"
    }
  ],
  "bytecode": {
    "object": "0x608060405234801561001057600080fd5b5060405161131638038061131683398101604081905261002f91610054565b600380546001600160a01b0319166001600160a01b0392909216919091179055610084565b60006020828403121561006657600080fd5b81516001600160a01b038116811461007d57600080fd5b9392505050565b611283806100936000396000f3fe608060405234801561001057600080fd5b506004361061009e5760003560e01c80636a6df133116100665780636a6df1331461014c5780636b54f3b3146101545780637873bc611461016957806392c838581461018c578063b9d84b93146101c157600080fd5b80630ec1e19e146100a35780632a0acc6a146100b85780634008c7a1146100f25780634ced5a08146100fa57806368e3d6f714610125575b600080fd5b6100b66100b1366004610d5b565b6101d4565b005b6100df7fdf8b4c520ffe197c5343c6f5aec59570151ef9a492f2c624fd45ddde6135ec4281565b6040519081526020015b60405180910390f35b6100b661039c565b60035461010d906001600160a01b031681565b6040516001600160a01b0390911681526020016100e9565b6100df7f5614e11ca6d7673c9c8dcec913465d676494aad1151bb2c1cf40b9d99be4d93581565b6100b66104c5565b61015c610676565b6040516100e99190610ea5565b61017c610177366004610f45565b610976565b6040516100e99493929190610f5e565b6101af61019a366004610fa2565b60026020526000908152604090205460ff1681565b60405160ff90911681526020016100e9565b6100b66101cf366004610fc4565b610a56565b600354604051632474521560e21b81527fdf8b4c520ffe197c5343c6f5aec59570151ef9a492f2c624fd45ddde6135ec4260048201523360248201526001600160a01b03909116906391d14854906044016020604051808303816000875af1158015610244573d6000803e3d6000fd5b505050506040513d601f19601f820116820180604052508101906102689190610fdf565b61028e576040516331248db360e21b815260040161028590611001565b60405180910390fd5b600054600a116102d45760405162461bcd60e51b815260206004820152601160248201527010dbdb9d195cdd185b9d08199a5b1b1959607a1b6044820152606401610285565b60008054600181018255908052825183916003027f290decd9548b62a8d60345a988386fc84ba6bc95484008f6362f93160ef3e5630190819061031790826110cd565b506020820151600180830180546001600160801b039093166001600160801b03199093169290921790915560408301516002909201805460609094015160ff16600160a01b026001600160a81b03199094166001600160a01b0390931692909217929092179055805464ffffffffff90921664ffffffffff1990921691909117905550565b600354604051632474521560e21b81527fdf8b4c520ffe197c5343c6f5aec59570151ef9a492f2c624fd45ddde6135ec4260048201523360248201526001600160a01b03909116906391d14854906044016020604051808303816000875af115801561040c573d6000803e3d6000fd5b505050506040513d601f19601f820116820180604052508101906104309190610fdf565b61044d576040516331248db360e21b815260040161028590611001565b60005b600a8110156104c257600080548061046a5761046a61118d565b6000828152602081206000199092019160038302019061048a8282610c44565b506001810180546001600160801b031916905560020180546001600160a81b03191690559055806104ba816111b9565b915050610450565b50565b600354604051632474521560e21b81527f5614e11ca6d7673c9c8dcec913465d676494aad1151bb2c1cf40b9d99be4d93560048201523360248201819052916001600160a01b0316906391d14854906044016020604051808303816000875af1158015610536573d6000803e3d6000fd5b505050506040513d601f19601f8201168201806040525081019061055a9190610fdf565b6105a05760405162461bcd60e51b81526020600482015260176024820152762b22a72220a79d102737ba1030b71034b73b32b9ba37b960491b6044820152606401610285565b60015464ffffffffff164211156105fa576040516394d8f51960e01b815260206004820152601c60248201527f56454e44414f3a204e6f207570636f6d696e6720656c656374696f6e000000006044820152606401610285565b6001600160a01b03811660009081526002602052604090205460ff166106555760405162461bcd60e51b815260206004820152601060248201526f456c696769626c6520746f20766f746560801b6044820152606401610285565b6001600160a01b03166000908152600260205260409020805460ff19169055565b6060600080805480602002602001604051908101604052809291908181526020016000905b8282101561079b57838290600052602060002090600302016040518060800160405290816000820180546106ce90611044565b80601f01602080910402602001604051908101604052809291908181526020018280546106fa90611044565b80156107475780601f1061071c57610100808354040283529160200191610747565b820191906000526020600020905b81548152906001019060200180831161072a57829003601f168201915b50505091835250506001828101546001600160801b03166020808401919091526002909301546001600160a01b0381166040840152600160a01b900460ff166060909201919091529183529201910161069b565b5050505090506000600567ffffffffffffffff8111156107bd576107bd610c92565b60405190808252806020026020018201604052801561081057816020015b604080516080810182526060808252600060208084018290529383018190529082015282526000199092019101816107db5790505b50905061083d60408051608081018252606080825260006020830181905292820183905281019190915290565b6000805b60058160ff16101561096c5783600081518110610860576108606111d2565b602002602001015192506000915060005b85518160ff1610156108f057858160ff1681518110610892576108926111d2565b6020026020010151602001516001600160801b031684602001516001600160801b031610156108de57858160ff16815181106108d0576108d06111d2565b602002602001015193508092505b806108e8816111e8565b915050610871565b5082848260ff1681518110610907576109076111d2565b6020026020010181905250848260ff1681518110610927576109276111d2565b6020026020010161095860408051608081018252606080825260006020830181905292820183905281019190915290565b905280610964816111e8565b915050610841565b5091949350505050565b6000818154811061098657600080fd5b90600052602060002090600302016000915090508060000180546109a990611044565b80601f01602080910402602001604051908101604052809291908181526020018280546109d590611044565b8015610a225780601f106109f757610100808354040283529160200191610a22565b820191906000526020600020905b815481529060010190602001808311610a0557829003601f168201915b50505050600183015460029093015491926001600160801b0316916001600160a01b0381169150600160a01b900460ff1684565b600354604051632474521560e21b81527f5614e11ca6d7673c9c8dcec913465d676494aad1151bb2c1cf40b9d99be4d93560048201523360248201819052916001600160a01b0316906391d14854906044016020604051808303816000875af1158015610ac7573d6000803e3d6000fd5b505050506040513d601f19601f82011682018060405250810190610aeb9190610fdf565b610b315760405162461bcd60e51b81526020600482015260176024820152762b22a72220a79d102737ba1030b71034b73b32b9ba37b960491b6044820152606401610285565b6001600160a01b038116600090815260026020526040902054600360ff9091161115610b9657604051630eaf3e1560e21b8152602060048201526013602482015272115e18d9595908159bdd1a5b99c81b1a5b5a5d606a1b6044820152606401610285565b600160008360ff1681548110610bae57610bae6111d2565b6000918252602082206001600390920201018054909190610bd99084906001600160801b0316611207565b82546001600160801b039182166101009390930a9283029190920219909116179055506001600160a01b0381166000908152600260205260408120805460019290610c2890849060ff1661122e565b92506101000a81548160ff021916908360ff1602179055505050565b508054610c5090611044565b6000825580601f10610c60575050565b601f0160209004906000526020600020908101906104c291905b80821115610c8e5760008155600101610c7a565b5090565b634e487b7160e01b600052604160045260246000fd5b6040516080810167ffffffffffffffff81118282101715610ccb57610ccb610c92565b60405290565b604051601f8201601f1916810167ffffffffffffffff81118282101715610cfa57610cfa610c92565b604052919050565b80356001600160801b0381168114610d1957600080fd5b919050565b80356001600160a01b0381168114610d1957600080fd5b803560ff81168114610d1957600080fd5b803564ffffffffff81168114610d1957600080fd5b60008060408385031215610d6e57600080fd5b823567ffffffffffffffff80821115610d8657600080fd5b9084019060808287031215610d9a57600080fd5b610da2610ca8565b823582811115610db157600080fd5b8301601f81018813610dc257600080fd5b8035602084821115610dd657610dd6610c92565b610de8601f8301601f19168201610cd1565b94508185528981838501011115610dfe57600080fd5b81818401828701376000818387010152848452610e1c818701610d02565b81850152610e2c60408701610d1e565b6040850152610e3d60608701610d35565b6060850152839750610e50818a01610d46565b96505050505050509250929050565b6000815180845260005b81811015610e8557602081850181015186830182015201610e69565b506000602082860101526020601f19601f83011685010191505092915050565b60006020808301818452808551808352604092508286019150828160051b87010184880160005b83811015610f3757603f19898403018552815160808151818652610ef282870182610e5f565b838b01516001600160801b0316878c0152898401516001600160a01b03168a88015260609384015160ff16939096019290925250509386019390860190600101610ecc565b509098975050505050505050565b600060208284031215610f5757600080fd5b5035919050565b608081526000610f716080830187610e5f565b6001600160801b03959095166020830152506001600160a01b0392909216604083015260ff16606090910152919050565b600060208284031215610fb457600080fd5b610fbd82610d1e565b9392505050565b600060208284031215610fd657600080fd5b610fbd82610d35565b600060208284031215610ff157600080fd5b81518015158114610fbd57600080fd5b60208082526023908201527f56454e44414f3a204f6e6c792061646d696e2063616e20616c746572206368616040820152626e676560e81b606082015260800190565b600181811c9082168061105857607f821691505b60208210810361107857634e487b7160e01b600052602260045260246000fd5b50919050565b601f8211156110c857600081815260208120601f850160051c810160208610156110a55750805b601f850160051c820191505b818110156110c4578281556001016110b1565b5050505b505050565b815167ffffffffffffffff8111156110e7576110e7610c92565b6110fb816110f58454611044565b8461107e565b602080601f83116001811461113057600084156111185750858301515b600019600386901b1c1916600185901b1785556110c4565b600085815260208120601f198616915b8281101561115f57888601518255948401946001909101908401611140565b508582101561117d5787850151600019600388901b60f8161c191681555b5050505050600190811b01905550565b634e487b7160e01b600052603160045260246000fd5b634e487b7160e01b600052601160045260246000fd5b6000600182016111cb576111cb6111a3565b5060010190565b634e487b7160e01b600052603260045260246000fd5b600060ff821660ff81036111fe576111fe6111a3565b60010192915050565b6001600160801b03818116838216019080821115611227576112276111a3565b5092915050565b60ff8181168382160190811115611247576112476111a3565b9291505056fea264697066735822122056e0d9d4fb27cea6195d886694ec884c0d3c7e56ac1eba6013dd2c259e90800664736f6c63430008140033",
    "linkReferences": {}
  },
  "methodIdentifiers": {
    "ADMIN()": "2a0acc6a",
    "INVESTOR()": "68e3d6f7",
    "VenAccessControl()": "4ced5a08",
    "contestant(uint256)": "7873bc61",
    "resetContestant()": "4008c7a1",
    "resetVoteLimit()": "6a6df133",
    "setContestant((string,uint128,address,uint8),uint40)": "0ec1e19e",
    "top5Nominees()": "6b54f3b3",
    "voteAdmin(uint8)": "b9d84b93",
    "voteLimit(address)": "92c83858"
  },
  "id": 6
}