{
  "abi": [
    {
      "inputs": [
        {
          "internalType": "contract IVenAccessControl",
          "name": "_accessControl",
          "type": "address"
        }
      ],
      "stateMutability": "nonpayable",
      "type": "constructor"
    },
    {
      "inputs": [
        {
          "internalType": "string",
          "name": "",
          "type": "string"
        }
      ],
      "name": "exceedLimit",
      "type": "error"
    },
    {
      "inputs": [
        {
          "internalType": "string",
          "name": "",
          "type": "string"
        }
      ],
      "name": "noElection",
      "type": "error"
    },
    {
      "inputs": [
        {
          "internalType": "string",
          "name": "",
          "type": "string"
        }
      ],
      "name": "notAdmin",
      "type": "error"
    },
    {
      "inputs": [],
      "name": "INVESTOR",
      "outputs": [
        {
          "internalType": "bytes32",
          "name": "",
          "type": "bytes32"
        }
      ],
      "stateMutability": "view",
      "type": "function"
    },
    {
      "inputs": [],
      "name": "VenAccessControl",
      "outputs": [
        {
          "internalType": "contract IVenAccessControl",
          "name": "",
          "type": "address"
        }
      ],
      "stateMutability": "view",
      "type": "function"
    },
    {
      "inputs": [
        {
          "internalType": "uint256",
          "name": "",
          "type": "uint256"
        }
      ],
      "name": "contestant",
      "outputs": [
        {
          "internalType": "string",
          "name": "name",
          "type": "string"
        },
        {
          "internalType": "uint128",
          "name": "voteCount",
          "type": "uint128"
        },
        {
          "internalType": "address",
          "name": "participant",
          "type": "address"
        },
        {
          "internalType": "uint8",
          "name": "Id",
          "type": "uint8"
        }
      ],
      "stateMutability": "view",
      "type": "function"
    },
    {
      "inputs": [],
      "name": "resetContestant",
      "outputs": [],
      "stateMutability": "nonpayable",
      "type": "function"
    },
    {
      "inputs": [],
      "name": "resetVoteLimit",
      "outputs": [],
      "stateMutability": "nonpayable",
      "type": "function"
    },
    {
      "inputs": [
        {
          "components": [
            {
              "internalType": "string",
              "name": "name",
              "type": "string"
            },
            {
              "internalType": "uint128",
              "name": "voteCount",
              "type": "uint128"
            },
            {
              "internalType": "address",
              "name": "participant",
              "type": "address"
            },
            {
              "internalType": "uint8",
              "name": "Id",
              "type": "uint8"
            }
          ],
          "internalType": "struct VenVoting.Contestant",
          "name": "_contestant",
          "type": "tuple"
        },
        {
          "internalType": "uint40",
          "name": "_voteTime",
          "type": "uint40"
        }
      ],
      "name": "setContestant",
      "outputs": [],
      "stateMutability": "nonpayable",
      "type": "function"
    },
    {
      "inputs": [],
      "name": "top5Nominees",
      "outputs": [
        {
          "components": [
            {
              "internalType": "string",
              "name": "name",
              "type": "string"
            },
            {
              "internalType": "uint128",
              "name": "voteCount",
              "type": "uint128"
            },
            {
              "internalType": "address",
              "name": "participant",
              "type": "address"
            },
            {
              "internalType": "uint8",
              "name": "Id",
              "type": "uint8"
            }
          ],
          "internalType": "struct VenVoting.Contestant[]",
          "name": "",
          "type": "tuple[]"
        }
      ],
      "stateMutability": "view",
      "type": "function"
    },
    {
      "inputs": [
        {
          "internalType": "uint8",
          "name": "_id",
          "type": "uint8"
        }
      ],
      "name": "voteAdmin",
      "outputs": [],
      "stateMutability": "nonpayable",
      "type": "function"
    },
    {
      "inputs": [
        {
          "internalType": "address",
          "name": "",
          "type": "address"
        }
      ],
      "name": "voteLimit",
      "outputs": [
        {
          "internalType": "uint8",
          "name": "",
          "type": "uint8"
        }
      ],
      "stateMutability": "view",
      "type": "function"
    }
  ],
  "bytecode": {
    "object": "0x608060405234801561001057600080fd5b506040516112fe3803806112fe83398101604081905261002f91610054565b600380546001600160a01b0319166001600160a01b0392909216919091179055610084565b60006020828403121561006657600080fd5b81516001600160a01b038116811461007d57600080fd5b9392505050565b61126b806100936000396000f3fe608060405234801561001057600080fd5b50600436106100935760003560e01c80636a6df133116100665780636a6df1331461011a5780636b54f3b3146101225780637873bc611461013757806392c838581461015a578063b9d84b931461018f57600080fd5b80630ec1e19e146100985780634008c7a1146100ad5780634ced5a08146100b557806368e3d6f7146100e5575b600080fd5b6100ab6100a6366004610d24565b6101a2565b005b6100ab610363565b6003546100c8906001600160a01b031681565b6040516001600160a01b0390911681526020015b60405180910390f35b61010c7f5614e11ca6d7673c9c8dcec913465d676494aad1151bb2c1cf40b9d99be4d93581565b6040519081526020016100dc565b6100ab610485565b61012a610636565b6040516100dc9190610e6e565b61014a610145366004610f0e565b610936565b6040516100dc9493929190610f27565b61017d610168366004610f6b565b60026020526000908152604090205460ff1681565b60405160ff90911681526020016100dc565b6100ab61019d366004610f8f565b610a16565b600360009054906101000a90046001600160a01b03166001600160a01b0316638da5cb5b6040518163ffffffff1660e01b81526004016020604051808303816000875af11580156101f7573d6000803e3d6000fd5b505050506040513d601f19601f8201168201806040525081019061021b9190610faa565b6001600160a01b0316336001600160a01b031614610255576040516331248db360e21b815260040161024c90610fc7565b60405180910390fd5b600054600a1161029b5760405162461bcd60e51b815260206004820152601160248201527010dbdb9d195cdd185b9d08199a5b1b1959607a1b604482015260640161024c565b60008054600181018255908052825183916003027f290decd9548b62a8d60345a988386fc84ba6bc95484008f6362f93160ef3e563019081906102de9082611093565b506020820151600180830180546001600160801b039093166001600160801b03199093169290921790915560408301516002909201805460609094015160ff16600160a01b026001600160a81b03199094166001600160a01b0390931692909217929092179055805464ffffffffff90921664ffffffffff1990921691909117905550565b600360009054906101000a90046001600160a01b03166001600160a01b0316638da5cb5b6040518163ffffffff1660e01b81526004016020604051808303816000875af11580156103b8573d6000803e3d6000fd5b505050506040513d601f19601f820116820180604052508101906103dc9190610faa565b6001600160a01b0316336001600160a01b03161461040d576040516331248db360e21b815260040161024c90610fc7565b60005b600a81101561048257600080548061042a5761042a611153565b6000828152602081206000199092019160038302019061044a8282610c04565b506001810180546001600160801b031916905560020180546001600160a81b031916905590558061047a8161117f565b915050610410565b50565b600354604051632474521560e21b81527f5614e11ca6d7673c9c8dcec913465d676494aad1151bb2c1cf40b9d99be4d93560048201523360248201819052916001600160a01b0316906391d14854906044016020604051808303816000875af11580156104f6573d6000803e3d6000fd5b505050506040513d601f19601f8201168201806040525081019061051a9190611198565b6105605760405162461bcd60e51b81526020600482015260176024820152762b22a72220a79d102737ba1030b71034b73b32b9ba37b960491b604482015260640161024c565b60015464ffffffffff164211156105ba576040516394d8f51960e01b815260206004820152601c60248201527f56454e44414f3a204e6f207570636f6d696e6720656c656374696f6e00000000604482015260640161024c565b6001600160a01b03811660009081526002602052604090205460ff166106155760405162461bcd60e51b815260206004820152601060248201526f456c696769626c6520746f20766f746560801b604482015260640161024c565b6001600160a01b03166000908152600260205260409020805460ff19169055565b6060600080805480602002602001604051908101604052809291908181526020016000905b8282101561075b578382906000526020600020906003020160405180608001604052908160008201805461068e9061100a565b80601f01602080910402602001604051908101604052809291908181526020018280546106ba9061100a565b80156107075780601f106106dc57610100808354040283529160200191610707565b820191906000526020600020905b8154815290600101906020018083116106ea57829003601f168201915b50505091835250506001828101546001600160801b03166020808401919091526002909301546001600160a01b0381166040840152600160a01b900460ff166060909201919091529183529201910161065b565b5050505090506000600567ffffffffffffffff81111561077d5761077d610c52565b6040519080825280602002602001820160405280156107d057816020015b6040805160808101825260608082526000602080840182905293830181905290820152825260001990920191018161079b5790505b5090506107fd60408051608081018252606080825260006020830181905292820183905281019190915290565b6000805b60058160ff16101561092c5783600081518110610820576108206111ba565b602002602001015192506000915060005b85518160ff1610156108b057858160ff1681518110610852576108526111ba565b6020026020010151602001516001600160801b031684602001516001600160801b0316101561089e57858160ff1681518110610890576108906111ba565b602002602001015193508092505b806108a8816111d0565b915050610831565b5082848260ff16815181106108c7576108c76111ba565b6020026020010181905250848260ff16815181106108e7576108e76111ba565b6020026020010161091860408051608081018252606080825260006020830181905292820183905281019190915290565b905280610924816111d0565b915050610801565b5091949350505050565b6000818154811061094657600080fd5b90600052602060002090600302016000915090508060000180546109699061100a565b80601f01602080910402602001604051908101604052809291908181526020018280546109959061100a565b80156109e25780601f106109b7576101008083540402835291602001916109e2565b820191906000526020600020905b8154815290600101906020018083116109c557829003601f168201915b50505050600183015460029093015491926001600160801b0316916001600160a01b0381169150600160a01b900460ff1684565b600354604051632474521560e21b81527f5614e11ca6d7673c9c8dcec913465d676494aad1151bb2c1cf40b9d99be4d93560048201523360248201819052916001600160a01b0316906391d14854906044016020604051808303816000875af1158015610a87573d6000803e3d6000fd5b505050506040513d601f19601f82011682018060405250810190610aab9190611198565b610af15760405162461bcd60e51b81526020600482015260176024820152762b22a72220a79d102737ba1030b71034b73b32b9ba37b960491b604482015260640161024c565b6001600160a01b038116600090815260026020526040902054600360ff9091161115610b5657604051630eaf3e1560e21b8152602060048201526013602482015272115e18d9595908159bdd1a5b99c81b1a5b5a5d606a1b604482015260640161024c565b600160008360ff1681548110610b6e57610b6e6111ba565b6000918252602082206001600390920201018054909190610b999084906001600160801b03166111ef565b82546001600160801b039182166101009390930a9283029190920219909116179055506001600160a01b0381166000908152600260205260408120805460019290610be890849060ff16611216565b92506101000a81548160ff021916908360ff1602179055505050565b508054610c109061100a565b6000825580601f10610c20575050565b601f01602090049060005260206000209081019061048291905b80821115610c4e5760008155600101610c3a565b5090565b634e487b7160e01b600052604160045260246000fd5b6040516080810167ffffffffffffffff81118282101715610c8b57610c8b610c52565b60405290565b604051601f8201601f1916810167ffffffffffffffff81118282101715610cba57610cba610c52565b604052919050565b80356001600160801b0381168114610cd957600080fd5b919050565b6001600160a01b038116811461048257600080fd5b8035610cd981610cde565b803560ff81168114610cd957600080fd5b803564ffffffffff81168114610cd957600080fd5b60008060408385031215610d3757600080fd5b823567ffffffffffffffff80821115610d4f57600080fd5b9084019060808287031215610d6357600080fd5b610d6b610c68565b823582811115610d7a57600080fd5b8301601f81018813610d8b57600080fd5b8035602084821115610d9f57610d9f610c52565b610db1601f8301601f19168201610c91565b94508185528981838501011115610dc757600080fd5b81818401828701376000818387010152848452610de5818701610cc2565b81850152610df560408701610cf3565b6040850152610e0660608701610cfe565b6060850152839750610e19818a01610d0f565b96505050505050509250929050565b6000815180845260005b81811015610e4e57602081850181015186830182015201610e32565b506000602082860101526020601f19601f83011685010191505092915050565b60006020808301818452808551808352604092508286019150828160051b87010184880160005b83811015610f0057603f19898403018552815160808151818652610ebb82870182610e28565b838b01516001600160801b0316878c0152898401516001600160a01b03168a88015260609384015160ff16939096019290925250509386019390860190600101610e95565b509098975050505050505050565b600060208284031215610f2057600080fd5b5035919050565b608081526000610f3a6080830187610e28565b6001600160801b03959095166020830152506001600160a01b0392909216604083015260ff16606090910152919050565b600060208284031215610f7d57600080fd5b8135610f8881610cde565b9392505050565b600060208284031215610fa157600080fd5b610f8882610cfe565b600060208284031215610fbc57600080fd5b8151610f8881610cde565b60208082526023908201527f56454e44414f3a204f6e6c792061646d696e2063616e20616c746572206368616040820152626e676560e81b606082015260800190565b600181811c9082168061101e57607f821691505b60208210810361103e57634e487b7160e01b600052602260045260246000fd5b50919050565b601f82111561108e57600081815260208120601f850160051c8101602086101561106b5750805b601f850160051c820191505b8181101561108a57828155600101611077565b5050505b505050565b815167ffffffffffffffff8111156110ad576110ad610c52565b6110c1816110bb845461100a565b84611044565b602080601f8311600181146110f657600084156110de5750858301515b600019600386901b1c1916600185901b17855561108a565b600085815260208120601f198616915b8281101561112557888601518255948401946001909101908401611106565b50858210156111435787850151600019600388901b60f8161c191681555b5050505050600190811b01905550565b634e487b7160e01b600052603160045260246000fd5b634e487b7160e01b600052601160045260246000fd5b60006001820161119157611191611169565b5060010190565b6000602082840312156111aa57600080fd5b81518015158114610f8857600080fd5b634e487b7160e01b600052603260045260246000fd5b600060ff821660ff81036111e6576111e6611169565b60010192915050565b6001600160801b0381811683821601908082111561120f5761120f611169565b5092915050565b60ff818116838216019081111561122f5761122f611169565b9291505056fea264697066735822122032ef4cedc152200deacb886220c1f32c13b92377b72a87984cb3d982a2bb2b2d64736f6c63430008120033",
    "linkReferences": {}
  },
  "methodIdentifiers": {
    "INVESTOR()": "68e3d6f7",
    "VenAccessControl()": "4ced5a08",
    "contestant(uint256)": "7873bc61",
    "resetContestant()": "4008c7a1",
    "resetVoteLimit()": "6a6df133",
    "setContestant((string,uint128,address,uint8),uint40)": "0ec1e19e",
    "top5Nominees()": "6b54f3b3",
    "voteAdmin(uint8)": "b9d84b93",
    "voteLimit(address)": "92c83858"
  },
  "id": 6
}