{
  "abi": [
    {
      "inputs": [],
      "stateMutability": "nonpayable",
      "type": "constructor"
    },
    {
      "inputs": [
        {
          "internalType": "string",
          "name": "",
          "type": "string"
        }
      ],
      "name": "_paused",
      "type": "error"
    },
    {
      "inputs": [
        {
          "internalType": "string",
          "name": "",
          "type": "string"
        }
      ],
      "name": "approved",
      "type": "error"
    },
    {
      "inputs": [
        {
          "internalType": "string",
          "name": "",
          "type": "string"
        }
      ],
      "name": "lowerThanFee",
      "type": "error"
    },
    {
      "inputs": [
        {
          "internalType": "string",
          "name": "",
          "type": "string"
        }
      ],
      "name": "notAdmin",
      "type": "error"
    },
    {
      "stateMutability": "payable",
      "type": "fallback"
    },
    {
      "inputs": [],
      "name": "ADMIN",
      "outputs": [
        {
          "internalType": "bytes32",
          "name": "",
          "type": "bytes32"
        }
      ],
      "stateMutability": "view",
      "type": "function"
    },
    {
      "inputs": [],
      "name": "INVESTOR",
      "outputs": [
        {
          "internalType": "bytes32",
          "name": "",
          "type": "bytes32"
        }
      ],
      "stateMutability": "view",
      "type": "function"
    },
    {
      "inputs": [],
      "name": "NOMINATED_ADMINS",
      "outputs": [
        {
          "internalType": "bytes32",
          "name": "",
          "type": "bytes32"
        }
      ],
      "stateMutability": "view",
      "type": "function"
    },
    {
      "inputs": [],
      "name": "VenAccessControl",
      "outputs": [
        {
          "internalType": "contract IVenAccessControl",
          "name": "",
          "type": "address"
        }
      ],
      "stateMutability": "view",
      "type": "function"
    },
    {
      "inputs": [],
      "name": "VenAccessTicket",
      "outputs": [
        {
          "internalType": "contract IVenAccessTicket",
          "name": "",
          "type": "address"
        }
      ],
      "stateMutability": "view",
      "type": "function"
    },
    {
      "inputs": [
        {
          "internalType": "uint48",
          "name": "_proposalId",
          "type": "uint48"
        }
      ],
      "name": "claim",
      "outputs": [],
      "stateMutability": "nonpayable",
      "type": "function"
    },
    {
      "inputs": [
        {
          "internalType": "uint48",
          "name": "_proposalId",
          "type": "uint48"
        }
      ],
      "name": "examineProject",
      "outputs": [],
      "stateMutability": "nonpayable",
      "type": "function"
    },
    {
      "inputs": [
        {
          "internalType": "contract IVenAccessTicket",
          "name": "_accessTicket",
          "type": "address"
        },
        {
          "internalType": "contract IVenAccessControl",
          "name": "_accessControl",
          "type": "address"
        }
      ],
      "name": "init",
      "outputs": [],
      "stateMutability": "nonpayable",
      "type": "function"
    },
    {
      "inputs": [
        {
          "internalType": "uint48",
          "name": "_proposalId",
          "type": "uint48"
        }
      ],
      "name": "invest",
      "outputs": [],
      "stateMutability": "payable",
      "type": "function"
    },
    {
      "inputs": [],
      "name": "joinDAO",
      "outputs": [
        {
          "internalType": "uint256",
          "name": "_newTokenId",
          "type": "uint256"
        }
      ],
      "stateMutability": "payable",
      "type": "function"
    },
    {
      "inputs": [],
      "name": "leaveDAO",
      "outputs": [],
      "stateMutability": "payable",
      "type": "function"
    },
    {
      "inputs": [],
      "name": "pauseProposal",
      "outputs": [],
      "stateMutability": "nonpayable",
      "type": "function"
    },
    {
      "inputs": [
        {
          "internalType": "uint256",
          "name": "",
          "type": "uint256"
        }
      ],
      "name": "projectFunded",
      "outputs": [
        {
          "internalType": "string",
          "name": "url",
          "type": "string"
        },
        {
          "internalType": "uint256",
          "name": "fundingRequest",
          "type": "uint256"
        },
        {
          "internalType": "uint256",
          "name": "amountFunded",
          "type": "uint256"
        },
        {
          "internalType": "uint256",
          "name": "equityOffering",
          "type": "uint256"
        },
        {
          "internalType": "uint96",
          "name": "investorsTag",
          "type": "uint96"
        },
        {
          "internalType": "address",
          "name": "proposalCreator",
          "type": "address"
        },
        {
          "internalType": "contract IERC20",
          "name": "_tokenCA",
          "type": "address"
        },
        {
          "internalType": "bool",
          "name": "claimed",
          "type": "bool"
        }
      ],
      "stateMutability": "view",
      "type": "function"
    },
    {
      "inputs": [
        {
          "internalType": "uint48",
          "name": "_proposalId",
          "type": "uint48"
        }
      ],
      "name": "projectNotSuccessful",
      "outputs": [
        {
          "internalType": "bool",
          "name": "",
          "type": "bool"
        }
      ],
      "stateMutability": "view",
      "type": "function"
    },
    {
      "inputs": [
        {
          "internalType": "uint256",
          "name": "",
          "type": "uint256"
        }
      ],
      "name": "projectProposals",
      "outputs": [
        {
          "internalType": "string",
          "name": "urlToStorage",
          "type": "string"
        },
        {
          "internalType": "uint40",
          "name": "proposalValidity",
          "type": "uint40"
        },
        {
          "internalType": "address",
          "name": "proposalCreator",
          "type": "address"
        },
        {
          "internalType": "uint48",
          "name": "proposalId",
          "type": "uint48"
        },
        {
          "internalType": "uint8",
          "name": "approvalCount",
          "type": "uint8"
        },
        {
          "internalType": "enum Vendao.Status",
          "name": "status",
          "type": "uint8"
        },
        {
          "internalType": "uint256",
          "name": "fundingRequest",
          "type": "uint256"
        },
        {
          "internalType": "uint256",
          "name": "equityOffering",
          "type": "uint256"
        },
        {
          "internalType": "contract IERC20",
          "name": "tokenCA",
          "type": "address"
        }
      ],
      "stateMutability": "view",
      "type": "function"
    },
    {
      "inputs": [],
      "name": "proposalTime",
      "outputs": [
        {
          "internalType": "uint40",
          "name": "",
          "type": "uint40"
        }
      ],
      "stateMutability": "view",
      "type": "function"
    },
    {
      "inputs": [
        {
          "internalType": "uint256",
          "name": "",
          "type": "uint256"
        }
      ],
      "name": "proposalsToInvest",
      "outputs": [
        {
          "internalType": "string",
          "name": "url",
          "type": "string"
        },
        {
          "internalType": "address",
          "name": "proposalCreator",
          "type": "address"
        },
        {
          "internalType": "uint40",
          "name": "investPeriod",
          "type": "uint40"
        },
        {
          "internalType": "uint48",
          "name": "investId",
          "type": "uint48"
        },
        {
          "internalType": "bool",
          "name": "funded",
          "type": "bool"
        },
        {
          "internalType": "uint256",
          "name": "fundingRequest",
          "type": "uint256"
        },
        {
          "internalType": "uint256",
          "name": "equityOffering",
          "type": "uint256"
        },
        {
          "internalType": "uint256",
          "name": "amountFunded",
          "type": "uint256"
        },
        {
          "internalType": "contract IERC20",
          "name": "_tokenCA",
          "type": "address"
        }
      ],
      "stateMutability": "view",
      "type": "function"
    },
    {
      "inputs": [
        {
          "internalType": "string",
          "name": "_urlToStore",
          "type": "string"
        },
        {
          "internalType": "uint256",
          "name": "_fundingRequest",
          "type": "uint256"
        },
        {
          "internalType": "uint256",
          "name": "_equityOffering",
          "type": "uint256"
        },
        {
          "internalType": "contract IERC20",
          "name": "_contractAddress",
          "type": "address"
        }
      ],
      "name": "proposeProject",
      "outputs": [],
      "stateMutability": "nonpayable",
      "type": "function"
    },
    {
      "inputs": [
        {
          "internalType": "uint208",
          "name": "_acceptance",
          "type": "uint208"
        }
      ],
      "name": "setAcceptanceFee",
      "outputs": [],
      "stateMutability": "nonpayable",
      "type": "function"
    },
    {
      "stateMutability": "payable",
      "type": "receive"
    }
  ],
  "bytecode": {
    "object": "0x608060405234801561001057600080fd5b506001600081905580546001600160a01b03191633179055612ab2806100376000396000f3fe60806040526004361061010c5760003560e01c806368e3d6f71161009a578063d011f21611610061578063d011f2161461034b578063dbc1d5691461035e578063e091eaf614610393578063f09a4016146103c3578063f63d13d7146103e357005b806368e3d6f71461029557806379585aa8146102b757806381242403146102eb578063a51134871461030b578063bd28cac91461032b57005b80632a0acc6a116100de5780632a0acc6a146101bf57806338d698bf146101f35780634ced5a0814610213578063637f8af51461024b5780636658cc761461028057005b80630142476a146101155780630b68af0f14610135578063184a0ae91461017c5780631de7df41146101b757005b3661011357005b005b34801561012157600080fd5b50610113610130366004612444565b6103eb565b34801561014157600080fd5b506101697f805825d85bde9bb3e5b217a4d2768db01dd95dca2e6b6cdd1e108fb2c1a45cd981565b6040519081526020015b60405180910390f35b34801561018857600080fd5b506004546101a190600160d01b900464ffffffffff1681565b60405164ffffffffff9091168152602001610173565b610113610a91565b3480156101cb57600080fd5b506101697fdf8b4c520ffe197c5343c6f5aec59570151ef9a492f2c624fd45ddde6135ec4281565b3480156101ff57600080fd5b5061011361020e3660046124ae565b610d0d565b34801561021f57600080fd5b50600354610233906001600160a01b031681565b6040516001600160a01b039091168152602001610173565b34801561025757600080fd5b5061026b610266366004612583565b611117565b604051610173999897969594939291906125e2565b34801561028c57600080fd5b50610113611221565b3480156102a157600080fd5b50610169600080516020612a5d83398151915281565b3480156102c357600080fd5b506102d76102d2366004612583565b61130f565b604051610173989796959493929190612653565b3480156102f757600080fd5b50610113610306366004612444565b611411565b34801561031757600080fd5b506101136103263660046126b5565b61189d565b34801561033757600080fd5b50600254610233906001600160a01b031681565b610113610359366004612444565b6119ac565b34801561036a57600080fd5b5061037e610379366004612583565b611ece565b604051610173999897969594939291906126f4565b34801561039f57600080fd5b506103b36103ae366004612444565b611fde565b6040519015158152602001610173565b3480156103cf57600080fd5b506101136103de366004612792565b612164565b6101696121e8565b6103f3612378565b600354604051632474521560e21b81527f805825d85bde9bb3e5b217a4d2768db01dd95dca2e6b6cdd1e108fb2c1a45cd960048201523360248201526001600160a01b03909116906391d14854906044016020604051808303816000875af1158015610463573d6000803e3d6000fd5b505050506040513d601f19601f8201168201806040525081019061048791906127cb565b6104e8576040516331248db360e21b815260206004820152602660248201527f4f6e6c79206e6f6d696e617465642061646d696e732063616e20616c746572206044820152656368616e676560d01b60648201526084015b60405180910390fd5b600060098265ffffffffffff1681548110610505576105056127ed565b90600052602060002090600602016040518061012001604052908160008201805461052f90612803565b80601f016020809104026020016040519081016040528092919081815260200182805461055b90612803565b80156105a85780601f1061057d576101008083540402835291602001916105a8565b820191906000526020600020905b81548152906001019060200180831161058b57829003601f168201915b5050509183525050600182015464ffffffffff811660208301526001600160a01b0365010000000000820416604083015265ffffffffffff600160c81b820416606083015260ff600160f81b9091048116608083015260028084015460a0909301929091169081111561061d5761061d6126de565b600281111561062e5761062e6126de565b8152600382015460208083019190915260048301546040808401919091526005938401546001600160a01b031660609093019290925233600090815292815281832065ffffffffffff87168452905290205490915060ff16156106d35760405162461bcd60e51b815260206004820152601960248201527f4e4f4d494e45453a20417070726f76656420616c72656164790000000000000060448201526064016104df565b60008160a0015160028111156106eb576106eb6126de565b0361074357604051637d19175960e11b815260206004820152602160248201527f56454e44414f3a2050726f6a6563742070726f706f73616c20617070726f76656044820152601960fa1b60648201526084016104df565b806020015164ffffffffff1642118015610772575060018160a001516002811115610770576107706126de565b145b1561087157600260098365ffffffffffff1681548110610794576107946127ed565b906000526020600020906006020160020160006101000a81548160ff021916908360028111156107c6576107c66126de565b021790555061010081015160408083015160e0840151915163a9059cbb60e01b81526001600160a01b03918216600482015260248101929092529091169063a9059cbb906044016020604051808303816000875af115801561082c573d6000803e3d6000fd5b505050506040513d601f19601f8201168201806040525081019061085091906127cb565b61086c5760405162461bcd60e51b81526004016104df90612837565b610a83565b600060098365ffffffffffff168154811061088e5761088e6127ed565b6000918252602090912060069091020160010154600160f81b900460ff1690506003811115610a8157600060098465ffffffffffff16815481106108d4576108d46127ed565b906000526020600020906006020160020160006101000a81548160ff02191690836002811115610906576109066126de565b0217905550600a8054604080516101208101825285518152858201516001600160a01b03166020820152919291908101610943426212750061287c565b64ffffffffff1681526020018365ffffffffffff1681526020016000151581526020018560c0015181526020018560e0015181526020016109878660c001516123d1565b81526101008601516001600160a01b031660209182015282546001810184556000938452922081519192600602019081906109c290826128e4565b5060208201516001820180546040850151606086015160808701511515600160f81b026001600160f81b0365ffffffffffff909216600160c81b02919091166001600160c81b0364ffffffffff909316600160a01b026001600160c81b03199094166001600160a01b039687161793909317919091169190911717905560a0830151600283015560c0830151600383015560e083015160048301556101009092015160059091018054919092166001600160a01b031991909116179055505b505b50610a8e6001600055565b50565b600354604051632474521560e21b8152600080516020612a5d83398151915260048201523360248201819052916001600160a01b0316906391d14854906044016020604051808303816000875af1158015610af0573d6000803e3d6000fd5b505050506040513d601f19601f82011682018060405250810190610b1491906127cb565b610b605760405162461bcd60e51b815260206004820152601760248201527f56454e44414f3a204e6f7420616e20696e766573746f7200000000000000000060448201526064016104df565b60035460405163d547741f60e01b8152600080516020612a5d83398151915260048201526001600160a01b0383811660248301529091169063d547741f90604401600060405180830381600087803b158015610bbb57600080fd5b505af1158015610bcf573d6000803e3d6000fd5b50506002546001600160a01b038481166000908152600860205260409081902054905163ece2230d60e01b815260048101919091529116925063ece2230d9150602401600060405180830381600087803b158015610c2c57600080fd5b505af1158015610c40573d6000803e3d6000fd5b5050600454600092506001600160a01b0384169150610c6a906002906001600160d01b03166129ba565b6001600160d01b031660405160006040518083038185875af1925050503d8060008114610cb3576040519150601f19603f3d011682016040523d82523d6000602084013e610cb8565b606091505b5050905080610d095760405162461bcd60e51b815260206004820152601860248201527f5472616e73616374696f6e20556e7375636365737366756c000000000000000060448201526064016104df565b5050565b610d15612378565b6009546004543390429064ffffffffff600160d01b909104811690821611610d735760405162461bcd60e51b8152602060048201526011602482015270283937b837b9b0b6103737ba1037b832b760791b60448201526064016104df565b600454600160f81b900460ff1615610dce5760405163d8df3d3d60e01b815260206004820152601760248201527f50726f6a6563742070726f706f73616c2070617573656400000000000000000060448201526064016104df565b6040516323b872dd60e01b81526001600160a01b038381166004830152306024830152604482018790528516906323b872dd906064016020604051808303816000875af1158015610e23573d6000803e3d6000fd5b505050506040513d601f19601f82011682018060405250810190610e4791906127cb565b610e935760405162461bcd60e51b815260206004820181905260248201527f56454e44414f3a205472616e73616374696f6e20756e7375636365737366756c60448201526064016104df565b6040516370a0823160e01b815230600482015285906001600160a01b038616906370a0823190602401602060405180830381865afa158015610ed9573d6000803e3d6000fd5b505050506040513d601f19601f82011682018060405250810190610efd91906129e0565b1015610f4b5760405162461bcd60e51b815260206004820152601b60248201527f56454e44414f3a207a65726f2076616c7565207761732073656e74000000000060448201526064016104df565b60096040518061012001604052808981526020018362127500610f6e91906129f9565b64ffffffffff1681526001600160a01b038516602082015265ffffffffffff86166040820152600060608201526080016001815260208082018a9052604082018990526001600160a01b0388166060909201919091528254600181018455600093845292208151919260060201908190610fe890826128e4565b5060208201516001808301805460408601516060870151608088015160ff16600160f81b026001600160f81b0365ffffffffffff909216600160c81b02919091166001600160c81b036001600160a01b0390931665010000000000026001600160c81b031990941664ffffffffff909716969096179290921716939093179290921790915560a0830151600280840180549293909260ff1916918490811115611093576110936126de565b021790555060c0820151600382015560e0820151600482015561010090910151600590910180546001600160a01b0319166001600160a01b039092169190911790556110e28162093a806129f9565b6004601a6101000a81548164ffffffffff021916908364ffffffffff1602179055505050506111116001600055565b50505050565b600a818154811061112757600080fd5b906000526020600020906006020160009150905080600001805461114a90612803565b80601f016020809104026020016040519081016040528092919081815260200182805461117690612803565b80156111c35780601f10611198576101008083540402835291602001916111c3565b820191906000526020600020905b8154815290600101906020018083116111a657829003601f168201915b50505050600183015460028401546003850154600486015460059096015494956001600160a01b0380851696600160a01b860464ffffffffff169650600160c81b860465ffffffffffff1695600160f81b900460ff16949392911689565b600354604051632474521560e21b81527fdf8b4c520ffe197c5343c6f5aec59570151ef9a492f2c624fd45ddde6135ec4260048201523360248201526001600160a01b03909116906391d14854906044016020604051808303816000875af1158015611291573d6000803e3d6000fd5b505050506040513d601f19601f820116820180604052508101906112b591906127cb565b6112f85760405162461bcd60e51b81526020600482015260146024820152732b22a72220a79d102737ba1030b71030b236b4b760611b60448201526064016104df565b600480546001600160f81b0316600160f81b179055565b600b818154811061131f57600080fd5b906000526020600020906006020160009150905080600001805461134290612803565b80601f016020809104026020016040519081016040528092919081815260200182805461136e90612803565b80156113bb5780601f10611390576101008083540402835291602001916113bb565b820191906000526020600020905b81548152906001019060200180831161139e57829003601f168201915b50505060018401546002850154600386015460048701546005909701549596929591945092506001600160601b038216916001600160a01b03600160601b9091048116919081169060ff600160a01b9091041688565b611419612378565b60003390506000600b8365ffffffffffff168154811061143b5761143b6127ed565b90600052602060002090600602016040518061010001604052908160008201805461146590612803565b80601f016020809104026020016040519081016040528092919081815260200182805461149190612803565b80156114de5780601f106114b3576101008083540402835291602001916114de565b820191906000526020600020905b8154815290600101906020018083116114c157829003601f168201915b505050918352505060018201546020820152600282015460408201526003820154606082015260048201546001600160601b0381166080830152600160601b90046001600160a01b0390811660a08084019190915260059093015480821660c0840152600160a01b900460ff16151560e09092019190915290820151919250908116908316036116d8578060e00151156115ac5760405162461bcd60e51b815260206004820152600f60248201526e185b1c9958591e4818db185a5b5959608a1b60448201526064016104df565b6001600b8465ffffffffffff16815481106115c9576115c96127ed565b906000526020600020906006020160050160146101000a81548160ff021916908315150217905550600061161782602001518360400151846060015161161286602001516123d1565b6123fc565b50915050806006600082825461162d9190612a1e565b909155505060208201516040516000916001600160a01b038616918381818185875af1925050503d8060008114611680576040519150601f19603f3d011682016040523d82523d6000602084013e611685565b606091505b50509050806116d15760405162461bcd60e51b8152602060048201526018602482015277151c985b9cd858dd1a5bdb881d5b9cdd58d8d95cdcd99d5b60421b60448201526064016104df565b5050610a81565b6001600160a01b0382166000908152600760209081526040808320608085015165ffffffffffff168452825280832054918401519084015160608501519293928392611726929091866123fc565b6001600160a01b03888116600081815260076020908152604080832060808d015165ffffffffffff1684529091528082209190915560c08a0151905163a9059cbb60e01b8152600481019290925260248201869052949650919450929092169163a9059cbb91506044016020604051808303816000875af11580156117af573d6000803e3d6000fd5b505050506040513d601f19601f820116820180604052508101906117d391906127cb565b6117ef5760405162461bcd60e51b81526004016104df90612837565b6000856001600160a01b03168260405160006040518083038185875af1925050503d806000811461183c576040519150601f19603f3d011682016040523d82523d6000602084013e611841565b606091505b505090508061188d5760405162461bcd60e51b8152602060048201526018602482015277151c985b9cd858dd1a5bdb881d5b9cdd58d8d95cdcd99d5b60421b60448201526064016104df565b505050505050610a8e6001600055565b600354604051632474521560e21b81527fdf8b4c520ffe197c5343c6f5aec59570151ef9a492f2c624fd45ddde6135ec4260048201523360248201526001600160a01b03909116906391d14854906044016020604051808303816000875af115801561190d573d6000803e3d6000fd5b505050506040513d601f19601f8201168201806040525081019061193191906127cb565b61198a576040516331248db360e21b815260206004820152602360248201527f56454e44414f3a204f6e6c792061646d696e2063616e20616c746572206368616044820152626e676560e81b60648201526084016104df565b600480546001600160d01b0319166001600160d01b0392909216919091179055565b6119b4612378565b600354604051632474521560e21b8152600080516020612a5d83398151915260048201523360248201526001600160a01b03909116906391d14854906044016020604051808303816000875af1158015611a12573d6000803e3d6000fd5b505050506040513d601f19601f82011682018060405250810190611a3691906127cb565b611a74576040516331248db360e21b815260206004820152600e60248201526d4f6e6c7920496e766573746f727360901b60448201526064016104df565b60003490506000600a8365ffffffffffff1681548110611a9657611a966127ed565b906000526020600020906006020160405180610120016040529081600082018054611ac090612803565b80601f0160208091040260200160405190810160405280929190818152602001828054611aec90612803565b8015611b395780601f10611b0e57610100808354040283529160200191611b39565b820191906000526020600020905b815481529060010190602001808311611b1c57829003601f168201915b505050918352505060018201546001600160a01b038082166020840152600160a01b820464ffffffffff908116604080860191909152600160c81b840465ffffffffffff166060860152600160f81b90930460ff1615156080850152600285015460a0850152600385015460c0850152600485015460e08501526005909401541661010090920191909152820151919250164210611e48578060a001518160e001511115611d63576001600a8465ffffffffffff1681548110611bfe57611bfe6127ed565b600091825260208083206001600693840290910181018054951515600160f81b026001600160f81b03909616959095179094556040805161010081810183528751825260a0808901518386015260e0808a01519484019490945260c0808a01516060808601919091528a015165ffffffffffff166080850152948901516001600160a01b03908116918401919091529088015116928101929092528101839052600b8054948501815590925281519192027f0175b7a638427703f0dbe7bb9bbf987a2551717b34e79f33b5b1008d1fa01db901908190611cde90826128e4565b50602082015160018201556040820151600282015560608201516003820155608082015160a08301516001600160601b03909116600160601b6001600160a01b039283160217600483015560c08301516005909201805460e090940151929091166001600160a81b031990931692909217600160a01b91151591909102179055610a81565b6000600a8465ffffffffffff1681548110611d8057611d806127ed565b9060005260206000209060060201600301819055508061010001516001600160a01b031663a9059cbb82602001518360c001516040518363ffffffff1660e01b8152600401611de49291906001600160a01b03929092168252602082015260400190565b6020604051808303816000875af1158015611e03573d6000803e3d6000fd5b505050506040513d601f19601f82011682018060405250810190611e2791906127cb565b611e435760405162461bcd60e51b81526004016104df90612837565b610a81565b33600090815260076020908152604080832065ffffffffffff8716845290915281208054849290611e7a90849061287c565b9250508190555081600a8465ffffffffffff1681548110611e9d57611e9d6127ed565b90600052602060002090600602016004016000828254611ebd919061287c565b90915550505050610a8e6001600055565b60098181548110611ede57600080fd5b9060005260206000209060060201600091509050806000018054611f0190612803565b80601f0160208091040260200160405190810160405280929190818152602001828054611f2d90612803565b8015611f7a5780601f10611f4f57610100808354040283529160200191611f7a565b820191906000526020600020905b815481529060010190602001808311611f5d57829003601f168201915b5050506001840154600285015460038601546004870154600590970154959664ffffffffff8416966001600160a01b036501000000000086048116975065ffffffffffff600160c81b870416965060ff600160f81b90960486169594909416931689565b600080600a8365ffffffffffff1681548110611ffc57611ffc6127ed565b90600052602060002090600602016040518061012001604052908160008201805461202690612803565b80601f016020809104026020016040519081016040528092919081815260200182805461205290612803565b801561209f5780601f106120745761010080835404028352916020019161209f565b820191906000526020600020905b81548152906001019060200180831161208257829003601f168201915b505050918352505060018201546001600160a01b038082166020840152600160a01b820464ffffffffff908116604080860191909152600160c81b840465ffffffffffff166060860152600160f81b90930460ff1615156080850152600285015460a0850152600385015460c0850152600485015460e0850152600590940154166101009092019190915282015191925016421080159061214757508060a001518160e00151105b156121555750600192915050565b50600092915050565b50919050565b6001546001600160a01b031633146121ad5760405162461bcd60e51b815260206004820152600c60248201526b2737ba1030b71037bbb732b960a11b60448201526064016104df565b600280546001600160a01b03199081166001600160a01b03948516179091556003805482169290931691909117909155600180549091169055565b600454600090339034906001600160d01b031681101561225c57604051623290fb60e51b815260206004820152602960248201527f56454e44414f3a20666565206973206c657373207468616e207468652072657160448201526875697265642066656560b81b60648201526084016104df565b806006600082825461226e919061287c565b9091555050600354604051632f2ff15d60e01b8152600080516020612a5d83398151915260048201526001600160a01b03848116602483015290911690632f2ff15d90604401600060405180830381600087803b1580156122ce57600080fd5b505af11580156122e2573d6000803e3d6000fd5b505060025460405163207b7ad360e01b81526001600160a01b038681166004830152909116925063207b7ad391506024016020604051808303816000875af1158015612332573d6000803e3d6000fd5b505050506040513d601f19601f8201168201806040525081019061235691906129e0565b6001600160a01b03909216600090815260086020526040902082905550919050565b6002600054036123ca5760405162461bcd60e51b815260206004820152601f60248201527f5265656e7472616e637947756172643a207265656e7472616e742063616c6c0060448201526064016104df565b6002600055565b60008060646123e184600a612a31565b6123eb9190612a48565b905080600654106121555792915050565b600080808561240b8587612a31565b6124159190612a48565b9250856124228589612a31565b61242c9190612a48565b91506124388285612a1e565b90509450945094915050565b60006020828403121561245657600080fd5b813565ffffffffffff8116811461246c57600080fd5b9392505050565b634e487b7160e01b600052604160045260246000fd5b6001600160a01b0381168114610a8e57600080fd5b80356124a981612489565b919050565b600080600080608085870312156124c457600080fd5b843567ffffffffffffffff808211156124dc57600080fd5b818701915087601f8301126124f057600080fd5b81358181111561250257612502612473565b604051601f8201601f19908116603f0116810190838211818310171561252a5761252a612473565b816040528281528a602084870101111561254357600080fd5b82602086016020830137600060208483010152809850505050505060208501359250604085013591506125786060860161249e565b905092959194509250565b60006020828403121561259557600080fd5b5035919050565b6000815180845260005b818110156125c2576020818501810151868301820152016125a6565b506000602082860101526020601f19601f83011685010191505092915050565b60006101208083526125f68184018d61259c565b6001600160a01b039b8c16602085015264ffffffffff9a909a166040840152505065ffffffffffff969096166060870152931515608086015260a085019290925260c084015260e083015290921661010090920191909152919050565b60006101008083526126678184018c61259c565b602084019a909a525050604081019690965260608601949094526001600160601b039290921660808501526001600160a01b0390811660a08501521660c0830152151560e090910152919050565b6000602082840312156126c757600080fd5b81356001600160d01b038116811461246c57600080fd5b634e487b7160e01b600052602160045260246000fd5b60006101208083526127088184018d61259c565b64ffffffffff8c1660208501526001600160a01b038b16604085015265ffffffffffff8a16606085015260ff891660808501529150506003861061275c57634e487b7160e01b600052602160045260246000fd5b8560a08301528460c08301528360e08301526127846101008301846001600160a01b03169052565b9a9950505050505050505050565b600080604083850312156127a557600080fd5b82356127b081612489565b915060208301356127c081612489565b809150509250929050565b6000602082840312156127dd57600080fd5b8151801515811461246c57600080fd5b634e487b7160e01b600052603260045260246000fd5b600181811c9082168061281757607f821691505b60208210810361215e57634e487b7160e01b600052602260045260246000fd5b602080825260159082015274151c985b9cd9995c881d5b9cdd58d8d95cdcd99d5b605a1b604082015260600190565b634e487b7160e01b600052601160045260246000fd5b8082018082111561288f5761288f612866565b92915050565b601f8211156128df57600081815260208120601f850160051c810160208610156128bc5750805b601f850160051c820191505b818110156128db578281556001016128c8565b5050505b505050565b815167ffffffffffffffff8111156128fe576128fe612473565b6129128161290c8454612803565b84612895565b602080601f831160018114612947576000841561292f5750858301515b600019600386901b1c1916600185901b1785556128db565b600085815260208120601f198616915b8281101561297657888601518255948401946001909101908401612957565b50858210156129945787850151600019600388901b60f8161c191681555b5050505050600190811b01905550565b634e487b7160e01b600052601260045260246000fd5b60006001600160d01b03838116806129d4576129d46129a4565b92169190910492915050565b6000602082840312156129f257600080fd5b5051919050565b64ffffffffff818116838216019080821115612a1757612a17612866565b5092915050565b8181038181111561288f5761288f612866565b808202811582820484141761288f5761288f612866565b600082612a5757612a576129a4565b50049056fe5614e11ca6d7673c9c8dcec913465d676494aad1151bb2c1cf40b9d99be4d935a2646970667358221220b9ddf40f1923f10668e6eaa83d14b427e40b65f173771ab379fa8f66da3ec92264736f6c63430008140033",
    "linkReferences": {}
  },
  "methodIdentifiers": {
    "ADMIN()": "2a0acc6a",
    "INVESTOR()": "68e3d6f7",
    "NOMINATED_ADMINS()": "0b68af0f",
    "VenAccessControl()": "4ced5a08",
    "VenAccessTicket()": "bd28cac9",
    "claim(uint48)": "81242403",
    "examineProject(uint48)": "0142476a",
    "init(address,address)": "f09a4016",
    "invest(uint48)": "d011f216",
    "joinDAO()": "f63d13d7",
    "leaveDAO()": "1de7df41",
    "pauseProposal()": "6658cc76",
    "projectFunded(uint256)": "79585aa8",
    "projectNotSuccessful(uint48)": "e091eaf6",
    "projectProposals(uint256)": "dbc1d569",
    "proposalTime()": "184a0ae9",
    "proposalsToInvest(uint256)": "637f8af5",
    "proposeProject(string,uint256,uint256,address)": "38d698bf",
    "setAcceptanceFee(uint208)": "a5113487"
  },
  "id": 4
}