{
  "abi": [
    {
      "inputs": [],
      "stateMutability": "nonpayable",
      "type": "constructor"
    },
    {
      "inputs": [
        {
          "internalType": "string",
          "name": "",
          "type": "string"
        }
      ],
      "name": "_paused",
      "type": "error"
    },
    {
      "inputs": [
        {
          "internalType": "string",
          "name": "",
          "type": "string"
        }
      ],
      "name": "approved",
      "type": "error"
    },
    {
      "inputs": [
        {
          "internalType": "string",
          "name": "",
          "type": "string"
        }
      ],
      "name": "lowerThanFee",
      "type": "error"
    },
    {
      "inputs": [
        {
          "internalType": "string",
          "name": "",
          "type": "string"
        }
      ],
      "name": "notAdmin",
      "type": "error"
    },
    {
      "anonymous": false,
      "inputs": [
        {
          "indexed": false,
          "internalType": "uint128",
          "name": "",
          "type": "uint128"
        },
        {
          "indexed": false,
          "internalType": "uint128",
          "name": "",
          "type": "uint128"
        }
      ],
      "name": "_changeAcceptance",
      "type": "event"
    },
    {
      "anonymous": false,
      "inputs": [
        {
          "indexed": false,
          "internalType": "address",
          "name": "",
          "type": "address"
        },
        {
          "indexed": false,
          "internalType": "address",
          "name": "",
          "type": "address"
        }
      ],
      "name": "_changeDex",
      "type": "event"
    },
    {
      "anonymous": false,
      "inputs": [
        {
          "indexed": false,
          "internalType": "address",
          "name": "",
          "type": "address"
        },
        {
          "indexed": false,
          "internalType": "uint256",
          "name": "",
          "type": "uint256"
        }
      ],
      "name": "_joinDao",
      "type": "event"
    },
    {
      "anonymous": false,
      "inputs": [
        {
          "indexed": false,
          "internalType": "address",
          "name": "",
          "type": "address"
        }
      ],
      "name": "_leaveDao",
      "type": "event"
    },
    {
      "anonymous": false,
      "inputs": [
        {
          "indexed": false,
          "internalType": "uint40",
          "name": "",
          "type": "uint40"
        },
        {
          "indexed": false,
          "internalType": "uint40",
          "name": "",
          "type": "uint40"
        }
      ],
      "name": "changeValidityTime",
      "type": "event"
    },
    {
      "stateMutability": "payable",
      "type": "fallback"
    },
    {
      "inputs": [],
      "name": "ADMIN",
      "outputs": [
        {
          "internalType": "bytes32",
          "name": "",
          "type": "bytes32"
        }
      ],
      "stateMutability": "view",
      "type": "function"
    },
    {
      "inputs": [],
      "name": "FTM_PRICE_FEED",
      "outputs": [
        {
          "internalType": "contract AggregatorV3Interface",
          "name": "",
          "type": "address"
        }
      ],
      "stateMutability": "view",
      "type": "function"
    },
    {
      "inputs": [],
      "name": "INVESTOR",
      "outputs": [
        {
          "internalType": "bytes32",
          "name": "",
          "type": "bytes32"
        }
      ],
      "stateMutability": "view",
      "type": "function"
    },
    {
      "inputs": [],
      "name": "NOMINATED_ADMINS",
      "outputs": [
        {
          "internalType": "bytes32",
          "name": "",
          "type": "bytes32"
        }
      ],
      "stateMutability": "view",
      "type": "function"
    },
    {
      "inputs": [],
      "name": "VenAccessControl",
      "outputs": [
        {
          "internalType": "contract IVenAccessControl",
          "name": "",
          "type": "address"
        }
      ],
      "stateMutability": "view",
      "type": "function"
    },
    {
      "inputs": [],
      "name": "VenAccessTicket",
      "outputs": [
        {
          "internalType": "contract IVenAccessTicket",
          "name": "",
          "type": "address"
        }
      ],
      "stateMutability": "view",
      "type": "function"
    },
    {
      "inputs": [
        {
          "internalType": "contract ISpookySwap",
          "name": "_spookyswap",
          "type": "address"
        }
      ],
      "name": "changeDex",
      "outputs": [],
      "stateMutability": "nonpayable",
      "type": "function"
    },
    {
      "inputs": [
        {
          "internalType": "uint48",
          "name": "_proposalId",
          "type": "uint48"
        }
      ],
      "name": "claim",
      "outputs": [],
      "stateMutability": "nonpayable",
      "type": "function"
    },
    {
      "inputs": [
        {
          "internalType": "uint48",
          "name": "_proposalId",
          "type": "uint48"
        }
      ],
      "name": "examineProject",
      "outputs": [],
      "stateMutability": "nonpayable",
      "type": "function"
    },
    {
      "inputs": [],
      "name": "ftmBalance",
      "outputs": [
        {
          "internalType": "uint256",
          "name": "",
          "type": "uint256"
        }
      ],
      "stateMutability": "view",
      "type": "function"
    },
    {
      "inputs": [
        {
          "internalType": "contract IVenAccessTicket",
          "name": "_accessTicket",
          "type": "address"
        },
        {
          "internalType": "contract IVenAccessControl",
          "name": "_accessControl",
          "type": "address"
        },
        {
          "internalType": "contract ISpookySwap",
          "name": "_spookyswap",
          "type": "address"
        }
      ],
      "name": "init",
      "outputs": [],
      "stateMutability": "nonpayable",
      "type": "function"
    },
    {
      "inputs": [
        {
          "internalType": "uint48",
          "name": "_proposalId",
          "type": "uint48"
        }
      ],
      "name": "invest",
      "outputs": [],
      "stateMutability": "payable",
      "type": "function"
    },
    {
      "inputs": [],
      "name": "investTime",
      "outputs": [
        {
          "internalType": "uint40",
          "name": "",
          "type": "uint40"
        }
      ],
      "stateMutability": "view",
      "type": "function"
    },
    {
      "inputs": [],
      "name": "joinDAO",
      "outputs": [
        {
          "internalType": "uint256",
          "name": "_newTokenId",
          "type": "uint256"
        }
      ],
      "stateMutability": "payable",
      "type": "function"
    },
    {
      "inputs": [],
      "name": "leaveDAO",
      "outputs": [],
      "stateMutability": "payable",
      "type": "function"
    },
    {
      "inputs": [],
      "name": "pauseProposal",
      "outputs": [],
      "stateMutability": "nonpayable",
      "type": "function"
    },
    {
      "inputs": [
        {
          "internalType": "uint256",
          "name": "",
          "type": "uint256"
        }
      ],
      "name": "projectFunded",
      "outputs": [
        {
          "internalType": "string",
          "name": "url",
          "type": "string"
        },
        {
          "internalType": "uint256",
          "name": "fundingRequest",
          "type": "uint256"
        },
        {
          "internalType": "uint256",
          "name": "amountFunded",
          "type": "uint256"
        },
        {
          "internalType": "uint256",
          "name": "equityOffering",
          "type": "uint256"
        },
        {
          "internalType": "uint96",
          "name": "investorsTag",
          "type": "uint96"
        },
        {
          "internalType": "address",
          "name": "proposalCreator",
          "type": "address"
        },
        {
          "internalType": "contract IERC20",
          "name": "_tokenCA",
          "type": "address"
        },
        {
          "internalType": "bool",
          "name": "claimed",
          "type": "bool"
        }
      ],
      "stateMutability": "view",
      "type": "function"
    },
    {
      "inputs": [
        {
          "internalType": "uint48",
          "name": "_proposalId",
          "type": "uint48"
        }
      ],
      "name": "projectNotSuccessful",
      "outputs": [
        {
          "internalType": "bool",
          "name": "",
          "type": "bool"
        }
      ],
      "stateMutability": "view",
      "type": "function"
    },
    {
      "inputs": [
        {
          "internalType": "uint256",
          "name": "",
          "type": "uint256"
        }
      ],
      "name": "projectProposals",
      "outputs": [
        {
          "internalType": "string",
          "name": "urlToStorage",
          "type": "string"
        },
        {
          "internalType": "uint40",
          "name": "proposalValidity",
          "type": "uint40"
        },
        {
          "internalType": "address",
          "name": "proposalCreator",
          "type": "address"
        },
        {
          "internalType": "uint48",
          "name": "proposalId",
          "type": "uint48"
        },
        {
          "internalType": "uint8",
          "name": "approvalCount",
          "type": "uint8"
        },
        {
          "internalType": "enum Vendao.Status",
          "name": "status",
          "type": "uint8"
        },
        {
          "internalType": "uint256",
          "name": "fundingRequest",
          "type": "uint256"
        },
        {
          "internalType": "uint256",
          "name": "equityOffering",
          "type": "uint256"
        },
        {
          "internalType": "contract IERC20",
          "name": "tokenCA",
          "type": "address"
        }
      ],
      "stateMutability": "view",
      "type": "function"
    },
    {
      "inputs": [],
      "name": "proposalTime",
      "outputs": [
        {
          "internalType": "uint40",
          "name": "",
          "type": "uint40"
        }
      ],
      "stateMutability": "view",
      "type": "function"
    },
    {
      "inputs": [
        {
          "internalType": "uint256",
          "name": "",
          "type": "uint256"
        }
      ],
      "name": "proposalsToInvest",
      "outputs": [
        {
          "internalType": "string",
          "name": "url",
          "type": "string"
        },
        {
          "internalType": "address",
          "name": "proposalCreator",
          "type": "address"
        },
        {
          "internalType": "uint40",
          "name": "investPeriod",
          "type": "uint40"
        },
        {
          "internalType": "uint48",
          "name": "investId",
          "type": "uint48"
        },
        {
          "internalType": "bool",
          "name": "funded",
          "type": "bool"
        },
        {
          "internalType": "uint256",
          "name": "fundingRequest",
          "type": "uint256"
        },
        {
          "internalType": "uint256",
          "name": "equityOffering",
          "type": "uint256"
        },
        {
          "internalType": "uint256",
          "name": "amountFunded",
          "type": "uint256"
        },
        {
          "internalType": "contract IERC20",
          "name": "_tokenCA",
          "type": "address"
        }
      ],
      "stateMutability": "view",
      "type": "function"
    },
    {
      "inputs": [
        {
          "internalType": "string",
          "name": "_urlToStore",
          "type": "string"
        },
        {
          "internalType": "uint256",
          "name": "_fundingRequest",
          "type": "uint256"
        },
        {
          "internalType": "uint256",
          "name": "_equityOffering",
          "type": "uint256"
        },
        {
          "internalType": "contract IERC20",
          "name": "_contractAddress",
          "type": "address"
        }
      ],
      "name": "proposeProject",
      "outputs": [],
      "stateMutability": "nonpayable",
      "type": "function"
    },
    {
      "inputs": [
        {
          "internalType": "uint128",
          "name": "_acceptance",
          "type": "uint128"
        }
      ],
      "name": "setAcceptanceFee",
      "outputs": [],
      "stateMutability": "nonpayable",
      "type": "function"
    },
    {
      "inputs": [
        {
          "internalType": "uint40",
          "name": "_newTime",
          "type": "uint40"
        }
      ],
      "name": "setValTime",
      "outputs": [],
      "stateMutability": "nonpayable",
      "type": "function"
    },
    {
      "inputs": [],
      "name": "spookySwap",
      "outputs": [
        {
          "internalType": "contract ISpookySwap",
          "name": "",
          "type": "address"
        }
      ],
      "stateMutability": "view",
      "type": "function"
    },
    {
      "inputs": [
        {
          "internalType": "contract IERC20",
          "name": "_token",
          "type": "address"
        },
        {
          "internalType": "uint256",
          "name": "_amount",
          "type": "uint256"
        },
        {
          "internalType": "contract AggregatorV3Interface",
          "name": "_dataFeed",
          "type": "address"
        },
        {
          "internalType": "uint256",
          "name": "_amountOutMin",
          "type": "uint256"
        }
      ],
      "name": "takeProfitInFTM",
      "outputs": [],
      "stateMutability": "nonpayable",
      "type": "function"
    },
    {
      "inputs": [
        {
          "internalType": "contract IERC20",
          "name": "_token",
          "type": "address"
        },
        {
          "internalType": "contract IERC20",
          "name": "_stable",
          "type": "address"
        },
        {
          "internalType": "uint256",
          "name": "_amount",
          "type": "uint256"
        },
        {
          "internalType": "contract AggregatorV3Interface",
          "name": "_dataFeed",
          "type": "address"
        },
        {
          "internalType": "uint256",
          "name": "_amountOutMin",
          "type": "uint256"
        }
      ],
      "name": "takeProfitInStable",
      "outputs": [],
      "stateMutability": "nonpayable",
      "type": "function"
    },
    {
      "inputs": [
        {
          "internalType": "contract IERC20",
          "name": "_tokenAddress",
          "type": "address"
        }
      ],
      "name": "tokenBalance",
      "outputs": [
        {
          "internalType": "uint256",
          "name": "",
          "type": "uint256"
        }
      ],
      "stateMutability": "view",
      "type": "function"
    },
    {
      "inputs": [],
      "name": "validityTime",
      "outputs": [
        {
          "internalType": "uint40",
          "name": "",
          "type": "uint40"
        }
      ],
      "stateMutability": "view",
      "type": "function"
    },
    {
      "stateMutability": "payable",
      "type": "receive"
    }
  ],
  "bytecode": {
    "object": "0x608060405262000013426224ea0062000096565b6006805464ffffffffff92909216600160a81b0264ffffffffff60a81b1990921691909117905562000049426212750062000096565b6006601a6101000a81548164ffffffffff021916908364ffffffffff1602179055503480156200007857600080fd5b506001600081905580546001600160a01b03191633179055620000be565b80820180821115620000b857634e487b7160e01b600052601160045260246000fd5b92915050565b613a6b80620000ce6000396000f3fe6080604052600436106101ae5760003560e01c806368e3d6f7116100eb578063b38401321161008f578063dbc1d56911610061578063dbc1d5691461052d578063e091eaf614610562578063eedc966a14610592578063f63d13d7146105b257005b8063b3840132146104ba578063bd28cac9146104da578063d011f216146104fa578063d96b427c1461050d57005b80637c71e119116100c85780637c71e1191461043a578063803d3b3e1461045a578063812424031461047a5780639e8748bb1461049a57005b806368e3d6f7146103c457806369d2da9c146103e657806379585aa81461040657005b80632a0acc6a11610152578063505cfaab1161012f578063505cfaab14610345578063637f8af51461035a5780636658cc761461038f5780636765e074146103a457005b80632a0acc6a146102cb57806338d698bf146102ed5780634ced5a081461030d57005b8063159387891161018b5780631593878914610259578063184a0ae91461027e578063184b9559146102a35780631de7df41146102c357005b80630142476a146101b7578063042bea85146101d75780630b68af0f1461021757005b366101b557005b005b3480156101c357600080fd5b506101b56101d23660046131de565b6105ba565b3480156101e357600080fd5b506006546101fc90600160a81b900464ffffffffff1681565b60405164ffffffffff90911681526020015b60405180910390f35b34801561022357600080fd5b5061024b7f805825d85bde9bb3e5b217a4d2768db01dd95dca2e6b6cdd1e108fb2c1a45cd981565b60405190815260200161020e565b34801561026557600080fd5b506006546101fc90600160d01b900464ffffffffff1681565b34801561028a57600080fd5b506006546101fc90600160801b900464ffffffffff1681565b3480156102af57600080fd5b506101b56102be366004613222565b610ce1565b6101b5610d72565b3480156102d757600080fd5b5061024b600080516020613a1683398151915281565b3480156102f957600080fd5b506101b5610308366004613293565b61102b565b34801561031957600080fd5b5060035461032d906001600160a01b031681565b6040516001600160a01b03909116815260200161020e565b34801561035157600080fd5b5060085461024b565b34801561036657600080fd5b5061037a610375366004613368565b6114dd565b60405161020e999897969594939291906133c7565b34801561039b57600080fd5b506101b56115e7565b3480156103b057600080fd5b506101b56103bf366004613438565b6116c3565b3480156103d057600080fd5b5061024b6000805160206139f683398151915281565b3480156103f257600080fd5b506101b5610401366004613461565b6117d2565b34801561041257600080fd5b50610426610421366004613368565b6118d2565b60405161020e98979695949392919061347e565b34801561044657600080fd5b5060045461032d906001600160a01b031681565b34801561046657600080fd5b5060055461032d906001600160a01b031681565b34801561048657600080fd5b506101b56104953660046131de565b6119d4565b3480156104a657600080fd5b506101b56104b53660046134e0565b611e88565b3480156104c657600080fd5b506101b56104d5366004613528565b61224f565b3480156104e657600080fd5b5060025461032d906001600160a01b031681565b6101b56105083660046131de565b612653565b34801561051957600080fd5b506101b5610528366004613583565b612b11565b34801561053957600080fd5b5061054d610548366004613368565b612c27565b60405161020e999897969594939291906135c0565b34801561056e57600080fd5b5061058261057d3660046131de565b612d37565b604051901515815260200161020e565b34801561059e57600080fd5b5061024b6105ad366004613461565b612ebd565b61024b612f2e565b6105c26130f8565b600354604051632474521560e21b81527f805825d85bde9bb3e5b217a4d2768db01dd95dca2e6b6cdd1e108fb2c1a45cd960048201523360248201819052916001600160a01b0316906391d14854906044016020604051808303816000875af1158015610633573d6000803e3d6000fd5b505050506040513d601f19601f82011682018060405250810190610657919061365e565b6106b8576040516331248db360e21b815260206004820152602660248201527f4f6e6c79206e6f6d696e617465642061646d696e732063616e20616c746572206044820152656368616e676560d01b60648201526084015b60405180910390fd5b6000600b8365ffffffffffff16815481106106d5576106d5613680565b9060005260206000209060060201604051806101200160405290816000820180546106ff90613696565b80601f016020809104026020016040519081016040528092919081815260200182805461072b90613696565b80156107785780601f1061074d57610100808354040283529160200191610778565b820191906000526020600020905b81548152906001019060200180831161075b57829003601f168201915b5050509183525050600182015464ffffffffff811660208301526001600160a01b0365010000000000820416604083015265ffffffffffff600160c81b820416606083015260ff600160f81b9091048116608083015260028084015460a090930192909116908111156107ed576107ed6135aa565b60028111156107fe576107fe6135aa565b8152600382015460208083019190915260048301546040808401919091526005909301546001600160a01b0390811660609093019290925290851660009081526007825282812065ffffffffffff88168252909152205490915060ff16156108a85760405162461bcd60e51b815260206004820152601960248201527f4e4f4d494e45453a20417070726f76656420616c72656164790000000000000060448201526064016106af565b60008160a0015160028111156108c0576108c06135aa565b0361091857604051637d19175960e11b815260206004820152602160248201527f56454e44414f3a2050726f6a6563742070726f706f73616c20617070726f76656044820152601960fa1b60648201526084016106af565b806020015164ffffffffff1642118015610947575060018160a001516002811115610945576109456135aa565b145b15610a6f576002600b8465ffffffffffff168154811061096957610969613680565b906000526020600020906006020160020160006101000a81548160ff0219169083600281111561099b5761099b6135aa565b021790555061010081015160408083015160e0840151915163a9059cbb60e01b81526001600160a01b03918216600482015260248101929092529091169063a9059cbb906044015b6020604051808303816000875af1158015610a02573d6000803e3d6000fd5b505050506040513d601f19601f82011682018060405250810190610a26919061365e565b610a6a5760405162461bcd60e51b8152602060048201526015602482015274151c985b9cd9995c881d5b9cdd58d8d95cdcd99d5b605a1b60448201526064016106af565b610cd2565b6000600b8465ffffffffffff1681548110610a8c57610a8c613680565b9060005260206000209060060201600101601f9054906101000a900460ff169050610aba8260c00151613151565b6001600160a01b038416600090815260096020908152604080832065ffffffffffff8916845290915281208054909190610af59084906136e0565b9091555050600360ff82161115610cd0576000600b8565ffffffffffff1681548110610b2357610b23613680565b906000526020600020906006020160020160006101000a81548160ff02191690836002811115610b5557610b556135aa565b0217905550600c8054604080516101208101825285518152858201516001600160a01b03166020820152600654600160d01b900464ffffffffff169181019190915265ffffffffffff821660608201526000608082015260c0808601805160a084015260e080880151928401929092525192939290820190610bd69061316b565b81526101008601516001600160a01b03166020918201528254600181018455600093845292208151919260060201908190610c119082613742565b5060208201516001820180546040850151606086015160808701511515600160f81b026001600160f81b0365ffffffffffff909216600160c81b02919091166001600160c81b0364ffffffffff909316600160a01b026001600160c81b03199094166001600160a01b039687161793909317919091169190911717905560a0830151600283015560c0830151600383015560e083015160048301556101009092015160059091018054919092166001600160a01b031991909116179055505b505b5050610cde6001600055565b50565b6001546001600160a01b03163314610d2a5760405162461bcd60e51b815260206004820152600c60248201526b2737ba1030b71037bbb732b960a11b60448201526064016106af565b600280546001600160a01b03199081166001600160a01b0395861617909155600380548216938516939093179092556004805483169190931617909155600180549091169055565b600354604051632474521560e21b81526000805160206139f683398151915260048201523360248201819052916001600160a01b0316906391d14854906044016020604051808303816000875af1158015610dd1573d6000803e3d6000fd5b505050506040513d601f19601f82011682018060405250810190610df5919061365e565b610e415760405162461bcd60e51b815260206004820152601760248201527f56454e44414f3a204e6f7420616e20696e766573746f7200000000000000000060448201526064016106af565b60035460405163d547741f60e01b81526000805160206139f683398151915260048201526001600160a01b0383811660248301529091169063d547741f90604401600060405180830381600087803b158015610e9c57600080fd5b505af1158015610eb0573d6000803e3d6000fd5b50506002546001600160a01b038481166000908152600a60205260409081902054905163ece2230d60e01b815260048101919091529116925063ece2230d9150602401600060405180830381600087803b158015610f0d57600080fd5b505af1158015610f21573d6000803e3d6000fd5b5050600654600092506001600160a01b0384169150610f4b906002906001600160801b0316613818565b6001600160801b031660405160006040518083038185875af1925050503d8060008114610f94576040519150601f19603f3d011682016040523d82523d6000602084013e610f99565b606091505b5050905080610fea5760405162461bcd60e51b815260206004820152601860248201527f5472616e73616374696f6e20556e7375636365737366756c000000000000000060448201526064016106af565b6040516001600160a01b03831681527f26842786d031382394421b2ac8d84e83caa1ee909c28f453baeb0c617fc8bfce906020015b60405180910390a15050565b6110336130f8565b600b546006543390429064ffffffffff600160801b9091048116908216116110915760405162461bcd60e51b8152602060048201526011602482015270283937b837b9b0b6103737ba1037b832b760791b60448201526064016106af565b600654600160f81b900460ff16156110ec5760405163d8df3d3d60e01b815260206004820152601760248201527f50726f6a6563742070726f706f73616c2070617573656400000000000000000060448201526064016106af565b6040516323b872dd60e01b81526001600160a01b038381166004830152306024830152604482018790528516906323b872dd906064016020604051808303816000875af1158015611141573d6000803e3d6000fd5b505050506040513d601f19601f82011682018060405250810190611165919061365e565b6111b15760405162461bcd60e51b815260206004820181905260248201527f56454e44414f3a205472616e73616374696f6e20756e7375636365737366756c60448201526064016106af565b6040516370a0823160e01b815230600482015285906001600160a01b038616906370a0823190602401602060405180830381865afa1580156111f7573d6000803e3d6000fd5b505050506040513d601f19601f8201168201806040525081019061121b919061383e565b10156112695760405162461bcd60e51b815260206004820152601b60248201527f56454e44414f3a207a65726f2076616c7565207761732073656e74000000000060448201526064016106af565b60055460408051633fabe5a360e21b815290516000926001600160a01b03169163feaf968c9160048083019260a09291908290030181865afa1580156112b3573d6000803e3d6000fd5b505050506040513d601f19601f820116820180604052508101906112d79190613871565b505050915050600081886305f5e1006112f091906138c1565b6112fa91906138d8565b60408051610120810182528b81526006805464ffffffffff600160a81b9091041660208301526001600160a01b038881169383019390935265ffffffffffff89166060830152600060808301819052600160a0840181905260c0840186905260e084018d9052938b16610100840152600b8054948501815590528151939450909291027f0175b7a638427703f0dbe7bb9bbf987a2551717b34e79f33b5b1008d1fa01db9019081906113ac9082613742565b5060208201516001808301805460408601516060870151608088015160ff16600160f81b026001600160f81b0365ffffffffffff909216600160c81b02919091166001600160c81b036001600160a01b0390931665010000000000026001600160c81b031990941664ffffffffff909716969096179290921716939093179290921790915560a0830151600280840180549293909260ff1916918490811115611457576114576135aa565b021790555060c0820151600382015560e0820151600482015561010090910151600590910180546001600160a01b0319166001600160a01b039092169190911790556114a68362093a806138ec565b600660106101000a81548164ffffffffff021916908364ffffffffff16021790555050505050506114d76001600055565b50505050565b600c81815481106114ed57600080fd5b906000526020600020906006020160009150905080600001805461151090613696565b80601f016020809104026020016040519081016040528092919081815260200182805461153c90613696565b80156115895780601f1061155e57610100808354040283529160200191611589565b820191906000526020600020905b81548152906001019060200180831161156c57829003601f168201915b50505050600183015460028401546003850154600486015460059096015494956001600160a01b0380851696600160a01b860464ffffffffff169650600160c81b860465ffffffffffff1695600160f81b900460ff16949392911689565b600354604051632474521560e21b8152600080516020613a1683398151915260048201523360248201526001600160a01b03909116906391d14854906044016020604051808303816000875af1158015611645573d6000803e3d6000fd5b505050506040513d601f19601f82011682018060405250810190611669919061365e565b6116ac5760405162461bcd60e51b81526020600482015260146024820152732b22a72220a79d102737ba1030b71030b236b4b760611b60448201526064016106af565b600680546001600160f81b0316600160f81b179055565b600654600354604051632474521560e21b8152600080516020613a1683398151915260048201523360248201526001600160801b03909216916001600160a01b03909116906391d14854906044016020604051808303816000875af1158015611730573d6000803e3d6000fd5b505050506040513d601f19601f82011682018060405250810190611754919061365e565b611771576040516331248db360e21b81526004016106af90613911565b600680546fffffffffffffffffffffffffffffffff19166001600160801b0384811691821790925560408051928416835260208301919091527f1a00ffbf809fff37e16cae3ef72eff8b8199479b0d75443768bdee2e6f409293910161101f565b60048054600354604051632474521560e21b8152600080516020613a16833981519152938101939093523360248401526001600160a01b03918216929116906391d14854906044016020604051808303816000875af1158015611839573d6000803e3d6000fd5b505050506040513d601f19601f8201168201806040525081019061185d919061365e565b61187a576040516331248db360e21b81526004016106af90613911565b600480546001600160a01b0319166001600160a01b0384811691821790925560408051928416835260208301919091527f1bf39e1213c8b4476e4bee359d2e88eceecb60c466ebf2215056d599b8a48a6b910161101f565b600d81815481106118e257600080fd5b906000526020600020906006020160009150905080600001805461190590613696565b80601f016020809104026020016040519081016040528092919081815260200182805461193190613696565b801561197e5780601f106119535761010080835404028352916020019161197e565b820191906000526020600020905b81548152906001019060200180831161196157829003601f168201915b50505060018401546002850154600386015460048701546005909701549596929591945092506001600160601b038216916001600160a01b03600160601b9091048116919081169060ff600160a01b9091041688565b6119dc6130f8565b60003390506000600d8365ffffffffffff16815481106119fe576119fe613680565b906000526020600020906006020160405180610100016040529081600082018054611a2890613696565b80601f0160208091040260200160405190810160405280929190818152602001828054611a5490613696565b8015611aa15780601f10611a7657610100808354040283529160200191611aa1565b820191906000526020600020905b815481529060010190602001808311611a8457829003601f168201915b505050918352505060018201546020820152600282015460408201526003820154606082015260048201546001600160601b0381166080830152600160601b90046001600160a01b0390811660a08084019190915260059093015480821660c0840152600160a01b900460ff16151560e0909201919091529082015191925090811690831603611c9b578060e0015115611b6f5760405162461bcd60e51b815260206004820152600f60248201526e185b1c9958591e4818db185a5b5959608a1b60448201526064016106af565b6001600d8465ffffffffffff1681548110611b8c57611b8c613680565b906000526020600020906006020160050160146101000a81548160ff0219169083151502179055506000611bda826020015183604001518460600151611bd5866020015161316b565b613196565b509150508060086000828254611bf09190613954565b909155505060208201516040516000916001600160a01b038616918381818185875af1925050503d8060008114611c43576040519150601f19603f3d011682016040523d82523d6000602084013e611c48565b606091505b5050905080611c945760405162461bcd60e51b8152602060048201526018602482015277151c985b9cd858dd1a5bdb881d5b9cdd58d8d95cdcd99d5b60421b60448201526064016106af565b5050610cd2565b6001600160a01b0382166000908152600960209081526040808320608085015165ffffffffffff168452825280832054918401519084015160608501519293928392611ce992909186613196565b6001600160a01b03888116600081815260096020908152604080832060808d015165ffffffffffff1684529091528082209190915560c08a0151905163a9059cbb60e01b8152600481019290925260248201869052949650919450929092169163a9059cbb91506044016020604051808303816000875af1158015611d72573d6000803e3d6000fd5b505050506040513d601f19601f82011682018060405250810190611d96919061365e565b611dda5760405162461bcd60e51b8152602060048201526015602482015274151c985b9cd9995c881d5b9cdd58d8d95cdcd99d5b605a1b60448201526064016106af565b6000856001600160a01b03168260405160006040518083038185875af1925050503d8060008114611e27576040519150601f19603f3d011682016040523d82523d6000602084013e611e2c565b606091505b5050905080611e785760405162461bcd60e51b8152602060048201526018602482015277151c985b9cd858dd1a5bdb881d5b9cdd58d8d95cdcd99d5b60421b60448201526064016106af565b505050505050610cde6001600055565b611e906130f8565b600354604051632474521560e21b8152600080516020613a1683398151915260048201523360248201526001600160a01b03909116906391d14854906044016020604051808303816000875af1158015611eee573d6000803e3d6000fd5b505050506040513d601f19601f82011682018060405250810190611f12919061365e565b611f2f576040516331248db360e21b81526004016106af90613911565b6004805460405163095ea7b360e01b81526001600160a01b03918216928101929092526024820185905285169063095ea7b3906044016020604051808303816000875af1158015611f84573d6000803e3d6000fd5b505050506040513d601f19601f82011682018060405250810190611fa8919061365e565b611fe55760405162461bcd60e51b815260206004820152600e60248201526d185c1c1c9bdd994819985a5b195960921b60448201526064016106af565b604080516002808252606082018352600092602083019080368337019050509050848160008151811061201a5761201a613680565b60200260200101906001600160a01b031690816001600160a01b031681525050600460009054906101000a90046001600160a01b03166001600160a01b031663ad5c46486040518163ffffffff1660e01b81526004016020604051808303816000875af115801561208f573d6000803e3d6000fd5b505050506040513d601f19601f820116820180604052508101906120b39190613967565b816001815181106120c6576120c6613680565b60200260200101906001600160a01b031690816001600160a01b0316815250506000836001600160a01b031663feaf968c6040518163ffffffff1660e01b815260040160a060405180830381865afa158015612126573d6000803e3d6000fd5b505050506040513d601f19601f8201168201806040525081019061214a9190613871565b50505091505060008113156121d0576004546001600160a01b03166318cbafe5868385306121794260146136e0565b6040518663ffffffff1660e01b8152600401612199959493929190613984565b600060405180830381600087803b1580156121b357600080fd5b505af11580156121c7573d6000803e3d6000fd5b50505050612243565b6004546001600160a01b03166318cbafe5868585306121f04260146136e0565b6040518663ffffffff1660e01b8152600401612210959493929190613984565b600060405180830381600087803b15801561222a57600080fd5b505af115801561223e573d6000803e3d6000fd5b505050505b50506114d76001600055565b6122576130f8565b600354604051632474521560e21b8152600080516020613a1683398151915260048201523360248201526001600160a01b03909116906391d14854906044016020604051808303816000875af11580156122b5573d6000803e3d6000fd5b505050506040513d601f19601f820116820180604052508101906122d9919061365e565b6122f6576040516331248db360e21b81526004016106af90613911565b6004805460405163095ea7b360e01b81526001600160a01b03918216928101929092526024820185905286169063095ea7b3906044016020604051808303816000875af115801561234b573d6000803e3d6000fd5b505050506040513d601f19601f8201168201806040525081019061236f919061365e565b6123ac5760405162461bcd60e51b815260206004820152600e60248201526d185c1c1c9bdd994819985a5b195960921b60448201526064016106af565b604080516003808252608082019092526000916020820160608036833701905050905085816000815181106123e3576123e3613680565b60200260200101906001600160a01b031690816001600160a01b031681525050600460009054906101000a90046001600160a01b03166001600160a01b031663ad5c46486040518163ffffffff1660e01b81526004016020604051808303816000875af1158015612458573d6000803e3d6000fd5b505050506040513d601f19601f8201168201806040525081019061247c9190613967565b8160018151811061248f5761248f613680565b60200260200101906001600160a01b031690816001600160a01b03168152505084816002815181106124c3576124c3613680565b60200260200101906001600160a01b031690816001600160a01b0316815250506000836001600160a01b031663feaf968c6040518163ffffffff1660e01b815260040160a060405180830381865afa158015612523573d6000803e3d6000fd5b505050506040513d601f19601f820116820180604052508101906125479190613871565b50505091505060008113156125cd576004546001600160a01b03166338ed1739868385306125764260146136e0565b6040518663ffffffff1660e01b8152600401612596959493929190613984565b600060405180830381600087803b1580156125b057600080fd5b505af11580156125c4573d6000803e3d6000fd5b50505050612640565b6004546001600160a01b03166338ed1739868585306125ed4260146136e0565b6040518663ffffffff1660e01b815260040161260d959493929190613984565b600060405180830381600087803b15801561262757600080fd5b505af115801561263b573d6000803e3d6000fd5b505050505b505061264c6001600055565b5050505050565b61265b6130f8565b600354604051632474521560e21b81526000805160206139f683398151915260048201523360248201526001600160a01b03909116906391d14854906044016020604051808303816000875af11580156126b9573d6000803e3d6000fd5b505050506040513d601f19601f820116820180604052508101906126dd919061365e565b61271b576040516331248db360e21b815260206004820152600e60248201526d4f6e6c7920496e766573746f727360901b60448201526064016106af565b60003490506000600c8365ffffffffffff168154811061273d5761273d613680565b90600052602060002090600602016040518061012001604052908160008201805461276790613696565b80601f016020809104026020016040519081016040528092919081815260200182805461279390613696565b80156127e05780601f106127b5576101008083540402835291602001916127e0565b820191906000526020600020905b8154815290600101906020018083116127c357829003601f168201915b505050918352505060018201546001600160a01b038082166020840152600160a01b820464ffffffffff908116604080860191909152600160c81b840465ffffffffffff166060860152600160f81b90930460ff1615156080850152600285015460a0850152600385015460c0850152600485015460e08501526005909401541661010090920191909152820151919250164210612a8b578060a001518160e001511115612a0a576001600c8465ffffffffffff16815481106128a5576128a5613680565b600091825260208083206001600693840290910181018054951515600160f81b026001600160f81b03909616959095179094556040805161010081810183528751825260a0808901518386015260e0808a01519484019490945260c0808a01516060808601919091528a015165ffffffffffff166080850152948901516001600160a01b03908116918401919091529088015116928101929092528101839052600d8054948501815590925281519192027fd7b6990105719101dabeb77144f2a3385c8033acd3af97e9423a695e81ad1eb5019081906129859082613742565b50602082015160018201556040820151600282015560608201516003820155608082015160a08301516001600160601b03909116600160601b6001600160a01b039283160217600483015560c08301516005909201805460e090940151929091166001600160a81b031990931692909217600160a01b91151591909102179055610cd2565b6000600c8465ffffffffffff1681548110612a2757612a27613680565b9060005260206000209060060201600301819055508061010001516001600160a01b031663a9059cbb82602001518360c001516040518363ffffffff1660e01b81526004016109e39291906001600160a01b03929092168252602082015260400190565b33600090815260096020908152604080832065ffffffffffff8716845290915281208054849290612abd9084906136e0565b9250508190555081600c8465ffffffffffff1681548110612ae057612ae0613680565b90600052602060002090600602016004016000828254612b0091906136e0565b90915550505050610cde6001600055565b600654600354604051632474521560e21b8152600080516020613a168339815191526004820152336024820152600160a81b90920464ffffffffff16916001600160a01b03909116906391d14854906044016020604051808303816000875af1158015612b82573d6000803e3d6000fd5b505050506040513d601f19601f82011682018060405250810190612ba6919061365e565b612bc3576040516331248db360e21b81526004016106af90613911565b6006805464ffffffffff60a81b1916600160a81b64ffffffffff858116820292909217928390556040805185841681529190930490911660208201527f598f14c62f529e1525d2fe104a94dc376b2d61bcc2c233c54add6914b6653378910161101f565b600b8181548110612c3757600080fd5b9060005260206000209060060201600091509050806000018054612c5a90613696565b80601f0160208091040260200160405190810160405280929190818152602001828054612c8690613696565b8015612cd35780601f10612ca857610100808354040283529160200191612cd3565b820191906000526020600020905b815481529060010190602001808311612cb657829003601f168201915b5050506001840154600285015460038601546004870154600590970154959664ffffffffff8416966001600160a01b036501000000000086048116975065ffffffffffff600160c81b870416965060ff600160f81b90960486169594909416931689565b600080600c8365ffffffffffff1681548110612d5557612d55613680565b906000526020600020906006020160405180610120016040529081600082018054612d7f90613696565b80601f0160208091040260200160405190810160405280929190818152602001828054612dab90613696565b8015612df85780601f10612dcd57610100808354040283529160200191612df8565b820191906000526020600020905b815481529060010190602001808311612ddb57829003601f168201915b505050918352505060018201546001600160a01b038082166020840152600160a01b820464ffffffffff908116604080860191909152600160c81b840465ffffffffffff166060860152600160f81b90930460ff1615156080850152600285015460a0850152600385015460c0850152600485015460e08501526005909401541661010090920191909152820151919250164210801590612ea057508060a001518160e00151105b15612eae5750600192915050565b50600092915050565b50919050565b6040516370a0823160e01b81523060048201526000906001600160a01b038316906370a0823190602401602060405180830381865afa158015612f04573d6000803e3d6000fd5b505050506040513d601f19601f82011682018060405250810190612f28919061383e565b92915050565b600654600090339034906001600160801b0316811015612fa257604051623290fb60e51b815260206004820152602960248201527f56454e44414f3a20666565206973206c657373207468616e207468652072657160448201526875697265642066656560b81b60648201526084016106af565b8060086000828254612fb491906136e0565b9091555050600354604051632f2ff15d60e01b81526000805160206139f683398151915260048201526001600160a01b03848116602483015290911690632f2ff15d90604401600060405180830381600087803b15801561301457600080fd5b505af1158015613028573d6000803e3d6000fd5b505060025460405163207b7ad360e01b81526001600160a01b038681166004830152909116925063207b7ad391506024016020604051808303816000875af1158015613078573d6000803e3d6000fd5b505050506040513d601f19601f8201168201806040525081019061309c919061383e565b6001600160a01b0383166000818152600a6020908152604091829020849055815192835282018390529194507fae376cac307102c65a5b844d1028d65fd85ec78ad35b5950ec5f0828dffba27c910160405180910390a1505090565b60026000540361314a5760405162461bcd60e51b815260206004820152601f60248201527f5265656e7472616e637947756172643a207265656e7472616e742063616c6c0060448201526064016106af565b6002600055565b60006127106131618360016138c1565b612f2891906138d8565b600080606461317b84600a6138c1565b61318591906138d8565b90508060085410612eae5792915050565b60008080856131a585876138c1565b6131af91906138d8565b9250856131bc85896138c1565b6131c691906138d8565b91506131d28285613954565b90509450945094915050565b6000602082840312156131f057600080fd5b813565ffffffffffff8116811461320657600080fd5b9392505050565b6001600160a01b0381168114610cde57600080fd5b60008060006060848603121561323757600080fd5b83356132428161320d565b925060208401356132528161320d565b915060408401356132628161320d565b809150509250925092565b634e487b7160e01b600052604160045260246000fd5b803561328e8161320d565b919050565b600080600080608085870312156132a957600080fd5b843567ffffffffffffffff808211156132c157600080fd5b818701915087601f8301126132d557600080fd5b8135818111156132e7576132e761326d565b604051601f8201601f19908116603f0116810190838211818310171561330f5761330f61326d565b816040528281528a602084870101111561332857600080fd5b826020860160208301376000602084830101528098505050505050602085013592506040850135915061335d60608601613283565b905092959194509250565b60006020828403121561337a57600080fd5b5035919050565b6000815180845260005b818110156133a75760208185018101518683018201520161338b565b506000602082860101526020601f19601f83011685010191505092915050565b60006101208083526133db8184018d613381565b6001600160a01b039b8c16602085015264ffffffffff9a909a166040840152505065ffffffffffff969096166060870152931515608086015260a085019290925260c084015260e083015290921661010090920191909152919050565b60006020828403121561344a57600080fd5b81356001600160801b038116811461320657600080fd5b60006020828403121561347357600080fd5b81356132068161320d565b60006101008083526134928184018c613381565b602084019a909a525050604081019690965260608601949094526001600160601b039290921660808501526001600160a01b0390811660a08501521660c0830152151560e090910152919050565b600080600080608085870312156134f657600080fd5b84356135018161320d565b93506020850135925060408501356135188161320d565b9396929550929360600135925050565b600080600080600060a0868803121561354057600080fd5b853561354b8161320d565b9450602086013561355b8161320d565b93506040860135925060608601356135728161320d565b949793965091946080013592915050565b60006020828403121561359557600080fd5b813564ffffffffff8116811461320657600080fd5b634e487b7160e01b600052602160045260246000fd5b60006101208083526135d48184018d613381565b64ffffffffff8c1660208501526001600160a01b038b16604085015265ffffffffffff8a16606085015260ff891660808501529150506003861061362857634e487b7160e01b600052602160045260246000fd5b8560a08301528460c08301528360e08301526136506101008301846001600160a01b03169052565b9a9950505050505050505050565b60006020828403121561367057600080fd5b8151801515811461320657600080fd5b634e487b7160e01b600052603260045260246000fd5b600181811c908216806136aa57607f821691505b602082108103612eb757634e487b7160e01b600052602260045260246000fd5b634e487b7160e01b600052601160045260246000fd5b80820180821115612f2857612f286136ca565b601f82111561373d57600081815260208120601f850160051c8101602086101561371a5750805b601f850160051c820191505b8181101561373957828155600101613726565b5050505b505050565b815167ffffffffffffffff81111561375c5761375c61326d565b6137708161376a8454613696565b846136f3565b602080601f8311600181146137a5576000841561378d5750858301515b600019600386901b1c1916600185901b178555613739565b600085815260208120601f198616915b828110156137d4578886015182559484019460019091019084016137b5565b50858210156137f25787850151600019600388901b60f8161c191681555b5050505050600190811b01905550565b634e487b7160e01b600052601260045260246000fd5b60006001600160801b038084168061383257613832613802565b92169190910492915050565b60006020828403121561385057600080fd5b5051919050565b805169ffffffffffffffffffff8116811461328e57600080fd5b600080600080600060a0868803121561388957600080fd5b61389286613857565b94506020860151935060408601519250606086015191506138b560808701613857565b90509295509295909350565b8082028115828204841417612f2857612f286136ca565b6000826138e7576138e7613802565b500490565b64ffffffffff81811683821601908082111561390a5761390a6136ca565b5092915050565b60208082526023908201527f56454e44414f3a204f6e6c792061646d696e2063616e20616c746572206368616040820152626e676560e81b606082015260800190565b81810381811115612f2857612f286136ca565b60006020828403121561397957600080fd5b81516132068161320d565b600060a082018783526020878185015260a0604085015281875180845260c086019150828901935060005b818110156139d45784516001600160a01b0316835293830193918301916001016139af565b50506001600160a01b0396909616606085015250505060800152939250505056fe5614e11ca6d7673c9c8dcec913465d676494aad1151bb2c1cf40b9d99be4d935df8b4c520ffe197c5343c6f5aec59570151ef9a492f2c624fd45ddde6135ec42a264697066735822122015f1c8773797270f5c056afb87c6f4f7de70e8e55de96c9d32a0219cc4aa32b664736f6c63430008140033",
    "linkReferences": {}
  },
  "methodIdentifiers": {
    "ADMIN()": "2a0acc6a",
    "FTM_PRICE_FEED()": "803d3b3e",
    "INVESTOR()": "68e3d6f7",
    "NOMINATED_ADMINS()": "0b68af0f",
    "VenAccessControl()": "4ced5a08",
    "VenAccessTicket()": "bd28cac9",
    "changeDex(address)": "69d2da9c",
    "claim(uint48)": "81242403",
    "examineProject(uint48)": "0142476a",
    "ftmBalance()": "505cfaab",
    "init(address,address,address)": "184b9559",
    "invest(uint48)": "d011f216",
    "investTime()": "15938789",
    "joinDAO()": "f63d13d7",
    "leaveDAO()": "1de7df41",
    "pauseProposal()": "6658cc76",
    "projectFunded(uint256)": "79585aa8",
    "projectNotSuccessful(uint48)": "e091eaf6",
    "projectProposals(uint256)": "dbc1d569",
    "proposalTime()": "184a0ae9",
    "proposalsToInvest(uint256)": "637f8af5",
    "proposeProject(string,uint256,uint256,address)": "38d698bf",
    "setAcceptanceFee(uint128)": "6765e074",
    "setValTime(uint40)": "d96b427c",
    "spookySwap()": "7c71e119",
    "takeProfitInFTM(address,uint256,address,uint256)": "9e8748bb",
    "takeProfitInStable(address,address,uint256,address,uint256)": "b3840132",
    "tokenBalance(address)": "eedc966a",
    "validityTime()": "042bea85"
  },
  "id": 4
}