{
  "abi": [
    {
      "inputs": [],
      "stateMutability": "nonpayable",
      "type": "constructor"
    },
    {
      "inputs": [
        {
          "internalType": "string",
          "name": "",
          "type": "string"
        }
      ],
      "name": "_paused",
      "type": "error"
    },
    {
      "inputs": [
        {
          "internalType": "string",
          "name": "",
          "type": "string"
        }
      ],
      "name": "approved",
      "type": "error"
    },
    {
      "inputs": [
        {
          "internalType": "string",
          "name": "",
          "type": "string"
        }
      ],
      "name": "lowerThanFee",
      "type": "error"
    },
    {
      "inputs": [
        {
          "internalType": "string",
          "name": "",
          "type": "string"
        }
      ],
      "name": "notAdmin",
      "type": "error"
    },
    {
      "anonymous": false,
      "inputs": [
        {
          "indexed": false,
          "internalType": "uint128",
          "name": "",
          "type": "uint128"
        },
        {
          "indexed": false,
          "internalType": "uint128",
          "name": "",
          "type": "uint128"
        }
      ],
      "name": "_changeAcceptance",
      "type": "event"
    },
    {
      "anonymous": false,
      "inputs": [
        {
          "indexed": false,
          "internalType": "address",
          "name": "",
          "type": "address"
        },
        {
          "indexed": false,
          "internalType": "uint256",
          "name": "",
          "type": "uint256"
        }
      ],
      "name": "_joinDao",
      "type": "event"
    },
    {
      "anonymous": false,
      "inputs": [
        {
          "indexed": false,
          "internalType": "address",
          "name": "",
          "type": "address"
        }
      ],
      "name": "_leaveDao",
      "type": "event"
    },
    {
      "anonymous": false,
      "inputs": [
        {
          "indexed": false,
          "internalType": "uint40",
          "name": "",
          "type": "uint40"
        },
        {
          "indexed": false,
          "internalType": "uint40",
          "name": "",
          "type": "uint40"
        }
      ],
      "name": "changeValidityTime",
      "type": "event"
    },
    {
      "stateMutability": "payable",
      "type": "fallback"
    },
    {
      "inputs": [],
      "name": "FTM_PRICE_FEED",
      "outputs": [
        {
          "internalType": "contract AggregatorV3Interface",
          "name": "",
          "type": "address"
        }
      ],
      "stateMutability": "view",
      "type": "function"
    },
    {
      "inputs": [],
      "name": "INVESTOR",
      "outputs": [
        {
          "internalType": "bytes32",
          "name": "",
          "type": "bytes32"
        }
      ],
      "stateMutability": "view",
      "type": "function"
    },
    {
      "inputs": [],
      "name": "NOMINATED_ADMINS",
      "outputs": [
        {
          "internalType": "bytes32",
          "name": "",
          "type": "bytes32"
        }
      ],
      "stateMutability": "view",
      "type": "function"
    },
    {
      "inputs": [],
      "name": "VenAccessControl",
      "outputs": [
        {
          "internalType": "contract IVenAccessControl",
          "name": "",
          "type": "address"
        }
      ],
      "stateMutability": "view",
      "type": "function"
    },
    {
      "inputs": [],
      "name": "VenAccessTicket",
      "outputs": [
        {
          "internalType": "contract IVenAccessTicket",
          "name": "",
          "type": "address"
        }
      ],
      "stateMutability": "view",
      "type": "function"
    },
    {
      "inputs": [
        {
          "internalType": "uint48",
          "name": "_proposalId",
          "type": "uint48"
        }
      ],
      "name": "claim",
      "outputs": [],
      "stateMutability": "nonpayable",
      "type": "function"
    },
    {
      "inputs": [
        {
          "internalType": "uint48",
          "name": "_proposalId",
          "type": "uint48"
        }
      ],
      "name": "examineProject",
      "outputs": [],
      "stateMutability": "nonpayable",
      "type": "function"
    },
    {
      "inputs": [],
      "name": "ftmBalance",
      "outputs": [
        {
          "internalType": "uint256",
          "name": "",
          "type": "uint256"
        }
      ],
      "stateMutability": "view",
      "type": "function"
    },
    {
      "inputs": [
        {
          "internalType": "contract IVenAccessTicket",
          "name": "_accessTicket",
          "type": "address"
        },
        {
          "internalType": "contract IVenAccessControl",
          "name": "_accessControl",
          "type": "address"
        },
        {
          "internalType": "contract ISpookySwap",
          "name": "_spookyswap",
          "type": "address"
        }
      ],
      "name": "init",
      "outputs": [],
      "stateMutability": "nonpayable",
      "type": "function"
    },
    {
      "inputs": [
        {
          "internalType": "uint48",
          "name": "_proposalId",
          "type": "uint48"
        }
      ],
      "name": "invest",
      "outputs": [],
      "stateMutability": "payable",
      "type": "function"
    },
    {
      "inputs": [],
      "name": "joinDAO",
      "outputs": [
        {
          "internalType": "uint256",
          "name": "_newTokenId",
          "type": "uint256"
        }
      ],
      "stateMutability": "payable",
      "type": "function"
    },
    {
      "inputs": [],
      "name": "leaveDAO",
      "outputs": [],
      "stateMutability": "payable",
      "type": "function"
    },
    {
      "inputs": [],
      "name": "pauseProposal",
      "outputs": [],
      "stateMutability": "nonpayable",
      "type": "function"
    },
    {
      "inputs": [
        {
          "internalType": "uint256",
          "name": "",
          "type": "uint256"
        }
      ],
      "name": "projectFunded",
      "outputs": [
        {
          "internalType": "string",
          "name": "url",
          "type": "string"
        },
        {
          "internalType": "uint256",
          "name": "fundingRequest",
          "type": "uint256"
        },
        {
          "internalType": "uint256",
          "name": "amountFunded",
          "type": "uint256"
        },
        {
          "internalType": "uint256",
          "name": "equityOffering",
          "type": "uint256"
        },
        {
          "internalType": "uint96",
          "name": "investorsTag",
          "type": "uint96"
        },
        {
          "internalType": "address",
          "name": "proposalCreator",
          "type": "address"
        },
        {
          "internalType": "contract IERC20",
          "name": "_tokenCA",
          "type": "address"
        },
        {
          "internalType": "bool",
          "name": "claimed",
          "type": "bool"
        }
      ],
      "stateMutability": "view",
      "type": "function"
    },
    {
      "inputs": [
        {
          "internalType": "uint48",
          "name": "_proposalId",
          "type": "uint48"
        }
      ],
      "name": "projectNotSuccessful",
      "outputs": [
        {
          "internalType": "bool",
          "name": "",
          "type": "bool"
        }
      ],
      "stateMutability": "view",
      "type": "function"
    },
    {
      "inputs": [
        {
          "internalType": "uint256",
          "name": "",
          "type": "uint256"
        }
      ],
      "name": "projectProposals",
      "outputs": [
        {
          "internalType": "string",
          "name": "urlToStorage",
          "type": "string"
        },
        {
          "internalType": "uint40",
          "name": "proposalValidity",
          "type": "uint40"
        },
        {
          "internalType": "address",
          "name": "proposalCreator",
          "type": "address"
        },
        {
          "internalType": "uint48",
          "name": "proposalId",
          "type": "uint48"
        },
        {
          "internalType": "uint8",
          "name": "approvalCount",
          "type": "uint8"
        },
        {
          "internalType": "enum Vendao.Status",
          "name": "status",
          "type": "uint8"
        },
        {
          "internalType": "uint256",
          "name": "fundingRequest",
          "type": "uint256"
        },
        {
          "internalType": "uint256",
          "name": "equityOffering",
          "type": "uint256"
        },
        {
          "internalType": "contract IERC20",
          "name": "tokenCA",
          "type": "address"
        }
      ],
      "stateMutability": "view",
      "type": "function"
    },
    {
      "inputs": [],
      "name": "proposalTime",
      "outputs": [
        {
          "internalType": "uint40",
          "name": "",
          "type": "uint40"
        }
      ],
      "stateMutability": "view",
      "type": "function"
    },
    {
      "inputs": [
        {
          "internalType": "uint256",
          "name": "",
          "type": "uint256"
        }
      ],
      "name": "proposalsToInvest",
      "outputs": [
        {
          "internalType": "string",
          "name": "url",
          "type": "string"
        },
        {
          "internalType": "address",
          "name": "proposalCreator",
          "type": "address"
        },
        {
          "internalType": "uint40",
          "name": "investPeriod",
          "type": "uint40"
        },
        {
          "internalType": "uint48",
          "name": "investId",
          "type": "uint48"
        },
        {
          "internalType": "bool",
          "name": "funded",
          "type": "bool"
        },
        {
          "internalType": "uint256",
          "name": "fundingRequest",
          "type": "uint256"
        },
        {
          "internalType": "uint256",
          "name": "equityOffering",
          "type": "uint256"
        },
        {
          "internalType": "uint256",
          "name": "amountFunded",
          "type": "uint256"
        },
        {
          "internalType": "contract IERC20",
          "name": "_tokenCA",
          "type": "address"
        }
      ],
      "stateMutability": "view",
      "type": "function"
    },
    {
      "inputs": [
        {
          "internalType": "string",
          "name": "_urlToStore",
          "type": "string"
        },
        {
          "internalType": "uint256",
          "name": "_fundingRequest",
          "type": "uint256"
        },
        {
          "internalType": "uint256",
          "name": "_equityOffering",
          "type": "uint256"
        },
        {
          "internalType": "contract IERC20",
          "name": "_contractAddress",
          "type": "address"
        }
      ],
      "name": "proposeProject",
      "outputs": [],
      "stateMutability": "nonpayable",
      "type": "function"
    },
    {
      "inputs": [
        {
          "internalType": "uint128",
          "name": "_acceptance",
          "type": "uint128"
        }
      ],
      "name": "setAcceptanceFee",
      "outputs": [],
      "stateMutability": "nonpayable",
      "type": "function"
    },
    {
      "inputs": [],
      "name": "spookySwap",
      "outputs": [
        {
          "internalType": "contract ISpookySwap",
          "name": "",
          "type": "address"
        }
      ],
      "stateMutability": "view",
      "type": "function"
    },
    {
      "inputs": [
        {
          "internalType": "contract IERC20",
          "name": "_token",
          "type": "address"
        },
        {
          "internalType": "uint256",
          "name": "_amount",
          "type": "uint256"
        },
        {
          "internalType": "contract AggregatorV3Interface",
          "name": "_dataFeed",
          "type": "address"
        },
        {
          "internalType": "uint256",
          "name": "_amountOutMin",
          "type": "uint256"
        }
      ],
      "name": "takeProfitInFTM",
      "outputs": [],
      "stateMutability": "nonpayable",
      "type": "function"
    },
    {
      "inputs": [
        {
          "internalType": "contract IERC20",
          "name": "_token",
          "type": "address"
        },
        {
          "internalType": "contract IERC20",
          "name": "_stable",
          "type": "address"
        },
        {
          "internalType": "uint256",
          "name": "_amount",
          "type": "uint256"
        },
        {
          "internalType": "contract AggregatorV3Interface",
          "name": "_dataFeed",
          "type": "address"
        },
        {
          "internalType": "uint256",
          "name": "_amountOutMin",
          "type": "uint256"
        }
      ],
      "name": "takeProfitInStable",
      "outputs": [],
      "stateMutability": "nonpayable",
      "type": "function"
    },
    {
      "inputs": [
        {
          "internalType": "contract IERC20",
          "name": "_tokenAddress",
          "type": "address"
        }
      ],
      "name": "tokenBalance",
      "outputs": [
        {
          "internalType": "uint256",
          "name": "",
          "type": "uint256"
        }
      ],
      "stateMutability": "view",
      "type": "function"
    },
    {
      "stateMutability": "payable",
      "type": "receive"
    }
  ],
  "bytecode": {
    "object": "0x608060405234801561001057600080fd5b506001600081905580546001600160a01b031916331790556136f7806100376000396000f3fe6080604052600436106101435760003560e01c806379585aa8116100b0578063bd28cac91161006c578063bd28cac9146103e3578063d011f21614610403578063dbc1d56914610416578063e091eaf61461044b578063eedc966a1461047b578063f63d13d71461049b57005b806379585aa81461030f5780637c71e11914610343578063803d3b3e1461036357806381242403146103835780639e8748bb146103a3578063b3840132146103c357005b80634ced5a08116100ff5780634ced5a0814610236578063505cfaab1461026e578063637f8af5146102835780636658cc76146102b85780636765e074146102cd57806368e3d6f7146102ed57005b80630142476a1461014c5780630b68af0f1461016c578063184a0ae9146101b3578063184b9559146101ee5780631de7df411461020e57806338d698bf1461021657005b3661014a57005b005b34801561015857600080fd5b5061014a610167366004612eb1565b6104a3565b34801561017857600080fd5b506101a07f805825d85bde9bb3e5b217a4d2768db01dd95dca2e6b6cdd1e108fb2c1a45cd981565b6040519081526020015b60405180910390f35b3480156101bf57600080fd5b506006546101d890600160801b900464ffffffffff1681565b60405164ffffffffff90911681526020016101aa565b3480156101fa57600080fd5b5061014a610209366004612ef5565b610bca565b61014a610c5b565b34801561022257600080fd5b5061014a610231366004612f66565b610f25565b34801561024257600080fd5b50600354610256906001600160a01b031681565b6040516001600160a01b0390911681526020016101aa565b34801561027a57600080fd5b506008546101a0565b34801561028f57600080fd5b506102a361029e36600461303b565b6113c4565b6040516101aa9998979695949392919061309a565b3480156102c457600080fd5b5061014a6114ce565b3480156102d957600080fd5b5061014a6102e836600461310b565b61158d565b3480156102f957600080fd5b506101a06000805160206136a283398151915281565b34801561031b57600080fd5b5061032f61032a36600461303b565b6116a5565b6040516101aa989796959493929190613134565b34801561034f57600080fd5b50600454610256906001600160a01b031681565b34801561036f57600080fd5b50600554610256906001600160a01b031681565b34801561038f57600080fd5b5061014a61039e366004612eb1565b6117a7565b3480156103af57600080fd5b5061014a6103be366004613196565b611c5b565b3480156103cf57600080fd5b5061014a6103de3660046131de565b61202d565b3480156103ef57600080fd5b50600254610256906001600160a01b031681565b61014a610411366004612eb1565b61243c565b34801561042257600080fd5b5061043661043136600461303b565b6128fa565b6040516101aa9998979695949392919061324f565b34801561045757600080fd5b5061046b610466366004612eb1565b612a0a565b60405190151581526020016101aa565b34801561048757600080fd5b506101a06104963660046132ed565b612b90565b6101a0612c01565b6104ab612dcb565b600354604051632474521560e21b81527f805825d85bde9bb3e5b217a4d2768db01dd95dca2e6b6cdd1e108fb2c1a45cd960048201523360248201819052916001600160a01b0316906391d14854906044016020604051808303816000875af115801561051c573d6000803e3d6000fd5b505050506040513d601f19601f82011682018060405250810190610540919061330a565b6105a1576040516331248db360e21b815260206004820152602660248201527f4f6e6c79206e6f6d696e617465642061646d696e732063616e20616c746572206044820152656368616e676560d01b60648201526084015b60405180910390fd5b6000600b8365ffffffffffff16815481106105be576105be61332c565b9060005260206000209060060201604051806101200160405290816000820180546105e890613342565b80601f016020809104026020016040519081016040528092919081815260200182805461061490613342565b80156106615780601f1061063657610100808354040283529160200191610661565b820191906000526020600020905b81548152906001019060200180831161064457829003601f168201915b5050509183525050600182015464ffffffffff811660208301526001600160a01b0365010000000000820416604083015265ffffffffffff600160c81b820416606083015260ff600160f81b9091048116608083015260028084015460a090930192909116908111156106d6576106d6613239565b60028111156106e7576106e7613239565b8152600382015460208083019190915260048301546040808401919091526005909301546001600160a01b0390811660609093019290925290851660009081526007825282812065ffffffffffff88168252909152205490915060ff16156107915760405162461bcd60e51b815260206004820152601960248201527f4e4f4d494e45453a20417070726f76656420616c7265616479000000000000006044820152606401610598565b60008160a0015160028111156107a9576107a9613239565b0361080157604051637d19175960e11b815260206004820152602160248201527f56454e44414f3a2050726f6a6563742070726f706f73616c20617070726f76656044820152601960fa1b6064820152608401610598565b806020015164ffffffffff1642118015610830575060018160a00151600281111561082e5761082e613239565b145b15610958576002600b8465ffffffffffff16815481106108525761085261332c565b906000526020600020906006020160020160006101000a81548160ff0219169083600281111561088457610884613239565b021790555061010081015160408083015160e0840151915163a9059cbb60e01b81526001600160a01b03918216600482015260248101929092529091169063a9059cbb906044015b6020604051808303816000875af11580156108eb573d6000803e3d6000fd5b505050506040513d601f19601f8201168201806040525081019061090f919061330a565b6109535760405162461bcd60e51b8152602060048201526015602482015274151c985b9cd9995c881d5b9cdd58d8d95cdcd99d5b605a1b6044820152606401610598565b610bbb565b6000600b8465ffffffffffff16815481106109755761097561332c565b9060005260206000209060060201600101601f9054906101000a900460ff1690506109a38260c00151612e24565b6001600160a01b038416600090815260096020908152604080832065ffffffffffff89168452909152812080549091906109de90849061338c565b9091555050600360ff82161115610bb9576000600b8565ffffffffffff1681548110610a0c57610a0c61332c565b906000526020600020906006020160020160006101000a81548160ff02191690836002811115610a3e57610a3e613239565b0217905550600c8054604080516101208101825285518152858201516001600160a01b03166020820152919291908101610a7b426212750061338c565b64ffffffffff1681526020018365ffffffffffff1681526020016000151581526020018560c0015181526020018560e001518152602001610abf8660c00151612e3e565b81526101008601516001600160a01b03166020918201528254600181018455600093845292208151919260060201908190610afa90826133ee565b5060208201516001820180546040850151606086015160808701511515600160f81b026001600160f81b0365ffffffffffff909216600160c81b02919091166001600160c81b0364ffffffffff909316600160a01b026001600160c81b03199094166001600160a01b039687161793909317919091169190911717905560a0830151600283015560c0830151600383015560e083015160048301556101009092015160059091018054919092166001600160a01b031991909116179055505b505b5050610bc76001600055565b50565b6001546001600160a01b03163314610c135760405162461bcd60e51b815260206004820152600c60248201526b2737ba1030b71037bbb732b960a11b6044820152606401610598565b600280546001600160a01b03199081166001600160a01b0395861617909155600380548216938516939093179092556004805483169190931617909155600180549091169055565b610c63612dcb565b600354604051632474521560e21b81526000805160206136a283398151915260048201523360248201819052916001600160a01b0316906391d14854906044016020604051808303816000875af1158015610cc2573d6000803e3d6000fd5b505050506040513d601f19601f82011682018060405250810190610ce6919061330a565b610d325760405162461bcd60e51b815260206004820152601760248201527f56454e44414f3a204e6f7420616e20696e766573746f720000000000000000006044820152606401610598565b60035460405163d547741f60e01b81526000805160206136a283398151915260048201526001600160a01b0383811660248301529091169063d547741f90604401600060405180830381600087803b158015610d8d57600080fd5b505af1158015610da1573d6000803e3d6000fd5b50506002546001600160a01b038481166000908152600a60205260409081902054905163ece2230d60e01b815260048101919091529116925063ece2230d9150602401600060405180830381600087803b158015610dfe57600080fd5b505af1158015610e12573d6000803e3d6000fd5b5050600654600092506001600160a01b0384169150610e3c906002906001600160801b03166134c4565b6001600160801b031660405160006040518083038185875af1925050503d8060008114610e85576040519150601f19603f3d011682016040523d82523d6000602084013e610e8a565b606091505b5050905080610edb5760405162461bcd60e51b815260206004820152601860248201527f5472616e73616374696f6e20556e7375636365737366756c00000000000000006044820152606401610598565b6040516001600160a01b03831681527f26842786d031382394421b2ac8d84e83caa1ee909c28f453baeb0c617fc8bfce9060200160405180910390a15050610f236001600055565b565b610f2d612dcb565b600b546006543390429064ffffffffff600160801b909104811690821611610f8b5760405162461bcd60e51b8152602060048201526011602482015270283937b837b9b0b6103737ba1037b832b760791b6044820152606401610598565b600654600160a81b900460ff1615610fe65760405163d8df3d3d60e01b815260206004820152601760248201527f50726f6a6563742070726f706f73616c207061757365640000000000000000006044820152606401610598565b6040516323b872dd60e01b81526001600160a01b038381166004830152306024830152604482018790528516906323b872dd906064016020604051808303816000875af115801561103b573d6000803e3d6000fd5b505050506040513d601f19601f8201168201806040525081019061105f919061330a565b6110ab5760405162461bcd60e51b815260206004820181905260248201527f56454e44414f3a205472616e73616374696f6e20756e7375636365737366756c6044820152606401610598565b6040516370a0823160e01b815230600482015285906001600160a01b038616906370a0823190602401602060405180830381865afa1580156110f1573d6000803e3d6000fd5b505050506040513d601f19601f8201168201806040525081019061111591906134ea565b10156111635760405162461bcd60e51b815260206004820152601b60248201527f56454e44414f3a207a65726f2076616c7565207761732073656e7400000000006044820152606401610598565b60055460408051633fabe5a360e21b815290516000926001600160a01b03169163feaf968c9160048083019260a09291908290030181865afa1580156111ad573d6000803e3d6000fd5b505050506040513d601f19601f820116820180604052508101906111d1919061351d565b505050915050600081886305f5e1006111ea919061356d565b6111f49190613584565b9050600b6040518061012001604052808b8152602001426224ea00611219919061338c565b64ffffffffff1681526001600160a01b038716602082015265ffffffffffff8816604082015260006060820152608001600181526020808201859052604082018b90526001600160a01b038a16606090920191909152825460018101845560009384529220815191926006020190819061129390826133ee565b5060208201516001808301805460408601516060870151608088015160ff16600160f81b026001600160f81b0365ffffffffffff909216600160c81b02919091166001600160c81b036001600160a01b0390931665010000000000026001600160c81b031990941664ffffffffff909716969096179290921716939093179290921790915560a0830151600280840180549293909260ff191691849081111561133e5761133e613239565b021790555060c0820151600382015560e0820151600482015561010090910151600590910180546001600160a01b0319166001600160a01b0390921691909117905561138d8362093a80613598565b600660106101000a81548164ffffffffff021916908364ffffffffff16021790555050505050506113be6001600055565b50505050565b600c81815481106113d457600080fd5b90600052602060002090600602016000915090508060000180546113f790613342565b80601f016020809104026020016040519081016040528092919081815260200182805461142390613342565b80156114705780601f1061144557610100808354040283529160200191611470565b820191906000526020600020905b81548152906001019060200180831161145357829003601f168201915b50505050600183015460028401546003850154600486015460059096015494956001600160a01b0380851696600160a01b860464ffffffffff169650600160c81b860465ffffffffffff1695600160f81b900460ff16949392911689565b600360009054906101000a90046001600160a01b03166001600160a01b0316638da5cb5b6040518163ffffffff1660e01b81526004016020604051808303816000875af1158015611523573d6000803e3d6000fd5b505050506040513d601f19601f8201168201806040525081019061154791906135bd565b6001600160a01b0316336001600160a01b031614611578576040516331248db360e21b8152600401610598906135da565b6006805460ff60a81b1916600160a81b179055565b60065460035460408051638da5cb5b60e01b815290516001600160801b03909316926001600160a01b0390921691638da5cb5b9160048082019260209290919082900301816000875af11580156115e8573d6000803e3d6000fd5b505050506040513d601f19601f8201168201806040525081019061160c91906135bd565b6001600160a01b0316336001600160a01b03161461163d576040516331248db360e21b8152600401610598906135da565b600680546fffffffffffffffffffffffffffffffff19166001600160801b0384811691821790925560408051928416835260208301919091527f1a00ffbf809fff37e16cae3ef72eff8b8199479b0d75443768bdee2e6f409293910160405180910390a15050565b600d81815481106116b557600080fd5b90600052602060002090600602016000915090508060000180546116d890613342565b80601f016020809104026020016040519081016040528092919081815260200182805461170490613342565b80156117515780601f1061172657610100808354040283529160200191611751565b820191906000526020600020905b81548152906001019060200180831161173457829003601f168201915b50505060018401546002850154600386015460048701546005909701549596929591945092506001600160601b038216916001600160a01b03600160601b9091048116919081169060ff600160a01b9091041688565b6117af612dcb565b60003390506000600d8365ffffffffffff16815481106117d1576117d161332c565b9060005260206000209060060201604051806101000160405290816000820180546117fb90613342565b80601f016020809104026020016040519081016040528092919081815260200182805461182790613342565b80156118745780601f1061184957610100808354040283529160200191611874565b820191906000526020600020905b81548152906001019060200180831161185757829003601f168201915b505050918352505060018201546020820152600282015460408201526003820154606082015260048201546001600160601b0381166080830152600160601b90046001600160a01b0390811660a08084019190915260059093015480821660c0840152600160a01b900460ff16151560e0909201919091529082015191925090811690831603611a6e578060e00151156119425760405162461bcd60e51b815260206004820152600f60248201526e185b1c9958591e4818db185a5b5959608a1b6044820152606401610598565b6001600d8465ffffffffffff168154811061195f5761195f61332c565b906000526020600020906006020160050160146101000a81548160ff02191690831515021790555060006119ad8260200151836040015184606001516119a88660200151612e3e565b612e69565b5091505080600860008282546119c3919061361d565b909155505060208201516040516000916001600160a01b038616918381818185875af1925050503d8060008114611a16576040519150601f19603f3d011682016040523d82523d6000602084013e611a1b565b606091505b5050905080611a675760405162461bcd60e51b8152602060048201526018602482015277151c985b9cd858dd1a5bdb881d5b9cdd58d8d95cdcd99d5b60421b6044820152606401610598565b5050610bbb565b6001600160a01b0382166000908152600960209081526040808320608085015165ffffffffffff168452825280832054918401519084015160608501519293928392611abc92909186612e69565b6001600160a01b03888116600081815260096020908152604080832060808d015165ffffffffffff1684529091528082209190915560c08a0151905163a9059cbb60e01b8152600481019290925260248201869052949650919450929092169163a9059cbb91506044016020604051808303816000875af1158015611b45573d6000803e3d6000fd5b505050506040513d601f19601f82011682018060405250810190611b69919061330a565b611bad5760405162461bcd60e51b8152602060048201526015602482015274151c985b9cd9995c881d5b9cdd58d8d95cdcd99d5b605a1b6044820152606401610598565b6000856001600160a01b03168260405160006040518083038185875af1925050503d8060008114611bfa576040519150601f19603f3d011682016040523d82523d6000602084013e611bff565b606091505b5050905080611c4b5760405162461bcd60e51b8152602060048201526018602482015277151c985b9cd858dd1a5bdb881d5b9cdd58d8d95cdcd99d5b60421b6044820152606401610598565b505050505050610bc76001600055565b611c63612dcb565b600360009054906101000a90046001600160a01b03166001600160a01b0316638da5cb5b6040518163ffffffff1660e01b81526004016020604051808303816000875af1158015611cb8573d6000803e3d6000fd5b505050506040513d601f19601f82011682018060405250810190611cdc91906135bd565b6001600160a01b0316336001600160a01b031614611d0d576040516331248db360e21b8152600401610598906135da565b6004805460405163095ea7b360e01b81526001600160a01b03918216928101929092526024820185905285169063095ea7b3906044016020604051808303816000875af1158015611d62573d6000803e3d6000fd5b505050506040513d601f19601f82011682018060405250810190611d86919061330a565b611dc35760405162461bcd60e51b815260206004820152600e60248201526d185c1c1c9bdd994819985a5b195960921b6044820152606401610598565b6040805160028082526060820183526000926020830190803683370190505090508481600081518110611df857611df861332c565b60200260200101906001600160a01b031690816001600160a01b031681525050600460009054906101000a90046001600160a01b03166001600160a01b031663ad5c46486040518163ffffffff1660e01b81526004016020604051808303816000875af1158015611e6d573d6000803e3d6000fd5b505050506040513d601f19601f82011682018060405250810190611e9191906135bd565b81600181518110611ea457611ea461332c565b60200260200101906001600160a01b031690816001600160a01b0316815250506000836001600160a01b031663feaf968c6040518163ffffffff1660e01b815260040160a060405180830381865afa158015611f04573d6000803e3d6000fd5b505050506040513d601f19601f82011682018060405250810190611f28919061351d565b5050509150506000811315611fae576004546001600160a01b03166318cbafe586838530611f5742601461338c565b6040518663ffffffff1660e01b8152600401611f77959493929190613630565b600060405180830381600087803b158015611f9157600080fd5b505af1158015611fa5573d6000803e3d6000fd5b50505050612021565b6004546001600160a01b03166318cbafe586858530611fce42601461338c565b6040518663ffffffff1660e01b8152600401611fee959493929190613630565b600060405180830381600087803b15801561200857600080fd5b505af115801561201c573d6000803e3d6000fd5b505050505b50506113be6001600055565b612035612dcb565b600360009054906101000a90046001600160a01b03166001600160a01b0316638da5cb5b6040518163ffffffff1660e01b81526004016020604051808303816000875af115801561208a573d6000803e3d6000fd5b505050506040513d601f19601f820116820180604052508101906120ae91906135bd565b6001600160a01b0316336001600160a01b0316146120df576040516331248db360e21b8152600401610598906135da565b6004805460405163095ea7b360e01b81526001600160a01b03918216928101929092526024820185905286169063095ea7b3906044016020604051808303816000875af1158015612134573d6000803e3d6000fd5b505050506040513d601f19601f82011682018060405250810190612158919061330a565b6121955760405162461bcd60e51b815260206004820152600e60248201526d185c1c1c9bdd994819985a5b195960921b6044820152606401610598565b604080516003808252608082019092526000916020820160608036833701905050905085816000815181106121cc576121cc61332c565b60200260200101906001600160a01b031690816001600160a01b031681525050600460009054906101000a90046001600160a01b03166001600160a01b031663ad5c46486040518163ffffffff1660e01b81526004016020604051808303816000875af1158015612241573d6000803e3d6000fd5b505050506040513d601f19601f8201168201806040525081019061226591906135bd565b816001815181106122785761227861332c565b60200260200101906001600160a01b031690816001600160a01b03168152505084816002815181106122ac576122ac61332c565b60200260200101906001600160a01b031690816001600160a01b0316815250506000836001600160a01b031663feaf968c6040518163ffffffff1660e01b815260040160a060405180830381865afa15801561230c573d6000803e3d6000fd5b505050506040513d601f19601f82011682018060405250810190612330919061351d565b50505091505060008113156123b6576004546001600160a01b03166338ed17398683853061235f42601461338c565b6040518663ffffffff1660e01b815260040161237f959493929190613630565b600060405180830381600087803b15801561239957600080fd5b505af11580156123ad573d6000803e3d6000fd5b50505050612429565b6004546001600160a01b03166338ed1739868585306123d642601461338c565b6040518663ffffffff1660e01b81526004016123f6959493929190613630565b600060405180830381600087803b15801561241057600080fd5b505af1158015612424573d6000803e3d6000fd5b505050505b50506124356001600055565b5050505050565b612444612dcb565b600354604051632474521560e21b81526000805160206136a283398151915260048201523360248201526001600160a01b03909116906391d14854906044016020604051808303816000875af11580156124a2573d6000803e3d6000fd5b505050506040513d601f19601f820116820180604052508101906124c6919061330a565b612504576040516331248db360e21b815260206004820152600e60248201526d4f6e6c7920496e766573746f727360901b6044820152606401610598565b60003490506000600c8365ffffffffffff16815481106125265761252661332c565b90600052602060002090600602016040518061012001604052908160008201805461255090613342565b80601f016020809104026020016040519081016040528092919081815260200182805461257c90613342565b80156125c95780601f1061259e576101008083540402835291602001916125c9565b820191906000526020600020905b8154815290600101906020018083116125ac57829003601f168201915b505050918352505060018201546001600160a01b038082166020840152600160a01b820464ffffffffff908116604080860191909152600160c81b840465ffffffffffff166060860152600160f81b90930460ff1615156080850152600285015460a0850152600385015460c0850152600485015460e08501526005909401541661010090920191909152820151919250164210612874578060a001518160e0015111156127f3576001600c8465ffffffffffff168154811061268e5761268e61332c565b600091825260208083206001600693840290910181018054951515600160f81b026001600160f81b03909616959095179094556040805161010081810183528751825260a0808901518386015260e0808a01519484019490945260c0808a01516060808601919091528a015165ffffffffffff166080850152948901516001600160a01b03908116918401919091529088015116928101929092528101839052600d8054948501815590925281519192027fd7b6990105719101dabeb77144f2a3385c8033acd3af97e9423a695e81ad1eb50190819061276e90826133ee565b50602082015160018201556040820151600282015560608201516003820155608082015160a08301516001600160601b03909116600160601b6001600160a01b039283160217600483015560c08301516005909201805460e090940151929091166001600160a81b031990931692909217600160a01b91151591909102179055610bbb565b6000600c8465ffffffffffff16815481106128105761281061332c565b9060005260206000209060060201600301819055508061010001516001600160a01b031663a9059cbb82602001518360c001516040518363ffffffff1660e01b81526004016108cc9291906001600160a01b03929092168252602082015260400190565b33600090815260096020908152604080832065ffffffffffff87168452909152812080548492906128a690849061338c565b9250508190555081600c8465ffffffffffff16815481106128c9576128c961332c565b906000526020600020906006020160040160008282546128e9919061338c565b90915550505050610bc76001600055565b600b818154811061290a57600080fd5b906000526020600020906006020160009150905080600001805461292d90613342565b80601f016020809104026020016040519081016040528092919081815260200182805461295990613342565b80156129a65780601f1061297b576101008083540402835291602001916129a6565b820191906000526020600020905b81548152906001019060200180831161298957829003601f168201915b5050506001840154600285015460038601546004870154600590970154959664ffffffffff8416966001600160a01b036501000000000086048116975065ffffffffffff600160c81b870416965060ff600160f81b90960486169594909416931689565b600080600c8365ffffffffffff1681548110612a2857612a2861332c565b906000526020600020906006020160405180610120016040529081600082018054612a5290613342565b80601f0160208091040260200160405190810160405280929190818152602001828054612a7e90613342565b8015612acb5780601f10612aa057610100808354040283529160200191612acb565b820191906000526020600020905b815481529060010190602001808311612aae57829003601f168201915b505050918352505060018201546001600160a01b038082166020840152600160a01b820464ffffffffff908116604080860191909152600160c81b840465ffffffffffff166060860152600160f81b90930460ff1615156080850152600285015460a0850152600385015460c0850152600485015460e08501526005909401541661010090920191909152820151919250164210801590612b7357508060a001518160e00151105b15612b815750600192915050565b50600092915050565b50919050565b6040516370a0823160e01b81523060048201526000906001600160a01b038316906370a0823190602401602060405180830381865afa158015612bd7573d6000803e3d6000fd5b505050506040513d601f19601f82011682018060405250810190612bfb91906134ea565b92915050565b600654600090339034906001600160801b0316811015612c7557604051623290fb60e51b815260206004820152602960248201527f56454e44414f3a20666565206973206c657373207468616e207468652072657160448201526875697265642066656560b81b6064820152608401610598565b8060086000828254612c87919061338c565b9091555050600354604051632f2ff15d60e01b81526000805160206136a283398151915260048201526001600160a01b03848116602483015290911690632f2ff15d90604401600060405180830381600087803b158015612ce757600080fd5b505af1158015612cfb573d6000803e3d6000fd5b505060025460405163207b7ad360e01b81526001600160a01b038681166004830152909116925063207b7ad391506024016020604051808303816000875af1158015612d4b573d6000803e3d6000fd5b505050506040513d601f19601f82011682018060405250810190612d6f91906134ea565b6001600160a01b0383166000818152600a6020908152604091829020849055815192835282018390529194507fae376cac307102c65a5b844d1028d65fd85ec78ad35b5950ec5f0828dffba27c910160405180910390a1505090565b600260005403612e1d5760405162461bcd60e51b815260206004820152601f60248201527f5265656e7472616e637947756172643a207265656e7472616e742063616c6c006044820152606401610598565b6002600055565b6000612710612e3483600161356d565b612bfb9190613584565b6000806064612e4e84600a61356d565b612e589190613584565b90508060085410612b815792915050565b6000808085612e78858761356d565b612e829190613584565b925085612e8f858961356d565b612e999190613584565b9150612ea5828561361d565b90509450945094915050565b600060208284031215612ec357600080fd5b813565ffffffffffff81168114612ed957600080fd5b9392505050565b6001600160a01b0381168114610bc757600080fd5b600080600060608486031215612f0a57600080fd5b8335612f1581612ee0565b92506020840135612f2581612ee0565b91506040840135612f3581612ee0565b809150509250925092565b634e487b7160e01b600052604160045260246000fd5b8035612f6181612ee0565b919050565b60008060008060808587031215612f7c57600080fd5b843567ffffffffffffffff80821115612f9457600080fd5b818701915087601f830112612fa857600080fd5b813581811115612fba57612fba612f40565b604051601f8201601f19908116603f01168101908382118183101715612fe257612fe2612f40565b816040528281528a6020848701011115612ffb57600080fd5b826020860160208301376000602084830101528098505050505050602085013592506040850135915061303060608601612f56565b905092959194509250565b60006020828403121561304d57600080fd5b5035919050565b6000815180845260005b8181101561307a5760208185018101518683018201520161305e565b506000602082860101526020601f19601f83011685010191505092915050565b60006101208083526130ae8184018d613054565b6001600160a01b039b8c16602085015264ffffffffff9a909a166040840152505065ffffffffffff969096166060870152931515608086015260a085019290925260c084015260e083015290921661010090920191909152919050565b60006020828403121561311d57600080fd5b81356001600160801b0381168114612ed957600080fd5b60006101008083526131488184018c613054565b602084019a909a525050604081019690965260608601949094526001600160601b039290921660808501526001600160a01b0390811660a08501521660c0830152151560e090910152919050565b600080600080608085870312156131ac57600080fd5b84356131b781612ee0565b93506020850135925060408501356131ce81612ee0565b9396929550929360600135925050565b600080600080600060a086880312156131f657600080fd5b853561320181612ee0565b9450602086013561321181612ee0565b935060408601359250606086013561322881612ee0565b949793965091946080013592915050565b634e487b7160e01b600052602160045260246000fd5b60006101208083526132638184018d613054565b64ffffffffff8c1660208501526001600160a01b038b16604085015265ffffffffffff8a16606085015260ff89166080850152915050600386106132b757634e487b7160e01b600052602160045260246000fd5b8560a08301528460c08301528360e08301526132df6101008301846001600160a01b03169052565b9a9950505050505050505050565b6000602082840312156132ff57600080fd5b8135612ed981612ee0565b60006020828403121561331c57600080fd5b81518015158114612ed957600080fd5b634e487b7160e01b600052603260045260246000fd5b600181811c9082168061335657607f821691505b602082108103612b8a57634e487b7160e01b600052602260045260246000fd5b634e487b7160e01b600052601160045260246000fd5b80820180821115612bfb57612bfb613376565b601f8211156133e957600081815260208120601f850160051c810160208610156133c65750805b601f850160051c820191505b818110156133e5578281556001016133d2565b5050505b505050565b815167ffffffffffffffff81111561340857613408612f40565b61341c816134168454613342565b8461339f565b602080601f83116001811461345157600084156134395750858301515b600019600386901b1c1916600185901b1785556133e5565b600085815260208120601f198616915b8281101561348057888601518255948401946001909101908401613461565b508582101561349e5787850151600019600388901b60f8161c191681555b5050505050600190811b01905550565b634e487b7160e01b600052601260045260246000fd5b60006001600160801b03808416806134de576134de6134ae565b92169190910492915050565b6000602082840312156134fc57600080fd5b5051919050565b805169ffffffffffffffffffff81168114612f6157600080fd5b600080600080600060a0868803121561353557600080fd5b61353e86613503565b945060208601519350604086015192506060860151915061356160808701613503565b90509295509295909350565b8082028115828204841417612bfb57612bfb613376565b600082613593576135936134ae565b500490565b64ffffffffff8181168382160190808211156135b6576135b6613376565b5092915050565b6000602082840312156135cf57600080fd5b8151612ed981612ee0565b60208082526023908201527f56454e44414f3a204f6e6c792061646d696e2063616e20616c746572206368616040820152626e676560e81b606082015260800190565b81810381811115612bfb57612bfb613376565b600060a082018783526020878185015260a0604085015281875180845260c086019150828901935060005b818110156136805784516001600160a01b03168352938301939183019160010161365b565b50506001600160a01b0396909616606085015250505060800152939250505056fe5614e11ca6d7673c9c8dcec913465d676494aad1151bb2c1cf40b9d99be4d935a26469706673582212203ad196a19ba9eb4dd189db0fde4bad92ecd12ae2ccc824db918b43ab00559ab564736f6c63430008120033",
    "linkReferences": {}
  },
  "methodIdentifiers": {
    "FTM_PRICE_FEED()": "803d3b3e",
    "INVESTOR()": "68e3d6f7",
    "NOMINATED_ADMINS()": "0b68af0f",
    "VenAccessControl()": "4ced5a08",
    "VenAccessTicket()": "bd28cac9",
    "claim(uint48)": "81242403",
    "examineProject(uint48)": "0142476a",
    "ftmBalance()": "505cfaab",
    "init(address,address,address)": "184b9559",
    "invest(uint48)": "d011f216",
    "joinDAO()": "f63d13d7",
    "leaveDAO()": "1de7df41",
    "pauseProposal()": "6658cc76",
    "projectFunded(uint256)": "79585aa8",
    "projectNotSuccessful(uint48)": "e091eaf6",
    "projectProposals(uint256)": "dbc1d569",
    "proposalTime()": "184a0ae9",
    "proposalsToInvest(uint256)": "637f8af5",
    "proposeProject(string,uint256,uint256,address)": "38d698bf",
    "setAcceptanceFee(uint128)": "6765e074",
    "spookySwap()": "7c71e119",
    "takeProfitInFTM(address,uint256,address,uint256)": "9e8748bb",
    "takeProfitInStable(address,address,uint256,address,uint256)": "b3840132",
    "tokenBalance(address)": "eedc966a"
  },
  "id": 4
}