{
  "abi": [
    {
      "inputs": [],
      "stateMutability": "nonpayable",
      "type": "constructor"
    },
    {
      "inputs": [
        {
          "internalType": "string",
          "name": "",
          "type": "string"
        }
      ],
      "name": "_paused",
      "type": "error"
    },
    {
      "inputs": [
        {
          "internalType": "string",
          "name": "",
          "type": "string"
        }
      ],
      "name": "approved",
      "type": "error"
    },
    {
      "inputs": [
        {
          "internalType": "string",
          "name": "",
          "type": "string"
        }
      ],
      "name": "lowerThanFee",
      "type": "error"
    },
    {
      "inputs": [
        {
          "internalType": "string",
          "name": "",
          "type": "string"
        }
      ],
      "name": "notAdmin",
      "type": "error"
    },
    {
      "anonymous": false,
      "inputs": [
        {
          "indexed": false,
          "internalType": "uint128",
          "name": "",
          "type": "uint128"
        },
        {
          "indexed": false,
          "internalType": "uint128",
          "name": "",
          "type": "uint128"
        }
      ],
      "name": "_changeAcceptance",
      "type": "event"
    },
    {
      "anonymous": false,
      "inputs": [
        {
          "indexed": false,
          "internalType": "address",
          "name": "",
          "type": "address"
        },
        {
          "indexed": false,
          "internalType": "uint256",
          "name": "",
          "type": "uint256"
        }
      ],
      "name": "_joinDao",
      "type": "event"
    },
    {
      "anonymous": false,
      "inputs": [
        {
          "indexed": false,
          "internalType": "address",
          "name": "",
          "type": "address"
        }
      ],
      "name": "_leaveDao",
      "type": "event"
    },
    {
      "anonymous": false,
      "inputs": [
        {
          "indexed": false,
          "internalType": "uint128",
          "name": "",
          "type": "uint128"
        },
        {
          "indexed": false,
          "internalType": "uint128",
          "name": "",
          "type": "uint128"
        },
        {
          "indexed": false,
          "internalType": "uint128",
          "name": "",
          "type": "uint128"
        },
        {
          "indexed": false,
          "internalType": "uint128",
          "name": "",
          "type": "uint128"
        }
      ],
      "name": "changeTime",
      "type": "event"
    },
    {
      "anonymous": false,
      "inputs": [
        {
          "indexed": false,
          "internalType": "uint40",
          "name": "",
          "type": "uint40"
        },
        {
          "indexed": false,
          "internalType": "uint40",
          "name": "",
          "type": "uint40"
        }
      ],
      "name": "changeValidityTime",
      "type": "event"
    },
    {
      "stateMutability": "payable",
      "type": "fallback"
    },
    {
      "inputs": [],
      "name": "FTM_PRICE_FEED",
      "outputs": [
        {
          "internalType": "contract AggregatorV3Interface",
          "name": "",
          "type": "address"
        }
      ],
      "stateMutability": "view",
      "type": "function"
    },
    {
      "inputs": [],
      "name": "INVESTOR",
      "outputs": [
        {
          "internalType": "bytes32",
          "name": "",
          "type": "bytes32"
        }
      ],
      "stateMutability": "view",
      "type": "function"
    },
    {
      "inputs": [],
      "name": "NOMINATED_ADMINS",
      "outputs": [
        {
          "internalType": "bytes32",
          "name": "",
          "type": "bytes32"
        }
      ],
      "stateMutability": "view",
      "type": "function"
    },
    {
      "inputs": [],
      "name": "VenAccessControl",
      "outputs": [
        {
          "internalType": "contract IVenAccessControl",
          "name": "",
          "type": "address"
        }
      ],
      "stateMutability": "view",
      "type": "function"
    },
    {
      "inputs": [],
      "name": "VenAccessTicket",
      "outputs": [
        {
          "internalType": "contract IVenAccessTicket",
          "name": "",
          "type": "address"
        }
      ],
      "stateMutability": "view",
      "type": "function"
    },
    {
      "inputs": [
        {
          "internalType": "uint48",
          "name": "_proposalId",
          "type": "uint48"
        }
      ],
      "name": "claim",
      "outputs": [],
      "stateMutability": "nonpayable",
      "type": "function"
    },
    {
      "inputs": [
        {
          "internalType": "uint48",
          "name": "_proposalId",
          "type": "uint48"
        }
      ],
      "name": "examineProject",
      "outputs": [],
      "stateMutability": "nonpayable",
      "type": "function"
    },
    {
      "inputs": [],
      "name": "ftmBalance",
      "outputs": [
        {
          "internalType": "uint256",
          "name": "",
          "type": "uint256"
        }
      ],
      "stateMutability": "view",
      "type": "function"
    },
    {
      "inputs": [
        {
          "internalType": "contract IVenAccessTicket",
          "name": "_accessTicket",
          "type": "address"
        },
        {
          "internalType": "contract IVenAccessControl",
          "name": "_accessControl",
          "type": "address"
        },
        {
          "internalType": "contract ISpookySwap",
          "name": "_spookyswap",
          "type": "address"
        }
      ],
      "name": "init",
      "outputs": [],
      "stateMutability": "nonpayable",
      "type": "function"
    },
    {
      "inputs": [
        {
          "internalType": "uint48",
          "name": "_proposalId",
          "type": "uint48"
        }
      ],
      "name": "invest",
      "outputs": [],
      "stateMutability": "payable",
      "type": "function"
    },
    {
      "inputs": [],
      "name": "investTime",
      "outputs": [
        {
          "internalType": "uint128",
          "name": "",
          "type": "uint128"
        }
      ],
      "stateMutability": "view",
      "type": "function"
    },
    {
      "inputs": [],
      "name": "joinDAO",
      "outputs": [
        {
          "internalType": "uint256",
          "name": "_newTokenId",
          "type": "uint256"
        }
      ],
      "stateMutability": "payable",
      "type": "function"
    },
    {
      "inputs": [],
      "name": "leaveDAO",
      "outputs": [],
      "stateMutability": "payable",
      "type": "function"
    },
    {
      "inputs": [],
      "name": "pauseProposal",
      "outputs": [],
      "stateMutability": "nonpayable",
      "type": "function"
    },
    {
      "inputs": [
        {
          "internalType": "uint256",
          "name": "",
          "type": "uint256"
        }
      ],
      "name": "projectFunded",
      "outputs": [
        {
          "internalType": "string",
          "name": "url",
          "type": "string"
        },
        {
          "internalType": "uint256",
          "name": "fundingRequest",
          "type": "uint256"
        },
        {
          "internalType": "uint256",
          "name": "amountFunded",
          "type": "uint256"
        },
        {
          "internalType": "uint256",
          "name": "equityOffering",
          "type": "uint256"
        },
        {
          "internalType": "uint96",
          "name": "investorsTag",
          "type": "uint96"
        },
        {
          "internalType": "address",
          "name": "proposalCreator",
          "type": "address"
        },
        {
          "internalType": "contract IERC20",
          "name": "_tokenCA",
          "type": "address"
        },
        {
          "internalType": "bool",
          "name": "claimed",
          "type": "bool"
        }
      ],
      "stateMutability": "view",
      "type": "function"
    },
    {
      "inputs": [
        {
          "internalType": "uint48",
          "name": "_proposalId",
          "type": "uint48"
        }
      ],
      "name": "projectNotSuccessful",
      "outputs": [
        {
          "internalType": "bool",
          "name": "",
          "type": "bool"
        }
      ],
      "stateMutability": "view",
      "type": "function"
    },
    {
      "inputs": [
        {
          "internalType": "uint256",
          "name": "",
          "type": "uint256"
        }
      ],
      "name": "projectProposals",
      "outputs": [
        {
          "internalType": "string",
          "name": "urlToStorage",
          "type": "string"
        },
        {
          "internalType": "uint40",
          "name": "proposalValidity",
          "type": "uint40"
        },
        {
          "internalType": "address",
          "name": "proposalCreator",
          "type": "address"
        },
        {
          "internalType": "uint48",
          "name": "proposalId",
          "type": "uint48"
        },
        {
          "internalType": "uint8",
          "name": "approvalCount",
          "type": "uint8"
        },
        {
          "internalType": "enum Vendao.Status",
          "name": "status",
          "type": "uint8"
        },
        {
          "internalType": "uint256",
          "name": "fundingRequest",
          "type": "uint256"
        },
        {
          "internalType": "uint256",
          "name": "equityOffering",
          "type": "uint256"
        },
        {
          "internalType": "contract IERC20",
          "name": "tokenCA",
          "type": "address"
        }
      ],
      "stateMutability": "view",
      "type": "function"
    },
    {
      "inputs": [],
      "name": "proposalTime",
      "outputs": [
        {
          "internalType": "uint40",
          "name": "",
          "type": "uint40"
        }
      ],
      "stateMutability": "view",
      "type": "function"
    },
    {
      "inputs": [
        {
          "internalType": "uint256",
          "name": "",
          "type": "uint256"
        }
      ],
      "name": "proposalsToInvest",
      "outputs": [
        {
          "internalType": "string",
          "name": "url",
          "type": "string"
        },
        {
          "internalType": "address",
          "name": "proposalCreator",
          "type": "address"
        },
        {
          "internalType": "uint40",
          "name": "investPeriod",
          "type": "uint40"
        },
        {
          "internalType": "uint48",
          "name": "investId",
          "type": "uint48"
        },
        {
          "internalType": "bool",
          "name": "funded",
          "type": "bool"
        },
        {
          "internalType": "uint256",
          "name": "fundingRequest",
          "type": "uint256"
        },
        {
          "internalType": "uint256",
          "name": "equityOffering",
          "type": "uint256"
        },
        {
          "internalType": "uint256",
          "name": "amountFunded",
          "type": "uint256"
        },
        {
          "internalType": "contract IERC20",
          "name": "_tokenCA",
          "type": "address"
        }
      ],
      "stateMutability": "view",
      "type": "function"
    },
    {
      "inputs": [
        {
          "internalType": "string",
          "name": "_urlToStore",
          "type": "string"
        },
        {
          "internalType": "uint256",
          "name": "_fundingRequest",
          "type": "uint256"
        },
        {
          "internalType": "uint256",
          "name": "_equityOffering",
          "type": "uint256"
        },
        {
          "internalType": "contract IERC20",
          "name": "_contractAddress",
          "type": "address"
        }
      ],
      "name": "proposeProject",
      "outputs": [],
      "stateMutability": "nonpayable",
      "type": "function"
    },
    {
      "inputs": [
        {
          "internalType": "uint128",
          "name": "_acceptance",
          "type": "uint128"
        }
      ],
      "name": "setAcceptanceFee",
      "outputs": [],
      "stateMutability": "nonpayable",
      "type": "function"
    },
    {
      "inputs": [
        {
          "internalType": "uint128",
          "name": "_validityTime",
          "type": "uint128"
        },
        {
          "internalType": "uint128",
          "name": "_investTime",
          "type": "uint128"
        }
      ],
      "name": "setTime",
      "outputs": [],
      "stateMutability": "nonpayable",
      "type": "function"
    },
    {
      "inputs": [],
      "name": "spookySwap",
      "outputs": [
        {
          "internalType": "contract ISpookySwap",
          "name": "",
          "type": "address"
        }
      ],
      "stateMutability": "view",
      "type": "function"
    },
    {
      "inputs": [
        {
          "internalType": "contract IERC20",
          "name": "_token",
          "type": "address"
        },
        {
          "internalType": "uint256",
          "name": "_amount",
          "type": "uint256"
        },
        {
          "internalType": "contract AggregatorV3Interface",
          "name": "_dataFeed",
          "type": "address"
        },
        {
          "internalType": "uint256",
          "name": "_amountOutMin",
          "type": "uint256"
        }
      ],
      "name": "takeProfitInFTM",
      "outputs": [],
      "stateMutability": "nonpayable",
      "type": "function"
    },
    {
      "inputs": [
        {
          "internalType": "contract IERC20",
          "name": "_token",
          "type": "address"
        },
        {
          "internalType": "contract IERC20",
          "name": "_stable",
          "type": "address"
        },
        {
          "internalType": "uint256",
          "name": "_amount",
          "type": "uint256"
        },
        {
          "internalType": "contract AggregatorV3Interface",
          "name": "_dataFeed",
          "type": "address"
        },
        {
          "internalType": "uint256",
          "name": "_amountOutMin",
          "type": "uint256"
        }
      ],
      "name": "takeProfitInStable",
      "outputs": [],
      "stateMutability": "nonpayable",
      "type": "function"
    },
    {
      "inputs": [
        {
          "internalType": "contract IERC20",
          "name": "_tokenAddress",
          "type": "address"
        }
      ],
      "name": "tokenBalance",
      "outputs": [
        {
          "internalType": "uint256",
          "name": "",
          "type": "uint256"
        }
      ],
      "stateMutability": "view",
      "type": "function"
    },
    {
      "inputs": [],
      "name": "validityTime",
      "outputs": [
        {
          "internalType": "uint128",
          "name": "",
          "type": "uint128"
        }
      ],
      "stateMutability": "view",
      "type": "function"
    },
    {
      "stateMutability": "payable",
      "type": "receive"
    }
  ],
  "bytecode": {
    "object": "0x6080604052721275000000000000000000000000000024ea0060075534801561002757600080fd5b506001600081905580546001600160a01b031916331790556139438061004e6000396000f3fe60806040526004361061018b5760003560e01c806368e3d6f7116100e0578063bd28cac911610084578063e091eaf611610061578063e091eaf6146104f2578063eedc966a14610522578063f63d13d714610542578063f76d1d8c1461054a57005b8063bd28cac91461048a578063d011f216146104aa578063dbc1d569146104bd57005b8063803d3b3e116100bd578063803d3b3e1461040a578063812424031461042a5780639e8748bb1461044a578063b38401321461046a57005b806368e3d6f71461039457806379585aa8146103b65780637c71e119146103ea57005b80631de7df4111610147578063505cfaab11610124578063505cfaab14610315578063637f8af51461032a5780636658cc761461035f5780636765e0741461037457005b80631de7df41146102b557806338d698bf146102bd5780634ced5a08146102dd57005b80630142476a14610194578063042bea85146101b45780630b68af0f146101f15780631593878914610233578063184a0ae91461025a578063184b95591461029557005b3661019257005b005b3480156101a057600080fd5b506101926101af3660046130c1565b61056a565b3480156101c057600080fd5b506007546101d4906001600160801b031681565b6040516001600160801b0390911681526020015b60405180910390f35b3480156101fd57600080fd5b506102257f805825d85bde9bb3e5b217a4d2768db01dd95dca2e6b6cdd1e108fb2c1a45cd981565b6040519081526020016101e8565b34801561023f57600080fd5b506007546101d490600160801b90046001600160801b031681565b34801561026657600080fd5b5060065461027f90600160801b900464ffffffffff1681565b60405164ffffffffff90911681526020016101e8565b3480156102a157600080fd5b506101926102b0366004613105565b610ca3565b610192610d34565b3480156102c957600080fd5b506101926102d8366004613176565b610ffe565b3480156102e957600080fd5b506003546102fd906001600160a01b031681565b6040516001600160a01b0390911681526020016101e8565b34801561032157600080fd5b50600954610225565b34801561033657600080fd5b5061034a61034536600461324b565b6114a8565b6040516101e8999897969594939291906132aa565b34801561036b57600080fd5b506101926115b2565b34801561038057600080fd5b5061019261038f366004613332565b611671565b3480156103a057600080fd5b506102256000805160206138ee83398151915281565b3480156103c257600080fd5b506103d66103d136600461324b565b611789565b6040516101e898979695949392919061334d565b3480156103f657600080fd5b506004546102fd906001600160a01b031681565b34801561041657600080fd5b506005546102fd906001600160a01b031681565b34801561043657600080fd5b506101926104453660046130c1565b61188b565b34801561045657600080fd5b506101926104653660046133af565b611d3f565b34801561047657600080fd5b506101926104853660046133f7565b612111565b34801561049657600080fd5b506002546102fd906001600160a01b031681565b6101926104b83660046130c1565b612520565b3480156104c957600080fd5b506104dd6104d836600461324b565b6129de565b6040516101e899989796959493929190613468565b3480156104fe57600080fd5b5061051261050d3660046130c1565b612aee565b60405190151581526020016101e8565b34801561052e57600080fd5b5061022561053d366004613506565b612c74565b610225612ce5565b34801561055657600080fd5b50610192610565366004613523565b612eaf565b610572612fdb565b600354604051632474521560e21b81527f805825d85bde9bb3e5b217a4d2768db01dd95dca2e6b6cdd1e108fb2c1a45cd960048201523360248201819052916001600160a01b0316906391d14854906044016020604051808303816000875af11580156105e3573d6000803e3d6000fd5b505050506040513d601f19601f820116820180604052508101906106079190613556565b610668576040516331248db360e21b815260206004820152602660248201527f4f6e6c79206e6f6d696e617465642061646d696e732063616e20616c746572206044820152656368616e676560d01b60648201526084015b60405180910390fd5b6000600c8365ffffffffffff168154811061068557610685613578565b9060005260206000209060060201604051806101200160405290816000820180546106af9061358e565b80601f01602080910402602001604051908101604052809291908181526020018280546106db9061358e565b80156107285780601f106106fd57610100808354040283529160200191610728565b820191906000526020600020905b81548152906001019060200180831161070b57829003601f168201915b5050509183525050600182015464ffffffffff811660208301526001600160a01b0365010000000000820416604083015265ffffffffffff600160c81b820416606083015260ff600160f81b9091048116608083015260028084015460a0909301929091169081111561079d5761079d613452565b60028111156107ae576107ae613452565b8152600382015460208083019190915260048301546040808401919091526005909301546001600160a01b0390811660609093019290925290851660009081526008825282812065ffffffffffff88168252909152205490915060ff16156108585760405162461bcd60e51b815260206004820152601960248201527f4e4f4d494e45453a20417070726f76656420616c726561647900000000000000604482015260640161065f565b60008160a00151600281111561087057610870613452565b036108c857604051637d19175960e11b815260206004820152602160248201527f56454e44414f3a2050726f6a6563742070726f706f73616c20617070726f76656044820152601960fa1b606482015260840161065f565b806020015164ffffffffff16421180156108f7575060018160a0015160028111156108f5576108f5613452565b145b15610a1f576002600c8465ffffffffffff168154811061091957610919613578565b906000526020600020906006020160020160006101000a81548160ff0219169083600281111561094b5761094b613452565b021790555061010081015160408083015160e0840151915163a9059cbb60e01b81526001600160a01b03918216600482015260248101929092529091169063a9059cbb906044015b6020604051808303816000875af11580156109b2573d6000803e3d6000fd5b505050506040513d601f19601f820116820180604052508101906109d69190613556565b610a1a5760405162461bcd60e51b8152602060048201526015602482015274151c985b9cd9995c881d5b9cdd58d8d95cdcd99d5b605a1b604482015260640161065f565b610c94565b6000600c8465ffffffffffff1681548110610a3c57610a3c613578565b9060005260206000209060060201600101601f9054906101000a900460ff169050610a6a8260c00151613034565b6001600160a01b0384166000908152600a6020908152604080832065ffffffffffff8916845290915281208054909190610aa59084906135d8565b9091555050600360ff82161115610c92576000600c8565ffffffffffff1681548110610ad357610ad3613578565b906000526020600020906006020160020160006101000a81548160ff02191690836002811115610b0557610b05613452565b0217905550600d8054604080516101208101825285518152858201516001600160a01b031660208201526007549293929091820190610b5490600160801b90046001600160801b0316426135d8565b64ffffffffff1681526020018365ffffffffffff1681526020016000151581526020018560c0015181526020018560e001518152602001610b988660c0015161304e565b81526101008601516001600160a01b03166020918201528254600181018455600093845292208151919260060201908190610bd3908261363a565b5060208201516001820180546040850151606086015160808701511515600160f81b026001600160f81b0365ffffffffffff909216600160c81b02919091166001600160c81b0364ffffffffff909316600160a01b026001600160c81b03199094166001600160a01b039687161793909317919091169190911717905560a0830151600283015560c0830151600383015560e083015160048301556101009092015160059091018054919092166001600160a01b031991909116179055505b505b5050610ca06001600055565b50565b6001546001600160a01b03163314610cec5760405162461bcd60e51b815260206004820152600c60248201526b2737ba1030b71037bbb732b960a11b604482015260640161065f565b600280546001600160a01b03199081166001600160a01b0395861617909155600380548216938516939093179092556004805483169190931617909155600180549091169055565b610d3c612fdb565b600354604051632474521560e21b81526000805160206138ee83398151915260048201523360248201819052916001600160a01b0316906391d14854906044016020604051808303816000875af1158015610d9b573d6000803e3d6000fd5b505050506040513d601f19601f82011682018060405250810190610dbf9190613556565b610e0b5760405162461bcd60e51b815260206004820152601760248201527f56454e44414f3a204e6f7420616e20696e766573746f72000000000000000000604482015260640161065f565b60035460405163d547741f60e01b81526000805160206138ee83398151915260048201526001600160a01b0383811660248301529091169063d547741f90604401600060405180830381600087803b158015610e6657600080fd5b505af1158015610e7a573d6000803e3d6000fd5b50506002546001600160a01b038481166000908152600b60205260409081902054905163ece2230d60e01b815260048101919091529116925063ece2230d9150602401600060405180830381600087803b158015610ed757600080fd5b505af1158015610eeb573d6000803e3d6000fd5b5050600654600092506001600160a01b0384169150610f15906002906001600160801b0316613710565b6001600160801b031660405160006040518083038185875af1925050503d8060008114610f5e576040519150601f19603f3d011682016040523d82523d6000602084013e610f63565b606091505b5050905080610fb45760405162461bcd60e51b815260206004820152601860248201527f5472616e73616374696f6e20556e7375636365737366756c0000000000000000604482015260640161065f565b6040516001600160a01b03831681527f26842786d031382394421b2ac8d84e83caa1ee909c28f453baeb0c617fc8bfce9060200160405180910390a15050610ffc6001600055565b565b611006612fdb565b600c546006543390429064ffffffffff600160801b9091048116908216116110645760405162461bcd60e51b8152602060048201526011602482015270283937b837b9b0b6103737ba1037b832b760791b604482015260640161065f565b600654600160a81b900460ff16156110bf5760405163d8df3d3d60e01b815260206004820152601760248201527f50726f6a6563742070726f706f73616c20706175736564000000000000000000604482015260640161065f565b6040516323b872dd60e01b81526001600160a01b038381166004830152306024830152604482018790528516906323b872dd906064016020604051808303816000875af1158015611114573d6000803e3d6000fd5b505050506040513d601f19601f820116820180604052508101906111389190613556565b6111845760405162461bcd60e51b815260206004820181905260248201527f56454e44414f3a205472616e73616374696f6e20756e7375636365737366756c604482015260640161065f565b6040516370a0823160e01b815230600482015285906001600160a01b038616906370a0823190602401602060405180830381865afa1580156111ca573d6000803e3d6000fd5b505050506040513d601f19601f820116820180604052508101906111ee9190613736565b101561123c5760405162461bcd60e51b815260206004820152601b60248201527f56454e44414f3a207a65726f2076616c7565207761732073656e740000000000604482015260640161065f565b60055460408051633fabe5a360e21b815290516000926001600160a01b03169163feaf968c9160048083019260a09291908290030181865afa158015611286573d6000803e3d6000fd5b505050506040513d601f19601f820116820180604052508101906112aa9190613769565b505050915050600081886305f5e1006112c391906137b9565b6112cd91906137d0565b6040805161012081019091528a8152600754919250600c9160208201906112fd906001600160801b0316426135d8565b64ffffffffff1681526001600160a01b038716602082015265ffffffffffff8816604082015260006060820152608001600181526020808201859052604082018b90526001600160a01b038a166060909201919091528254600181018455600093845292208151919260060201908190611377908261363a565b5060208201516001808301805460408601516060870151608088015160ff16600160f81b026001600160f81b0365ffffffffffff909216600160c81b02919091166001600160c81b036001600160a01b0390931665010000000000026001600160c81b031990941664ffffffffff909716969096179290921716939093179290921790915560a0830151600280840180549293909260ff191691849081111561142257611422613452565b021790555060c0820151600382015560e0820151600482015561010090910151600590910180546001600160a01b0319166001600160a01b039092169190911790556114718362093a806137e4565b600660106101000a81548164ffffffffff021916908364ffffffffff16021790555050505050506114a26001600055565b50505050565b600d81815481106114b857600080fd5b90600052602060002090600602016000915090508060000180546114db9061358e565b80601f01602080910402602001604051908101604052809291908181526020018280546115079061358e565b80156115545780601f1061152957610100808354040283529160200191611554565b820191906000526020600020905b81548152906001019060200180831161153757829003601f168201915b50505050600183015460028401546003850154600486015460059096015494956001600160a01b0380851696600160a01b860464ffffffffff169650600160c81b860465ffffffffffff1695600160f81b900460ff16949392911689565b600360009054906101000a90046001600160a01b03166001600160a01b0316638da5cb5b6040518163ffffffff1660e01b81526004016020604051808303816000875af1158015611607573d6000803e3d6000fd5b505050506040513d601f19601f8201168201806040525081019061162b9190613809565b6001600160a01b0316336001600160a01b03161461165c576040516331248db360e21b815260040161065f90613826565b6006805460ff60a81b1916600160a81b179055565b60065460035460408051638da5cb5b60e01b815290516001600160801b03909316926001600160a01b0390921691638da5cb5b9160048082019260209290919082900301816000875af11580156116cc573d6000803e3d6000fd5b505050506040513d601f19601f820116820180604052508101906116f09190613809565b6001600160a01b0316336001600160a01b031614611721576040516331248db360e21b815260040161065f90613826565b600680546fffffffffffffffffffffffffffffffff19166001600160801b0384811691821790925560408051928416835260208301919091527f1a00ffbf809fff37e16cae3ef72eff8b8199479b0d75443768bdee2e6f409293910160405180910390a15050565b600e818154811061179957600080fd5b90600052602060002090600602016000915090508060000180546117bc9061358e565b80601f01602080910402602001604051908101604052809291908181526020018280546117e89061358e565b80156118355780601f1061180a57610100808354040283529160200191611835565b820191906000526020600020905b81548152906001019060200180831161181857829003601f168201915b50505060018401546002850154600386015460048701546005909701549596929591945092506001600160601b038216916001600160a01b03600160601b9091048116919081169060ff600160a01b9091041688565b611893612fdb565b60003390506000600e8365ffffffffffff16815481106118b5576118b5613578565b9060005260206000209060060201604051806101000160405290816000820180546118df9061358e565b80601f016020809104026020016040519081016040528092919081815260200182805461190b9061358e565b80156119585780601f1061192d57610100808354040283529160200191611958565b820191906000526020600020905b81548152906001019060200180831161193b57829003601f168201915b505050918352505060018201546020820152600282015460408201526003820154606082015260048201546001600160601b0381166080830152600160601b90046001600160a01b0390811660a08084019190915260059093015480821660c0840152600160a01b900460ff16151560e0909201919091529082015191925090811690831603611b52578060e0015115611a265760405162461bcd60e51b815260206004820152600f60248201526e185b1c9958591e4818db185a5b5959608a1b604482015260640161065f565b6001600e8465ffffffffffff1681548110611a4357611a43613578565b906000526020600020906006020160050160146101000a81548160ff0219169083151502179055506000611a91826020015183604001518460600151611a8c866020015161304e565b613079565b509150508060096000828254611aa79190613869565b909155505060208201516040516000916001600160a01b038616918381818185875af1925050503d8060008114611afa576040519150601f19603f3d011682016040523d82523d6000602084013e611aff565b606091505b5050905080611b4b5760405162461bcd60e51b8152602060048201526018602482015277151c985b9cd858dd1a5bdb881d5b9cdd58d8d95cdcd99d5b60421b604482015260640161065f565b5050610c94565b6001600160a01b0382166000908152600a60209081526040808320608085015165ffffffffffff168452825280832054918401519084015160608501519293928392611ba092909186613079565b6001600160a01b038881166000818152600a6020908152604080832060808d015165ffffffffffff1684529091528082209190915560c08a0151905163a9059cbb60e01b8152600481019290925260248201869052949650919450929092169163a9059cbb91506044016020604051808303816000875af1158015611c29573d6000803e3d6000fd5b505050506040513d601f19601f82011682018060405250810190611c4d9190613556565b611c915760405162461bcd60e51b8152602060048201526015602482015274151c985b9cd9995c881d5b9cdd58d8d95cdcd99d5b605a1b604482015260640161065f565b6000856001600160a01b03168260405160006040518083038185875af1925050503d8060008114611cde576040519150601f19603f3d011682016040523d82523d6000602084013e611ce3565b606091505b5050905080611d2f5760405162461bcd60e51b8152602060048201526018602482015277151c985b9cd858dd1a5bdb881d5b9cdd58d8d95cdcd99d5b60421b604482015260640161065f565b505050505050610ca06001600055565b611d47612fdb565b600360009054906101000a90046001600160a01b03166001600160a01b0316638da5cb5b6040518163ffffffff1660e01b81526004016020604051808303816000875af1158015611d9c573d6000803e3d6000fd5b505050506040513d601f19601f82011682018060405250810190611dc09190613809565b6001600160a01b0316336001600160a01b031614611df1576040516331248db360e21b815260040161065f90613826565b6004805460405163095ea7b360e01b81526001600160a01b03918216928101929092526024820185905285169063095ea7b3906044016020604051808303816000875af1158015611e46573d6000803e3d6000fd5b505050506040513d601f19601f82011682018060405250810190611e6a9190613556565b611ea75760405162461bcd60e51b815260206004820152600e60248201526d185c1c1c9bdd994819985a5b195960921b604482015260640161065f565b6040805160028082526060820183526000926020830190803683370190505090508481600081518110611edc57611edc613578565b60200260200101906001600160a01b031690816001600160a01b031681525050600460009054906101000a90046001600160a01b03166001600160a01b031663ad5c46486040518163ffffffff1660e01b81526004016020604051808303816000875af1158015611f51573d6000803e3d6000fd5b505050506040513d601f19601f82011682018060405250810190611f759190613809565b81600181518110611f8857611f88613578565b60200260200101906001600160a01b031690816001600160a01b0316815250506000836001600160a01b031663feaf968c6040518163ffffffff1660e01b815260040160a060405180830381865afa158015611fe8573d6000803e3d6000fd5b505050506040513d601f19601f8201168201806040525081019061200c9190613769565b5050509150506000811315612092576004546001600160a01b03166318cbafe58683853061203b4260146135d8565b6040518663ffffffff1660e01b815260040161205b95949392919061387c565b600060405180830381600087803b15801561207557600080fd5b505af1158015612089573d6000803e3d6000fd5b50505050612105565b6004546001600160a01b03166318cbafe5868585306120b24260146135d8565b6040518663ffffffff1660e01b81526004016120d295949392919061387c565b600060405180830381600087803b1580156120ec57600080fd5b505af1158015612100573d6000803e3d6000fd5b505050505b50506114a26001600055565b612119612fdb565b600360009054906101000a90046001600160a01b03166001600160a01b0316638da5cb5b6040518163ffffffff1660e01b81526004016020604051808303816000875af115801561216e573d6000803e3d6000fd5b505050506040513d601f19601f820116820180604052508101906121929190613809565b6001600160a01b0316336001600160a01b0316146121c3576040516331248db360e21b815260040161065f90613826565b6004805460405163095ea7b360e01b81526001600160a01b03918216928101929092526024820185905286169063095ea7b3906044016020604051808303816000875af1158015612218573d6000803e3d6000fd5b505050506040513d601f19601f8201168201806040525081019061223c9190613556565b6122795760405162461bcd60e51b815260206004820152600e60248201526d185c1c1c9bdd994819985a5b195960921b604482015260640161065f565b604080516003808252608082019092526000916020820160608036833701905050905085816000815181106122b0576122b0613578565b60200260200101906001600160a01b031690816001600160a01b031681525050600460009054906101000a90046001600160a01b03166001600160a01b031663ad5c46486040518163ffffffff1660e01b81526004016020604051808303816000875af1158015612325573d6000803e3d6000fd5b505050506040513d601f19601f820116820180604052508101906123499190613809565b8160018151811061235c5761235c613578565b60200260200101906001600160a01b031690816001600160a01b031681525050848160028151811061239057612390613578565b60200260200101906001600160a01b031690816001600160a01b0316815250506000836001600160a01b031663feaf968c6040518163ffffffff1660e01b815260040160a060405180830381865afa1580156123f0573d6000803e3d6000fd5b505050506040513d601f19601f820116820180604052508101906124149190613769565b505050915050600081131561249a576004546001600160a01b03166338ed1739868385306124434260146135d8565b6040518663ffffffff1660e01b815260040161246395949392919061387c565b600060405180830381600087803b15801561247d57600080fd5b505af1158015612491573d6000803e3d6000fd5b5050505061250d565b6004546001600160a01b03166338ed1739868585306124ba4260146135d8565b6040518663ffffffff1660e01b81526004016124da95949392919061387c565b600060405180830381600087803b1580156124f457600080fd5b505af1158015612508573d6000803e3d6000fd5b505050505b50506125196001600055565b5050505050565b612528612fdb565b600354604051632474521560e21b81526000805160206138ee83398151915260048201523360248201526001600160a01b03909116906391d14854906044016020604051808303816000875af1158015612586573d6000803e3d6000fd5b505050506040513d601f19601f820116820180604052508101906125aa9190613556565b6125e8576040516331248db360e21b815260206004820152600e60248201526d4f6e6c7920496e766573746f727360901b604482015260640161065f565b60003490506000600d8365ffffffffffff168154811061260a5761260a613578565b9060005260206000209060060201604051806101200160405290816000820180546126349061358e565b80601f01602080910402602001604051908101604052809291908181526020018280546126609061358e565b80156126ad5780601f10612682576101008083540402835291602001916126ad565b820191906000526020600020905b81548152906001019060200180831161269057829003601f168201915b505050918352505060018201546001600160a01b038082166020840152600160a01b820464ffffffffff908116604080860191909152600160c81b840465ffffffffffff166060860152600160f81b90930460ff1615156080850152600285015460a0850152600385015460c0850152600485015460e08501526005909401541661010090920191909152820151919250164210612958578060a001518160e0015111156128d7576001600d8465ffffffffffff168154811061277257612772613578565b600091825260208083206001600693840290910181018054951515600160f81b026001600160f81b03909616959095179094556040805161010081810183528751825260a0808901518386015260e0808a01519484019490945260c0808a01516060808601919091528a015165ffffffffffff166080850152948901516001600160a01b03908116918401919091529088015116928101929092528101839052600e8054948501815590925281519192027fbb7b4a454dc3493923482f07822329ed19e8244eff582cc204f8554c3620c3fd01908190612852908261363a565b50602082015160018201556040820151600282015560608201516003820155608082015160a08301516001600160601b03909116600160601b6001600160a01b039283160217600483015560c08301516005909201805460e090940151929091166001600160a81b031990931692909217600160a01b91151591909102179055610c94565b6000600d8465ffffffffffff16815481106128f4576128f4613578565b9060005260206000209060060201600301819055508061010001516001600160a01b031663a9059cbb82602001518360c001516040518363ffffffff1660e01b81526004016109939291906001600160a01b03929092168252602082015260400190565b336000908152600a6020908152604080832065ffffffffffff871684529091528120805484929061298a9084906135d8565b9250508190555081600d8465ffffffffffff16815481106129ad576129ad613578565b906000526020600020906006020160040160008282546129cd91906135d8565b90915550505050610ca06001600055565b600c81815481106129ee57600080fd5b9060005260206000209060060201600091509050806000018054612a119061358e565b80601f0160208091040260200160405190810160405280929190818152602001828054612a3d9061358e565b8015612a8a5780601f10612a5f57610100808354040283529160200191612a8a565b820191906000526020600020905b815481529060010190602001808311612a6d57829003601f168201915b5050506001840154600285015460038601546004870154600590970154959664ffffffffff8416966001600160a01b036501000000000086048116975065ffffffffffff600160c81b870416965060ff600160f81b90960486169594909416931689565b600080600d8365ffffffffffff1681548110612b0c57612b0c613578565b906000526020600020906006020160405180610120016040529081600082018054612b369061358e565b80601f0160208091040260200160405190810160405280929190818152602001828054612b629061358e565b8015612baf5780601f10612b8457610100808354040283529160200191612baf565b820191906000526020600020905b815481529060010190602001808311612b9257829003601f168201915b505050918352505060018201546001600160a01b038082166020840152600160a01b820464ffffffffff908116604080860191909152600160c81b840465ffffffffffff166060860152600160f81b90930460ff1615156080850152600285015460a0850152600385015460c0850152600485015460e08501526005909401541661010090920191909152820151919250164210801590612c5757508060a001518160e00151105b15612c655750600192915050565b50600092915050565b50919050565b6040516370a0823160e01b81523060048201526000906001600160a01b038316906370a0823190602401602060405180830381865afa158015612cbb573d6000803e3d6000fd5b505050506040513d601f19601f82011682018060405250810190612cdf9190613736565b92915050565b600654600090339034906001600160801b0316811015612d5957604051623290fb60e51b815260206004820152602960248201527f56454e44414f3a20666565206973206c657373207468616e207468652072657160448201526875697265642066656560b81b606482015260840161065f565b8060096000828254612d6b91906135d8565b9091555050600354604051632f2ff15d60e01b81526000805160206138ee83398151915260048201526001600160a01b03848116602483015290911690632f2ff15d90604401600060405180830381600087803b158015612dcb57600080fd5b505af1158015612ddf573d6000803e3d6000fd5b505060025460405163207b7ad360e01b81526001600160a01b038681166004830152909116925063207b7ad391506024016020604051808303816000875af1158015612e2f573d6000803e3d6000fd5b505050506040513d601f19601f82011682018060405250810190612e539190613736565b6001600160a01b0383166000818152600b6020908152604091829020849055815192835282018390529194507fae376cac307102c65a5b844d1028d65fd85ec78ad35b5950ec5f0828dffba27c910160405180910390a1505090565b60075460035460408051638da5cb5b60e01b815290516001600160801b0380851694600160801b900416926001600160a01b031691638da5cb5b91600480830192602092919082900301816000875af1158015612f10573d6000803e3d6000fd5b505050506040513d601f19601f82011682018060405250810190612f349190613809565b6001600160a01b0316336001600160a01b031614612f65576040516331248db360e21b815260040161065f90613826565b6001600160801b03838116600160801b9081028683168181176007819055604080518887168152938616909217602084015285851683830152929092049092166060830152517f4ccefbdcad8296034e7a0377e28f57163b88645f7aa37fb340356e03086da8229181900360800190a150505050565b60026000540361302d5760405162461bcd60e51b815260206004820152601f60248201527f5265656e7472616e637947756172643a207265656e7472616e742063616c6c00604482015260640161065f565b6002600055565b60006127106130448360016137b9565b612cdf91906137d0565b600080606461305e84600a6137b9565b61306891906137d0565b90508060095410612c655792915050565b600080808561308885876137b9565b61309291906137d0565b92508561309f85896137b9565b6130a991906137d0565b91506130b58285613869565b90509450945094915050565b6000602082840312156130d357600080fd5b813565ffffffffffff811681146130e957600080fd5b9392505050565b6001600160a01b0381168114610ca057600080fd5b60008060006060848603121561311a57600080fd5b8335613125816130f0565b92506020840135613135816130f0565b91506040840135613145816130f0565b809150509250925092565b634e487b7160e01b600052604160045260246000fd5b8035613171816130f0565b919050565b6000806000806080858703121561318c57600080fd5b843567ffffffffffffffff808211156131a457600080fd5b818701915087601f8301126131b857600080fd5b8135818111156131ca576131ca613150565b604051601f8201601f19908116603f011681019083821181831017156131f2576131f2613150565b816040528281528a602084870101111561320b57600080fd5b826020860160208301376000602084830101528098505050505050602085013592506040850135915061324060608601613166565b905092959194509250565b60006020828403121561325d57600080fd5b5035919050565b6000815180845260005b8181101561328a5760208185018101518683018201520161326e565b506000602082860101526020601f19601f83011685010191505092915050565b60006101208083526132be8184018d613264565b6001600160a01b039b8c16602085015264ffffffffff9a909a166040840152505065ffffffffffff969096166060870152931515608086015260a085019290925260c084015260e083015290921661010090920191909152919050565b80356001600160801b038116811461317157600080fd5b60006020828403121561334457600080fd5b6130e98261331b565b60006101008083526133618184018c613264565b602084019a909a525050604081019690965260608601949094526001600160601b039290921660808501526001600160a01b0390811660a08501521660c0830152151560e090910152919050565b600080600080608085870312156133c557600080fd5b84356133d0816130f0565b93506020850135925060408501356133e7816130f0565b9396929550929360600135925050565b600080600080600060a0868803121561340f57600080fd5b853561341a816130f0565b9450602086013561342a816130f0565b9350604086013592506060860135613441816130f0565b949793965091946080013592915050565b634e487b7160e01b600052602160045260246000fd5b600061012080835261347c8184018d613264565b64ffffffffff8c1660208501526001600160a01b038b16604085015265ffffffffffff8a16606085015260ff89166080850152915050600386106134d057634e487b7160e01b600052602160045260246000fd5b8560a08301528460c08301528360e08301526134f86101008301846001600160a01b03169052565b9a9950505050505050505050565b60006020828403121561351857600080fd5b81356130e9816130f0565b6000806040838503121561353657600080fd5b61353f8361331b565b915061354d6020840161331b565b90509250929050565b60006020828403121561356857600080fd5b815180151581146130e957600080fd5b634e487b7160e01b600052603260045260246000fd5b600181811c908216806135a257607f821691505b602082108103612c6e57634e487b7160e01b600052602260045260246000fd5b634e487b7160e01b600052601160045260246000fd5b80820180821115612cdf57612cdf6135c2565b601f82111561363557600081815260208120601f850160051c810160208610156136125750805b601f850160051c820191505b818110156136315782815560010161361e565b5050505b505050565b815167ffffffffffffffff81111561365457613654613150565b61366881613662845461358e565b846135eb565b602080601f83116001811461369d57600084156136855750858301515b600019600386901b1c1916600185901b178555613631565b600085815260208120601f198616915b828110156136cc578886015182559484019460019091019084016136ad565b50858210156136ea5787850151600019600388901b60f8161c191681555b5050505050600190811b01905550565b634e487b7160e01b600052601260045260246000fd5b60006001600160801b038084168061372a5761372a6136fa565b92169190910492915050565b60006020828403121561374857600080fd5b5051919050565b805169ffffffffffffffffffff8116811461317157600080fd5b600080600080600060a0868803121561378157600080fd5b61378a8661374f565b94506020860151935060408601519250606086015191506137ad6080870161374f565b90509295509295909350565b8082028115828204841417612cdf57612cdf6135c2565b6000826137df576137df6136fa565b500490565b64ffffffffff818116838216019080821115613802576138026135c2565b5092915050565b60006020828403121561381b57600080fd5b81516130e9816130f0565b60208082526023908201527f56454e44414f3a204f6e6c792061646d696e2063616e20616c746572206368616040820152626e676560e81b606082015260800190565b81810381811115612cdf57612cdf6135c2565b600060a082018783526020878185015260a0604085015281875180845260c086019150828901935060005b818110156138cc5784516001600160a01b0316835293830193918301916001016138a7565b50506001600160a01b0396909616606085015250505060800152939250505056fe5614e11ca6d7673c9c8dcec913465d676494aad1151bb2c1cf40b9d99be4d935a26469706673582212200b547eccbb3020e8dc6282f7c2396931331620420857d77efa07f7172c1d69a564736f6c63430008120033",
    "linkReferences": {}
  },
  "methodIdentifiers": {
    "FTM_PRICE_FEED()": "803d3b3e",
    "INVESTOR()": "68e3d6f7",
    "NOMINATED_ADMINS()": "0b68af0f",
    "VenAccessControl()": "4ced5a08",
    "VenAccessTicket()": "bd28cac9",
    "claim(uint48)": "81242403",
    "examineProject(uint48)": "0142476a",
    "ftmBalance()": "505cfaab",
    "init(address,address,address)": "184b9559",
    "invest(uint48)": "d011f216",
    "investTime()": "15938789",
    "joinDAO()": "f63d13d7",
    "leaveDAO()": "1de7df41",
    "pauseProposal()": "6658cc76",
    "projectFunded(uint256)": "79585aa8",
    "projectNotSuccessful(uint48)": "e091eaf6",
    "projectProposals(uint256)": "dbc1d569",
    "proposalTime()": "184a0ae9",
    "proposalsToInvest(uint256)": "637f8af5",
    "proposeProject(string,uint256,uint256,address)": "38d698bf",
    "setAcceptanceFee(uint128)": "6765e074",
    "setTime(uint128,uint128)": "f76d1d8c",
    "spookySwap()": "7c71e119",
    "takeProfitInFTM(address,uint256,address,uint256)": "9e8748bb",
    "takeProfitInStable(address,address,uint256,address,uint256)": "b3840132",
    "tokenBalance(address)": "eedc966a",
    "validityTime()": "042bea85"
  },
  "id": 4
}