{
  "abi": [
    {
      "inputs": [],
      "stateMutability": "nonpayable",
      "type": "constructor"
    },
    {
      "inputs": [
        {
          "internalType": "string",
          "name": "",
          "type": "string"
        }
      ],
      "name": "notAdmin",
      "type": "error"
    },
    {
      "anonymous": false,
      "inputs": [
        {
          "indexed": true,
          "internalType": "address",
          "name": "owner",
          "type": "address"
        },
        {
          "indexed": true,
          "internalType": "address",
          "name": "approved",
          "type": "address"
        },
        {
          "indexed": true,
          "internalType": "uint256",
          "name": "tokenId",
          "type": "uint256"
        }
      ],
      "name": "Approval",
      "type": "event"
    },
    {
      "anonymous": false,
      "inputs": [
        {
          "indexed": true,
          "internalType": "address",
          "name": "owner",
          "type": "address"
        },
        {
          "indexed": true,
          "internalType": "address",
          "name": "operator",
          "type": "address"
        },
        {
          "indexed": false,
          "internalType": "bool",
          "name": "approved",
          "type": "bool"
        }
      ],
      "name": "ApprovalForAll",
      "type": "event"
    },
    {
      "anonymous": false,
      "inputs": [],
      "name": "DefaultAdminDelayChangeCanceled",
      "type": "event"
    },
    {
      "anonymous": false,
      "inputs": [
        {
          "indexed": false,
          "internalType": "uint48",
          "name": "newDelay",
          "type": "uint48"
        },
        {
          "indexed": false,
          "internalType": "uint48",
          "name": "effectSchedule",
          "type": "uint48"
        }
      ],
      "name": "DefaultAdminDelayChangeScheduled",
      "type": "event"
    },
    {
      "anonymous": false,
      "inputs": [],
      "name": "DefaultAdminTransferCanceled",
      "type": "event"
    },
    {
      "anonymous": false,
      "inputs": [
        {
          "indexed": true,
          "internalType": "address",
          "name": "newAdmin",
          "type": "address"
        },
        {
          "indexed": false,
          "internalType": "uint48",
          "name": "acceptSchedule",
          "type": "uint48"
        }
      ],
      "name": "DefaultAdminTransferScheduled",
      "type": "event"
    },
    {
      "anonymous": false,
      "inputs": [
        {
          "indexed": true,
          "internalType": "bytes32",
          "name": "role",
          "type": "bytes32"
        },
        {
          "indexed": true,
          "internalType": "bytes32",
          "name": "previousAdminRole",
          "type": "bytes32"
        },
        {
          "indexed": true,
          "internalType": "bytes32",
          "name": "newAdminRole",
          "type": "bytes32"
        }
      ],
      "name": "RoleAdminChanged",
      "type": "event"
    },
    {
      "anonymous": false,
      "inputs": [
        {
          "indexed": true,
          "internalType": "bytes32",
          "name": "role",
          "type": "bytes32"
        },
        {
          "indexed": true,
          "internalType": "address",
          "name": "account",
          "type": "address"
        },
        {
          "indexed": true,
          "internalType": "address",
          "name": "sender",
          "type": "address"
        }
      ],
      "name": "RoleGranted",
      "type": "event"
    },
    {
      "anonymous": false,
      "inputs": [
        {
          "indexed": true,
          "internalType": "bytes32",
          "name": "role",
          "type": "bytes32"
        },
        {
          "indexed": true,
          "internalType": "address",
          "name": "account",
          "type": "address"
        },
        {
          "indexed": true,
          "internalType": "address",
          "name": "sender",
          "type": "address"
        }
      ],
      "name": "RoleRevoked",
      "type": "event"
    },
    {
      "anonymous": false,
      "inputs": [
        {
          "indexed": true,
          "internalType": "address",
          "name": "from",
          "type": "address"
        },
        {
          "indexed": true,
          "internalType": "address",
          "name": "to",
          "type": "address"
        },
        {
          "indexed": true,
          "internalType": "uint256",
          "name": "tokenId",
          "type": "uint256"
        }
      ],
      "name": "Transfer",
      "type": "event"
    },
    {
      "inputs": [],
      "name": "DEFAULT_ADMIN_ROLE",
      "outputs": [
        {
          "internalType": "bytes32",
          "name": "",
          "type": "bytes32"
        }
      ],
      "stateMutability": "view",
      "type": "function"
    },
    {
      "inputs": [],
      "name": "NOMINATED_ADMINS",
      "outputs": [
        {
          "internalType": "bytes32",
          "name": "",
          "type": "bytes32"
        }
      ],
      "stateMutability": "view",
      "type": "function"
    },
    {
      "inputs": [],
      "name": "acceptDefaultAdminTransfer",
      "outputs": [],
      "stateMutability": "nonpayable",
      "type": "function"
    },
    {
      "inputs": [
        {
          "internalType": "address",
          "name": "to",
          "type": "address"
        },
        {
          "internalType": "uint256",
          "name": "tokenId",
          "type": "uint256"
        }
      ],
      "name": "approve",
      "outputs": [],
      "stateMutability": "nonpayable",
      "type": "function"
    },
    {
      "inputs": [
        {
          "internalType": "address",
          "name": "owner",
          "type": "address"
        }
      ],
      "name": "balanceOf",
      "outputs": [
        {
          "internalType": "uint256",
          "name": "",
          "type": "uint256"
        }
      ],
      "stateMutability": "view",
      "type": "function"
    },
    {
      "inputs": [
        {
          "internalType": "address",
          "name": "newAdmin",
          "type": "address"
        }
      ],
      "name": "beginDefaultAdminTransfer",
      "outputs": [],
      "stateMutability": "nonpayable",
      "type": "function"
    },
    {
      "inputs": [],
      "name": "cancelDefaultAdminTransfer",
      "outputs": [],
      "stateMutability": "nonpayable",
      "type": "function"
    },
    {
      "inputs": [
        {
          "internalType": "uint48",
          "name": "newDelay",
          "type": "uint48"
        }
      ],
      "name": "changeDefaultAdminDelay",
      "outputs": [],
      "stateMutability": "nonpayable",
      "type": "function"
    },
    {
      "inputs": [],
      "name": "defaultAdmin",
      "outputs": [
        {
          "internalType": "address",
          "name": "",
          "type": "address"
        }
      ],
      "stateMutability": "view",
      "type": "function"
    },
    {
      "inputs": [],
      "name": "defaultAdminDelay",
      "outputs": [
        {
          "internalType": "uint48",
          "name": "",
          "type": "uint48"
        }
      ],
      "stateMutability": "view",
      "type": "function"
    },
    {
      "inputs": [],
      "name": "defaultAdminDelayIncreaseWait",
      "outputs": [
        {
          "internalType": "uint48",
          "name": "",
          "type": "uint48"
        }
      ],
      "stateMutability": "view",
      "type": "function"
    },
    {
      "inputs": [
        {
          "internalType": "uint256",
          "name": "tokenId",
          "type": "uint256"
        }
      ],
      "name": "getApproved",
      "outputs": [
        {
          "internalType": "address",
          "name": "",
          "type": "address"
        }
      ],
      "stateMutability": "view",
      "type": "function"
    },
    {
      "inputs": [
        {
          "internalType": "bytes32",
          "name": "role",
          "type": "bytes32"
        }
      ],
      "name": "getRoleAdmin",
      "outputs": [
        {
          "internalType": "bytes32",
          "name": "",
          "type": "bytes32"
        }
      ],
      "stateMutability": "view",
      "type": "function"
    },
    {
      "inputs": [
        {
          "internalType": "bytes32",
          "name": "role",
          "type": "bytes32"
        },
        {
          "internalType": "address",
          "name": "account",
          "type": "address"
        }
      ],
      "name": "grantRole",
      "outputs": [],
      "stateMutability": "nonpayable",
      "type": "function"
    },
    {
      "inputs": [
        {
          "internalType": "bytes32",
          "name": "role",
          "type": "bytes32"
        },
        {
          "internalType": "address",
          "name": "account",
          "type": "address"
        }
      ],
      "name": "hasRole",
      "outputs": [
        {
          "internalType": "bool",
          "name": "",
          "type": "bool"
        }
      ],
      "stateMutability": "view",
      "type": "function"
    },
    {
      "inputs": [
        {
          "internalType": "address",
          "name": "owner",
          "type": "address"
        },
        {
          "internalType": "address",
          "name": "operator",
          "type": "address"
        }
      ],
      "name": "isApprovedForAll",
      "outputs": [
        {
          "internalType": "bool",
          "name": "",
          "type": "bool"
        }
      ],
      "stateMutability": "view",
      "type": "function"
    },
    {
      "inputs": [],
      "name": "joinDAO",
      "outputs": [],
      "stateMutability": "payable",
      "type": "function"
    },
    {
      "inputs": [],
      "name": "name",
      "outputs": [
        {
          "internalType": "string",
          "name": "",
          "type": "string"
        }
      ],
      "stateMutability": "view",
      "type": "function"
    },
    {
      "inputs": [],
      "name": "owner",
      "outputs": [
        {
          "internalType": "address",
          "name": "",
          "type": "address"
        }
      ],
      "stateMutability": "view",
      "type": "function"
    },
    {
      "inputs": [
        {
          "internalType": "uint256",
          "name": "tokenId",
          "type": "uint256"
        }
      ],
      "name": "ownerOf",
      "outputs": [
        {
          "internalType": "address",
          "name": "",
          "type": "address"
        }
      ],
      "stateMutability": "view",
      "type": "function"
    },
    {
      "inputs": [],
      "name": "pendingDefaultAdmin",
      "outputs": [
        {
          "internalType": "address",
          "name": "newAdmin",
          "type": "address"
        },
        {
          "internalType": "uint48",
          "name": "schedule",
          "type": "uint48"
        }
      ],
      "stateMutability": "view",
      "type": "function"
    },
    {
      "inputs": [],
      "name": "pendingDefaultAdminDelay",
      "outputs": [
        {
          "internalType": "uint48",
          "name": "newDelay",
          "type": "uint48"
        },
        {
          "internalType": "uint48",
          "name": "schedule",
          "type": "uint48"
        }
      ],
      "stateMutability": "view",
      "type": "function"
    },
    {
      "inputs": [
        {
          "internalType": "bytes32",
          "name": "role",
          "type": "bytes32"
        },
        {
          "internalType": "address",
          "name": "account",
          "type": "address"
        }
      ],
      "name": "renounceRole",
      "outputs": [],
      "stateMutability": "nonpayable",
      "type": "function"
    },
    {
      "inputs": [
        {
          "internalType": "bytes32",
          "name": "role",
          "type": "bytes32"
        },
        {
          "internalType": "address",
          "name": "account",
          "type": "address"
        }
      ],
      "name": "revokeRole",
      "outputs": [],
      "stateMutability": "nonpayable",
      "type": "function"
    },
    {
      "inputs": [],
      "name": "rollbackDefaultAdminDelay",
      "outputs": [],
      "stateMutability": "nonpayable",
      "type": "function"
    },
    {
      "inputs": [
        {
          "internalType": "address",
          "name": "from",
          "type": "address"
        },
        {
          "internalType": "address",
          "name": "to",
          "type": "address"
        },
        {
          "internalType": "uint256",
          "name": "tokenId",
          "type": "uint256"
        }
      ],
      "name": "safeTransferFrom",
      "outputs": [],
      "stateMutability": "nonpayable",
      "type": "function"
    },
    {
      "inputs": [
        {
          "internalType": "address",
          "name": "from",
          "type": "address"
        },
        {
          "internalType": "address",
          "name": "to",
          "type": "address"
        },
        {
          "internalType": "uint256",
          "name": "tokenId",
          "type": "uint256"
        },
        {
          "internalType": "bytes",
          "name": "data",
          "type": "bytes"
        }
      ],
      "name": "safeTransferFrom",
      "outputs": [],
      "stateMutability": "nonpayable",
      "type": "function"
    },
    {
      "inputs": [
        {
          "internalType": "uint128",
          "name": "_acceptance",
          "type": "uint128"
        }
      ],
      "name": "setAcceptanceFee",
      "outputs": [],
      "stateMutability": "nonpayable",
      "type": "function"
    },
    {
      "inputs": [
        {
          "internalType": "address",
          "name": "operator",
          "type": "address"
        },
        {
          "internalType": "bool",
          "name": "approved",
          "type": "bool"
        }
      ],
      "name": "setApprovalForAll",
      "outputs": [],
      "stateMutability": "nonpayable",
      "type": "function"
    },
    {
      "inputs": [
        {
          "internalType": "bytes4",
          "name": "interfaceId",
          "type": "bytes4"
        }
      ],
      "name": "supportsInterface",
      "outputs": [
        {
          "internalType": "bool",
          "name": "",
          "type": "bool"
        }
      ],
      "stateMutability": "view",
      "type": "function"
    },
    {
      "inputs": [],
      "name": "symbol",
      "outputs": [
        {
          "internalType": "string",
          "name": "",
          "type": "string"
        }
      ],
      "stateMutability": "view",
      "type": "function"
    },
    {
      "inputs": [
        {
          "internalType": "uint256",
          "name": "tokenId",
          "type": "uint256"
        }
      ],
      "name": "tokenURI",
      "outputs": [
        {
          "internalType": "string",
          "name": "",
          "type": "string"
        }
      ],
      "stateMutability": "view",
      "type": "function"
    },
    {
      "inputs": [
        {
          "internalType": "address",
          "name": "from",
          "type": "address"
        },
        {
          "internalType": "address",
          "name": "to",
          "type": "address"
        },
        {
          "internalType": "uint256",
          "name": "tokenId",
          "type": "uint256"
        }
      ],
      "name": "transferFrom",
      "outputs": [],
      "stateMutability": "nonpayable",
      "type": "function"
    }
  ],
  "bytecode": {
    "object": "0x60806040523480156200001157600080fd5b5062069780336040518060400160405280600681526020016556656e64616f60d01b815250604051806040016040528060038152602001622b32b760e91b8152508160009081620000639190620003ef565b506001620000728282620003ef565b5050506001600160a01b038116620000d15760405162461bcd60e51b815260206004820152601e60248201527f416363657373436f6e74726f6c3a20302064656661756c742061646d696e000060448201526064015b60405180910390fd5b600780546001600160d01b0316600160d01b65ffffffffffff851602179055620000fd60008262000133565b506200012d90507f805825d85bde9bb3e5b217a4d2768db01dd95dca2e6b6cdd1e108fb2c1a45cd96000620001e7565b620004bb565b81620001d75760006200014e6008546001600160a01b031690565b6001600160a01b031614620001bb5760405162461bcd60e51b815260206004820152602c60248201527f416363657373436f6e74726f6c3a2064656661756c742061646d696e20616c7260448201526b1958591e4819dc985b9d195960a21b6064820152608401620000c8565b600880546001600160a01b0319166001600160a01b0383161790555b620001e382826200025b565b5050565b816200024f5760405162461bcd60e51b815260206004820152603060248201527f416363657373436f6e74726f6c3a2063616e27742076696f6c6174652064656660448201526f61756c742061646d696e2072756c657360801b6064820152608401620000c8565b620001e38282620002ff565b60008281526006602090815260408083206001600160a01b038516845290915290205460ff16620001e35760008281526006602090815260408083206001600160a01b03851684529091529020805460ff19166001179055620002bb3390565b6001600160a01b0316816001600160a01b0316837f2f8788117e7eff1d82e926ec794901d17c78024a50270940304540a733656f0d60405160405180910390a45050565b600082815260066020526040808220600101805490849055905190918391839186917fbd79b86ffe0ab8e8776151514217cd7cacd52c909f66475c3af44e129f0b00ff9190a4505050565b634e487b7160e01b600052604160045260246000fd5b600181811c908216806200037557607f821691505b6020821081036200039657634e487b7160e01b600052602260045260246000fd5b50919050565b601f821115620003ea57600081815260208120601f850160051c81016020861015620003c55750805b601f850160051c820191505b81811015620003e657828155600101620003d1565b5050505b505050565b81516001600160401b038111156200040b576200040b6200034a565b62000423816200041c845462000360565b846200039c565b602080601f8311600181146200045b5760008415620004425750858301515b600019600386901b1c1916600185901b178555620003e6565b600085815260208120601f198616915b828110156200048c578886015182559484019460019091019084016200046b565b5085821015620004ab5787850151600019600388901b60f8161c191681555b5050505050600190811b01905550565b6123fd80620004cb6000396000f3fe6080604052600436106101ee5760003560e01c806370a082311161010d578063b88d4fde116100a0578063cf6eefb71161006f578063cf6eefb7146105af578063d547741f146105ea578063d602b9fd1461060a578063e985e9c51461061f578063f63d13d7146102cb57600080fd5b8063b88d4fde14610545578063c87b56dd14610565578063cc8463c814610585578063cefc14291461059a57600080fd5b806395d89b41116100dc57806395d89b41146104c7578063a1eda53c146104dc578063a217fddf14610510578063a22cb4651461052557600080fd5b806370a082311461045457806384ef8ffc146104745780638da5cb5b1461049257806391d14854146104a757600080fd5b8063248a9ca311610185578063634e93da11610154578063634e93da146103d45780636352211e146103f4578063649a5ec7146104145780636765e0741461043457600080fd5b8063248a9ca3146103445780632f2ff15d1461037457806336568abe1461039457806342842e0e146103b457600080fd5b8063095ea7b3116101c1578063095ea7b3146102ab5780630aa6220b146102cd5780630b68af0f146102e257806323b872dd1461032457600080fd5b806301ffc9a7146101f3578063022d63fb1461022857806306fdde0314610251578063081812fc14610273575b600080fd5b3480156101ff57600080fd5b5061021361020e366004611dee565b610668565b60405190151581526020015b60405180910390f35b34801561023457600080fd5b50620697805b60405165ffffffffffff909116815260200161021f565b34801561025d57600080fd5b50610266610679565b60405161021f9190611e5b565b34801561027f57600080fd5b5061029361028e366004611e6e565b61070b565b6040516001600160a01b03909116815260200161021f565b3480156102b757600080fd5b506102cb6102c6366004611ea3565b610732565b005b3480156102d957600080fd5b506102cb61084c565b3480156102ee57600080fd5b506103167f805825d85bde9bb3e5b217a4d2768db01dd95dca2e6b6cdd1e108fb2c1a45cd981565b60405190815260200161021f565b34801561033057600080fd5b506102cb61033f366004611ecd565b610862565b34801561035057600080fd5b5061031661035f366004611e6e565b60009081526006602052604090206001015490565b34801561038057600080fd5b506102cb61038f366004611f09565b610893565b3480156103a057600080fd5b506102cb6103af366004611f09565b61090d565b3480156103c057600080fd5b506102cb6103cf366004611ecd565b6109f7565b3480156103e057600080fd5b506102cb6103ef366004611f35565b610a12565b34801561040057600080fd5b5061029361040f366004611e6e565b610a26565b34801561042057600080fd5b506102cb61042f366004611f50565b610a86565b34801561044057600080fd5b506102cb61044f366004611f78565b610a9a565b34801561046057600080fd5b5061031661046f366004611f35565b610b3a565b34801561048057600080fd5b506008546001600160a01b0316610293565b34801561049e57600080fd5b50610293610bc0565b3480156104b357600080fd5b506102136104c2366004611f09565b610bd9565b3480156104d357600080fd5b50610266610c04565b3480156104e857600080fd5b506104f1610c13565b6040805165ffffffffffff93841681529290911660208301520161021f565b34801561051c57600080fd5b50610316600081565b34801561053157600080fd5b506102cb610540366004611fa1565b610c67565b34801561055157600080fd5b506102cb610560366004611ff3565b610c72565b34801561057157600080fd5b50610266610580366004611e6e565b610caa565b34801561059157600080fd5b5061023a610d1e565b3480156105a657600080fd5b506102cb610d7d565b3480156105bb57600080fd5b506105c4610dfb565b604080516001600160a01b03909316835265ffffffffffff90911660208301520161021f565b3480156105f657600080fd5b506102cb610605366004611f09565b610e1c565b34801561061657600080fd5b506102cb610e99565b34801561062b57600080fd5b5061021361063a3660046120cf565b6001600160a01b03918216600090815260056020908152604080832093909416825291909152205460ff1690565b600061067382610eae565b92915050565b606060008054610688906120f9565b80601f01602080910402602001604051908101604052809291908181526020018280546106b4906120f9565b80156107015780601f106106d657610100808354040283529160200191610701565b820191906000526020600020905b8154815290600101906020018083116106e457829003601f168201915b5050505050905090565b600061071682610ed3565b506000908152600460205260409020546001600160a01b031690565b600061073d82610a26565b9050806001600160a01b0316836001600160a01b0316036107af5760405162461bcd60e51b815260206004820152602160248201527f4552433732313a20617070726f76616c20746f2063757272656e74206f776e656044820152603960f91b60648201526084015b60405180910390fd5b336001600160a01b03821614806107cb57506107cb813361063a565b61083d5760405162461bcd60e51b815260206004820152603d60248201527f4552433732313a20617070726f76652063616c6c6572206973206e6f7420746f60448201527f6b656e206f776e6572206f7220617070726f76656420666f7220616c6c00000060648201526084016107a6565b6108478383610f32565b505050565b600061085781610fa0565b61085f610faa565b50565b61086c3382610fb5565b6108885760405162461bcd60e51b81526004016107a690612133565b610847838383611034565b816108ff5760405162461bcd60e51b815260206004820152603660248201527f416363657373436f6e74726f6c3a2063616e2774206469726563746c79206772604482015275616e742064656661756c742061646d696e20726f6c6560501b60648201526084016107a6565b6109098282611198565b5050565b8115801561092857506008546001600160a01b038281169116145b156109ed57600080610938610dfb565b90925090506001600160a01b03821615801561095b575065ffffffffffff811615155b801561096e57504265ffffffffffff8216105b6109d85760405162461bcd60e51b815260206004820152603560248201527f416363657373436f6e74726f6c3a206f6e6c792063616e2072656e6f756e636560448201527420696e2074776f2064656c6179656420737465707360581b60648201526084016107a6565b50506007805465ffffffffffff60a01b191690555b61090982826111bd565b61084783838360405180602001604052806000815250610c72565b6000610a1d81610fa0565b61090982611237565b6000818152600260205260408120546001600160a01b0316806106735760405162461bcd60e51b8152602060048201526018602482015277115490cdcc8c4e881a5b9d985b1a59081d1bdad95b88125160421b60448201526064016107a6565b6000610a9181610fa0565b610909826112aa565b610aa2610bc0565b6001600160a01b0316336001600160a01b031614610b0f576040516331248db360e21b815260206004820152602360248201527f56454e44414f3a204f6e6c792061646d696e2063616e20616c746572206368616044820152626e676560e81b60648201526084016107a6565b600a80546fffffffffffffffffffffffffffffffff19166001600160801b0392909216919091179055565b60006001600160a01b038216610ba45760405162461bcd60e51b815260206004820152602960248201527f4552433732313a2061646472657373207a65726f206973206e6f7420612076616044820152683634b21037bbb732b960b91b60648201526084016107a6565b506001600160a01b031660009081526003602052604090205490565b6000610bd46008546001600160a01b031690565b905090565b60009182526006602090815260408084206001600160a01b0393909316845291905290205460ff1690565b606060018054610688906120f9565b600854600090600160d01b900465ffffffffffff168015158015610c3f57504265ffffffffffff821610155b610c4b57600080610c5f565b600854600160a01b900465ffffffffffff16815b915091509091565b61090933838361131a565b610c7c3383610fb5565b610c985760405162461bcd60e51b81526004016107a690612133565b610ca4848484846113e8565b50505050565b6060610cb582610ed3565b6000610ccc60408051602081019091526000815290565b90506000815111610cec5760405180602001604052806000815250610d17565b80610cf68461141b565b604051602001610d07929190612180565b6040516020818303038152906040525b9392505050565b600854600090600160d01b900465ffffffffffff168015158015610d4957504265ffffffffffff8216105b610d6457600754600160d01b900465ffffffffffff16610d77565b600854600160a01b900465ffffffffffff165b91505090565b6000610d87610dfb565b509050336001600160a01b03821614610df35760405162461bcd60e51b815260206004820152602860248201527f416363657373436f6e74726f6c3a2070656e64696e672061646d696e206d75736044820152671d081858d8d95c1d60c21b60648201526084016107a6565b61085f6114ae565b6007546001600160a01b03811691600160a01b90910465ffffffffffff1690565b81610e8f5760405162461bcd60e51b815260206004820152603760248201527f416363657373436f6e74726f6c3a2063616e2774206469726563746c7920726560448201527f766f6b652064656661756c742061646d696e20726f6c6500000000000000000060648201526084016107a6565b6109098282611579565b6000610ea481610fa0565b61085f61159e565b565b60006001600160e01b031982166318a4c3c360e11b14806106735750610673826115a9565b6000818152600260205260409020546001600160a01b031661085f5760405162461bcd60e51b8152602060048201526018602482015277115490cdcc8c4e881a5b9d985b1a59081d1bdad95b88125160421b60448201526064016107a6565b600081815260046020526040902080546001600160a01b0319166001600160a01b0384169081179091558190610f6782610a26565b6001600160a01b03167f8c5be1e5ebec7d5bd14f71427d1e84f3dd0314c0f7b2291e5b200ac8c7c3b92560405160405180910390a45050565b61085f81336115ce565b610eac600080611627565b600080610fc183610a26565b9050806001600160a01b0316846001600160a01b0316148061100857506001600160a01b0380821660009081526005602090815260408083209388168352929052205460ff165b8061102c5750836001600160a01b03166110218461070b565b6001600160a01b0316145b949350505050565b826001600160a01b031661104782610a26565b6001600160a01b03161461106d5760405162461bcd60e51b81526004016107a6906121af565b6001600160a01b0382166110cf5760405162461bcd60e51b8152602060048201526024808201527f4552433732313a207472616e7366657220746f20746865207a65726f206164646044820152637265737360e01b60648201526084016107a6565b826001600160a01b03166110e282610a26565b6001600160a01b0316146111085760405162461bcd60e51b81526004016107a6906121af565b600081815260046020908152604080832080546001600160a01b03199081169091556001600160a01b0387811680865260038552838620805460001901905590871680865283862080546001019055868652600290945282852080549092168417909155905184937fddf252ad1be2c89b69c2b068fc378daa952ba7f163c4a11628f55a4df523b3ef91a4505050565b6000828152600660205260409020600101546111b381610fa0565b61084783836116e7565b6001600160a01b038116331461122d5760405162461bcd60e51b815260206004820152602f60248201527f416363657373436f6e74726f6c3a2063616e206f6e6c792072656e6f756e636560448201526e103937b632b9903337b91039b2b63360891b60648201526084016107a6565b6109098282611791565b6000611241610d1e565b61124a426117cc565b611254919061220a565b90506112608282611837565b60405165ffffffffffff821681526001600160a01b038316907f3377dc44241e779dd06afab5b788a35ca5f3b778836e2990bdb26a2a4b2e5ed69060200160405180910390a25050565b60006112b5826118b6565b6112be426117cc565b6112c8919061220a565b90506112d48282611627565b6040805165ffffffffffff8085168252831660208201527ff1038c18cf84a56e432fdbfaf746924b7ea511dfe03a6506a0ceba4888788d9b910160405180910390a15050565b816001600160a01b0316836001600160a01b03160361137b5760405162461bcd60e51b815260206004820152601960248201527f4552433732313a20617070726f766520746f2063616c6c65720000000000000060448201526064016107a6565b6001600160a01b03838116600081815260056020908152604080832094871680845294825291829020805460ff191686151590811790915591519182527f17307eab39ab6107e8899845ad3d59bd9653f200f220920489ca2b5937696c31910160405180910390a3505050565b6113f3848484611034565b6113ff848484846118fe565b610ca45760405162461bcd60e51b81526004016107a690612230565b60606000611428836119ff565b600101905060008167ffffffffffffffff81111561144857611448611fdd565b6040519080825280601f01601f191660200182016040528015611472576020820181803683370190505b5090508181016020015b600019016f181899199a1a9b1b9c1cb0b131b232b360811b600a86061a8153600a850494508461147c57509392505050565b6000806114b9610dfb565b915091506114ce8165ffffffffffff16151590565b80156114e157504265ffffffffffff8216105b61153e5760405162461bcd60e51b815260206004820152602860248201527f416363657373436f6e74726f6c3a207472616e736665722064656c6179206e6f6044820152671d081c185cdcd95960c21b60648201526084016107a6565b61155a60006115556008546001600160a01b031690565b611791565b6115656000836116e7565b5050600780546001600160d01b0319169055565b60008281526006602052604090206001015461159481610fa0565b6108478383611791565b610eac600080611837565b60006001600160e01b03198216637965db0b60e01b1480610673575061067382611ad7565b6115d88282610bd9565b610909576115e581611b27565b6115f0836020611b39565b604051602001611601929190612282565b60408051601f198184030181529082905262461bcd60e51b82526107a691600401611e5b565b600854600160d01b900465ffffffffffff1680156116aa574265ffffffffffff8216101561168057600854600780546001600160d01b0316600160a01b90920465ffffffffffff16600160d01b029190911790556116aa565b6040517f2b1fa2edafe6f7b9e97c1a9e0c3660e645beb2dcaa2d45bdbf9beaf5472e1ec590600090a15b50600880546001600160a01b0316600160a01b65ffffffffffff948516026001600160d01b031617600160d01b9290931691909102919091179055565b816117875760006117006008546001600160a01b031690565b6001600160a01b03161461176b5760405162461bcd60e51b815260206004820152602c60248201527f416363657373436f6e74726f6c3a2064656661756c742061646d696e20616c7260448201526b1958591e4819dc985b9d195960a21b60648201526084016107a6565b600880546001600160a01b0319166001600160a01b0383161790555b6109098282611cd5565b811580156117ac57506008546001600160a01b038281169116145b156117c257600880546001600160a01b03191690555b6109098282611d5b565b600065ffffffffffff8211156118335760405162461bcd60e51b815260206004820152602660248201527f53616665436173743a2076616c756520646f65736e27742066697420696e203460448201526538206269747360d01b60648201526084016107a6565b5090565b6000611841610dfb565b6007805465ffffffffffff8616600160a01b026001600160d01b03199091166001600160a01b03881617179055915061188390508165ffffffffffff16151590565b15610847576040517f8886ebfc4259abdbc16601dd8fb5678e54878f47b3c34836cfc51154a960510990600090a1505050565b6000806118c1610d1e565b90508065ffffffffffff168365ffffffffffff16116118e9576118e483826122f7565b610d17565b610d1765ffffffffffff841662069780611dc2565b60006001600160a01b0384163b156119f457604051630a85bd0160e11b81526001600160a01b0385169063150b7a0290611942903390899088908890600401612316565b6020604051808303816000875af192505050801561197d575060408051601f3d908101601f1916820190925261197a91810190612353565b60015b6119da573d8080156119ab576040519150601f19603f3d011682016040523d82523d6000602084013e6119b0565b606091505b5080516000036119d25760405162461bcd60e51b81526004016107a690612230565b805181602001fd5b6001600160e01b031916630a85bd0160e11b14905061102c565b506001949350505050565b60008072184f03e93ff9f4daa797ed6e38ed64bf6a1f0160401b8310611a3e5772184f03e93ff9f4daa797ed6e38ed64bf6a1f0160401b830492506040015b6d04ee2d6d415b85acef81000000008310611a6a576d04ee2d6d415b85acef8100000000830492506020015b662386f26fc100008310611a8857662386f26fc10000830492506010015b6305f5e1008310611aa0576305f5e100830492506008015b6127108310611ab457612710830492506004015b60648310611ac6576064830492506002015b600a83106106735760010192915050565b60006001600160e01b031982166380ac58cd60e01b1480611b0857506001600160e01b03198216635b5e139f60e01b145b8061067357506301ffc9a760e01b6001600160e01b0319831614610673565b60606106736001600160a01b03831660145b60606000611b48836002612370565b611b53906002612387565b67ffffffffffffffff811115611b6b57611b6b611fdd565b6040519080825280601f01601f191660200182016040528015611b95576020820181803683370190505b509050600360fc1b81600081518110611bb057611bb061239a565b60200101906001600160f81b031916908160001a905350600f60fb1b81600181518110611bdf57611bdf61239a565b60200101906001600160f81b031916908160001a9053506000611c03846002612370565b611c0e906001612387565b90505b6001811115611c86576f181899199a1a9b1b9c1cb0b131b232b360811b85600f1660108110611c4257611c4261239a565b1a60f81b828281518110611c5857611c5861239a565b60200101906001600160f81b031916908160001a90535060049490941c93611c7f816123b0565b9050611c11565b508315610d175760405162461bcd60e51b815260206004820181905260248201527f537472696e67733a20686578206c656e67746820696e73756666696369656e7460448201526064016107a6565b611cdf8282610bd9565b6109095760008281526006602090815260408083206001600160a01b03851684529091529020805460ff19166001179055611d173390565b6001600160a01b0316816001600160a01b0316837f2f8788117e7eff1d82e926ec794901d17c78024a50270940304540a733656f0d60405160405180910390a45050565b611d658282610bd9565b156109095760008281526006602090815260408083206001600160a01b0385168085529252808320805460ff1916905551339285917ff6391f5c32d9c69d2a47ea670b442974b53935d1edc7fd64eb21e047a839171b9190a45050565b6000818310611dd15781610d17565b5090919050565b6001600160e01b03198116811461085f57600080fd5b600060208284031215611e0057600080fd5b8135610d1781611dd8565b60005b83811015611e26578181015183820152602001611e0e565b50506000910152565b60008151808452611e47816020860160208601611e0b565b601f01601f19169290920160200192915050565b602081526000610d176020830184611e2f565b600060208284031215611e8057600080fd5b5035919050565b80356001600160a01b0381168114611e9e57600080fd5b919050565b60008060408385031215611eb657600080fd5b611ebf83611e87565b946020939093013593505050565b600080600060608486031215611ee257600080fd5b611eeb84611e87565b9250611ef960208501611e87565b9150604084013590509250925092565b60008060408385031215611f1c57600080fd5b82359150611f2c60208401611e87565b90509250929050565b600060208284031215611f4757600080fd5b610d1782611e87565b600060208284031215611f6257600080fd5b813565ffffffffffff81168114610d1757600080fd5b600060208284031215611f8a57600080fd5b81356001600160801b0381168114610d1757600080fd5b60008060408385031215611fb457600080fd5b611fbd83611e87565b915060208301358015158114611fd257600080fd5b809150509250929050565b634e487b7160e01b600052604160045260246000fd5b6000806000806080858703121561200957600080fd5b61201285611e87565b935061202060208601611e87565b925060408501359150606085013567ffffffffffffffff8082111561204457600080fd5b818701915087601f83011261205857600080fd5b81358181111561206a5761206a611fdd565b604051601f8201601f19908116603f0116810190838211818310171561209257612092611fdd565b816040528281528a60208487010111156120ab57600080fd5b82602086016020830137600060208483010152809550505050505092959194509250565b600080604083850312156120e257600080fd5b6120eb83611e87565b9150611f2c60208401611e87565b600181811c9082168061210d57607f821691505b60208210810361212d57634e487b7160e01b600052602260045260246000fd5b50919050565b6020808252602d908201527f4552433732313a2063616c6c6572206973206e6f7420746f6b656e206f776e6560408201526c1c881bdc88185c1c1c9bdd9959609a1b606082015260800190565b60008351612192818460208801611e0b565b8351908301906121a6818360208801611e0b565b01949350505050565b60208082526025908201527f4552433732313a207472616e736665722066726f6d20696e636f72726563742060408201526437bbb732b960d91b606082015260800190565b634e487b7160e01b600052601160045260246000fd5b65ffffffffffff818116838216019080821115612229576122296121f4565b5092915050565b60208082526032908201527f4552433732313a207472616e7366657220746f206e6f6e20455243373231526560408201527131b2b4bb32b91034b6b83632b6b2b73a32b960711b606082015260800190565b7f416363657373436f6e74726f6c3a206163636f756e74200000000000000000008152600083516122ba816017850160208801611e0b565b7001034b99036b4b9b9b4b733903937b6329607d1b60179184019182015283516122eb816028840160208801611e0b565b01602801949350505050565b65ffffffffffff828116828216039080821115612229576122296121f4565b6001600160a01b038581168252841660208201526040810183905260806060820181905260009061234990830184611e2f565b9695505050505050565b60006020828403121561236557600080fd5b8151610d1781611dd8565b8082028115828204841417610673576106736121f4565b80820180821115610673576106736121f4565b634e487b7160e01b600052603260045260246000fd5b6000816123bf576123bf6121f4565b50600019019056fea26469706673582212203a1996ee12d39bd3766485a7e9a3c780afbe28159511f04698e6e948232fe0b764736f6c63430008140033",
    "linkReferences": {}
  },
  "methodIdentifiers": {
    "DEFAULT_ADMIN_ROLE()": "a217fddf",
    "NOMINATED_ADMINS()": "0b68af0f",
    "acceptDefaultAdminTransfer()": "cefc1429",
    "approve(address,uint256)": "095ea7b3",
    "balanceOf(address)": "70a08231",
    "beginDefaultAdminTransfer(address)": "634e93da",
    "cancelDefaultAdminTransfer()": "d602b9fd",
    "changeDefaultAdminDelay(uint48)": "649a5ec7",
    "defaultAdmin()": "84ef8ffc",
    "defaultAdminDelay()": "cc8463c8",
    "defaultAdminDelayIncreaseWait()": "022d63fb",
    "getApproved(uint256)": "081812fc",
    "getRoleAdmin(bytes32)": "248a9ca3",
    "grantRole(bytes32,address)": "2f2ff15d",
    "hasRole(bytes32,address)": "91d14854",
    "isApprovedForAll(address,address)": "e985e9c5",
    "joinDAO()": "f63d13d7",
    "name()": "06fdde03",
    "owner()": "8da5cb5b",
    "ownerOf(uint256)": "6352211e",
    "pendingDefaultAdmin()": "cf6eefb7",
    "pendingDefaultAdminDelay()": "a1eda53c",
    "renounceRole(bytes32,address)": "36568abe",
    "revokeRole(bytes32,address)": "d547741f",
    "rollbackDefaultAdminDelay()": "0aa6220b",
    "safeTransferFrom(address,address,uint256)": "42842e0e",
    "safeTransferFrom(address,address,uint256,bytes)": "b88d4fde",
    "setAcceptanceFee(uint128)": "6765e074",
    "setApprovalForAll(address,bool)": "a22cb465",
    "supportsInterface(bytes4)": "01ffc9a7",
    "symbol()": "95d89b41",
    "tokenURI(uint256)": "c87b56dd",
    "transferFrom(address,address,uint256)": "23b872dd"
  },
  "id": 0
}